:020000040800F2
:10000000283900209D010008594B0008DB39000801
:10001000554B0008B51100081D52000800000000F3
:1000200000000000000000000000000005010008C2
:10003000291B00080000000049010008154D0008B8
:10004000B7010008B7010008B7010008B7010008B0
:10005000B7010008B7010008B7010008B7010008A0
:10006000B7010008B7010008B7010008B701000890
:10007000B7010008B7010008B7010008B701000880
:10008000B7010008B7010008B7010008B701000870
:10009000B7010008B7010008B7010008B701000860
:1000A000B7010008B7010008B7010008B701000850
:1000B000B7010008B7010008B7010008B701000840
:1000C000B7010008B7010008B7010008B701000830
:1000D000B7010008B7010008B7010008B701000820
:1000E000B7010008B7010008B7010008DFF810D019
:1000F00000F07AFC00480047FD5B0008AFF3008089
:1001000028390020224B19680868B0E8F00F80F306
:100110000988BFF36F8F4FF0000080F311884EF015
:100120000D0E70470000000006480068006880F36C
:10013000088862B661B6BFF34F8FBFF36F8F00DFE1
:1001400000BF00BF08ED00E0EFF30980BFF36F8F41
:100150000F4B1A6820E9F00F106008B54FF0BF0090
:1001600080F31188BFF34F8FBFF36F8F06F0ACF9A8
:100170004FF0000080F31188BDE808401968086856
:10018000B0E8F00F80F30988BFF36F8F704700BFAE
:1001900080000020EFF3058070470000064880478C
:1001A00006480047FEE7FEE7FEE7FEE7FEE7FEE75C
:1001B000FEE7FEE7FEE7FEE78F4D0008ED000008D2
:1001C000202A04DB203A21FA02F00021704721FAAC
:1001D00002F3D040C2F12002914008431946704713
:1001E000D2B201E000F8012B491EFBD27047002279
:1001F000F6E710B513460A4604461946FFF7F0FF26
:10020000204610BD421C10F8011B0029FBD1801AAA
:1002100070470022CBB20178994200D10246401CBF
:100220000029F8D110467047F0B480EA0102D40FDB
:100230004200B2EB410F02D20246084611464A0084
:1002400042D0C30DDDB2C1F3C752AD1A202D35DA4D
:10025000C1F3160141F4000204B15242C5F1200677
:1002600002FA06F12A411044B3EBD05F23D0C4B1A7
:10027000012DA0EBC35009DCF0BC4FF0004202EAB4
:10028000C352DBB200F5000000F00CBB400000F1EF
:10029000807000EBC350A0F1807040EAD17049003B
:1002A00009E0490841EAC071A0EBC35000F5000025
:1002B000400800EBC350F0BC00F0EBBA61420122F1
:1002C00002EB4101001BF6E7F0BC704781F00041F2
:1002D000AAE780F00040A7E780EA010210B502F02B
:1002E0000043400022D04A001FD0010E01EB1261F2
:1002F000C0F35600C2F3560240F4000042F400027C
:10030000A0FB022000047F39140400D0401C50EAF6
:10031000124001D44000491EC2B20C0604EBD010BA
:10032000401C4008802A02D003E0002010BD20F0CD
:100330000100002900DA0020184310BD30B480EA23
:10034000010202F0004530F0004221F0004013D0DD
:1003500090B1C30DD40DC2F31601C0F31600E41A18
:1003600041F4000140F400027D34914201D3641C49
:1003700000E04900002C02DA30BC002070474FF446
:1003800000000023914201D3891A034340084FEA39
:100390004101F7D151B1914202D14FF0004105E046
:1003A00002D24FF0010101E06FF0010103EBC450F4
:1003B000284430BC00F06DBA2DE9FE4F804681EA3A
:1003C0000300C00F0C46009021F0004123F00045CF
:1003D000B8EB0200A94105D24046214690461C4692
:1003E0000B46024623F00040104347D0270DC7F3C9
:1003F0000A00C3F30A510290401A019040286BDAB8
:10040000C3F3130040F4801B0098924620B10023F0
:10041000D2EB030A63EB0B0B01985946C0F1400283
:10042000504600F015FA06460D4650465946019AC8
:1004300000F01DFA10EB08006141002487EA115218
:1004400084EAE7731A4340D0009A62B3019A012A02
:100450004FEA075215DC001B61EB02014FF000422E
:1004600002EA0752CDE90042001C41F580113246F4
:100470002B4600F054FA03B0BDE8F08F4046214609
:10048000F9E7001B61EB0201001C41F58013001825
:100490005B412018A2F5001747EB030140EAD57035
:1004A000B6196D4111E06D084FEA360645EAC07590
:1004B0004FEA0752001B61EB0201001C41F580115D
:1004C00049084FEA30000019514132462B4603B02B
:1004D000BDE8F04F00F014BA00980122400000235C
:1004E000D0EB020263EBE073009821464FEAE07420
:1004F000B8EB000061EB0401E9E783F000435BE740
:1005000081F0004158E72DE9FE4F81EA030404F031
:10051000004421F0004100944FF0000B23F0004311
:1005200050EA01045ED052EA03045BD0C3F30A54DC
:10053000C1F30A552C44A4F2F3340194A0FB0254F5
:10054000C1F3130141F48011C3F3130343F4801387
:1005500001FB024400FB034E840A970A44EA8154DB
:1005600047EA8357A4FB076802958D0A05FB0785B8
:100570004FEA932C04FB0C542705029D4FEA0658C2
:1005800047EA1637B5EB08056EEB070C870E920E9F
:1005900047EA811742EA8312A7FB0201B6EB0B017F
:1005A00064EB00042B0D43EA0C335E1844EB1C5043
:1005B000DA465146E7FB0201C5F313044FEA0B3359
:1005C00043EA14534FEA0432019C43EA0603A4F1C0
:1005D0000C040294009CCDE900B400F0A0F903B033
:1005E000BDE8F08F00200146F9E72DE9F04D81EAE2
:1005F000030404F0004B21F0004514464FF0000ABC
:1006000023F0004150EA050220D054EA01021DD037
:10061000C5F30A570246C5F31303C1F31300C1F330
:100620000A5640F4801543F48013A7EB0608101B0C
:10063000D64608F2FD3873EB050002D308F1010835
:1006400001E092185B41B8F1000F03DA0020014687
:10065000BDE8F08D00204FF48011064684460EE080
:10066000171B73EB050705D3121B63EB050306434A
:100670004CEA010C49084FEA300092185B4150EAFD
:100680000107EDD152EA030012D082EA040083EAA6
:100690000501084305D0101BAB4106D201220023FF
:1006A00006E000224FF0004302E06FF00102531019
:1006B0001AEB06004CEB085110EB0A0041EB0B0162
:1006C000BDE8F04D00F01CB9C10F80EAE0700844AD
:1006D000CA079623002100F0E5B80EB5C10F80EAE5
:1006E000E0700844CA07002140F233438DE80E0051
:1006F0000A460B4600F013F903B000BD00F00042BB
:1007000020F00040C10DC0F3160040F400007F2926
:1007100001DA00207047962903DCC1F19601C84038
:1007200001E096398840002AF4D04042704770B505
:10073000C1F30A5201F000450024C1F3130140F255
:10074000FF3341F480119A4201DA002070BD40F27B
:1007500033439A42A2F2334203DC5242FFF730FDA8
:1007600000E090402C43F1D0404270BD00F00042C8
:1007700030F000400AD0C10D01F56071C0F31600E1
:1007800042EA0151C2084007114370470020014668
:100790007047000030B5041E71F1000404DB4FF017
:1007A0000044404264EB0101141E73F1000405DBB8
:1007B0001C464FF00043524263EB04038B4208BFD8
:1007C000824230BD01F0004330B421F0004150EAD4
:1007D000010206D00A0DA2F56072C1F31301002ACE
:1007E00002DC30BC00207047440F44EAC104C10061
:1007F000E01830BC00EBC25000F04BB8002801DB21
:10080000C0F10040002901DBC1F100418142704785
:10081000002801DBC0F10040002901DBC1F10041EB
:100820008842704730B50B46014600202022012443
:1008300009E021FA02F59D4205D303FA02F5491BAE
:1008400004FA02F52844151EA2F10102F1DC30BDC4
:10085000202A04DB203A00FA02F100207047914080
:10086000C2F1200320FA03F3194390407047202A75
:1008700006DBCB17203A41FA02F043EAE07306E0C8
:1008800041FA02F3D040C2F12002914008431946D8
:1008900070470029A8BF7047401C490008BF20F0DE
:1008A0000100704710B4B0FA80FC00FA0CF050EA76
:1008B000010404BF10BC704749B1CCF1200421FAF7
:1008C00004F411FA0CF118BF012121430843A3EBF2
:1008D0000C01CB1D4FEA00614FEA102042BF0020FF
:1008E00010BC704700EBC35010440029A4BF10BCDB
:1008F0007047401C490008BF20F0010010BC704741
:1009000010B5141E73F1000408DA401C41F1000117
:1009100092185B411A4301D120F0010010BD2DE96E
:10092000F04D92469B4611B1B1FA81F202E0B0FA65
:1009300080F220329046FFF78BFF04460F4640EAD4
:100940000A0041EA0B0153465A46084313D01146A8
:1009500053EA010019D0C8F140025046FFF730FCBD
:1009600005460E46504659464246FFF771FF08437A
:1009700005D0012004E020463946BDE8F08D002076
:10098000054346EAE0762C4337430A986305E40AB8
:10099000A0EB08000022FD0A44EA47540A3002D5C1
:1009A00000200146E9E7010510196941DDE9084524
:1009B00000196941BDE8F04DA2E770B521F0004390
:1009C00003430CD0C1F30A550024D5EB040564EBB6
:1009D0000403D617AD1AB34102DB0020014670BDF7
:1009E000201841EB025170BD064C074D06E0E0684F
:1009F00040F0010394E8070098471034AC42F6D366
:100A0000FFF778FB506B0008706B0008420005D0C0
:100A1000C0F3C7525242914201DC0020704700EB04
:100A2000C15070472DE9F04D00231A461B1A8A4128
:100A300003DB00200146BDE8F08DC1F30A52C1F38B
:100A4000130141F480154FF0000BD10702D10018BB
:100A50006D41521E0027044640F2FF11384601EB5B
:100A6000620A3E468046024600204FF48011FFF79E
:100A7000A7FBC2197141BB1846EB0100B4EB030C94
:100A800075EB000C04D3E41A65EB000517460E461F
:100A9000241908F101006D4180463428E3DDF9197D
:100AA00046EB0600091BA84103D24FF0FF32134664
:100AB00001E0002213461BEB070046EB0A51BDE89C
:100AC000F04DFFF71DBF70B58C1810F8015B15F0E5
:100AD000070301D110F8013B2A1106D110F8012BB0
:100AE00003E010F8016B01F8016B5B1EF9D12B07D5
:100AF00005D40023521E0DD401F8013BFAE710F88B
:100B0000013BCB1A921C03E013F8015B01F8015B77
:100B1000521EF9D5A142D8D3002070BD70B55C48F3
:100B2000007830B101280ED0022869D0032869D19D
:100B300067E000205749C8805749C8805749C88096
:100B40005749C8805FE05749B1F90000FFF7BCFD85
:100B500006465548016A3046FFF766FB054653488E
:100B6000016A2846FFF7B2FB0446FFF7C7FD00B253
:100B70004849C8804B49B1F90000FFF7A5FD06467A
:100B80004948016A3046FFF7A1FB05464748016A1C
:100B90002846FFF79BFB0446FFF7B0FD00B23E4935
:100BA000C8804049B1F90000FFF78EFD06463E4877
:100BB000016A3046FFF738FB05463C48016A284683
:100BC000FFF732FB0446FFF799FD00B23349C880B6
:100BD0003449B1F90000FFF777FD06463248016A53
:100BE0003046FFF773FB05463048016A2846FFF799
:100BF0001BFB0446FFF782FD00B22949C88002E0D2
:100C000001E000E000BF00BF2249B1F90600002268
:100C10004FF4167100F044FB1E49C8801E49B1F91B
:100C2000060000224FF4167100F03AFB1A49C88002
:100C30001A49B1F9060000224FF4167100F030FB9A
:100C40001649C8801649B1F9060000224FF4167102
:100C500000F026FB1249C8801248B0F90000322883
:100C600008DA00200B49C8800B49C8800B49C880AE
:100C70000B49C880074803F0A3FC074803F0A0FC19
:100C8000064803F09DFC064803F09AFC70BD000086
:100C9000010100203801002040010020480100200F
:100CA00050010020020100207C010020C40100202E
:100CB0002DE9F041324803F0D3F9324AB2F900107D
:100CC0002F4AB2F9000000F04DFB2D4908802D4A53
:100CD000B2F902102A4AB2F9020000F043FB284997
:100CE0004880284AB2F90410254AB2F9040000F0FD
:100CF00039FB23498880084600882249088020481B
:100D0000408848801E48808888801D49B1F90600C7
:100D1000FFF7E3FC064632460B461B4800F0CBFAD1
:100D20000446FFF704FD00B21549C880B1F9080078
:100D3000FFF7D3FC064632460B461348183000F046
:100D4000BAFA0446FFF7F3FC01B20D4801810146EF
:100D5000B1F90A00FFF7C1FC064632460B460A48C5
:100D6000303000F0A8FA0446FFF7E1FC01B2044875
:100D70004181064A064900F01DFBBDE8F0810000F4
:100D8000103500202C01002010000020A69BC43B41
:100D90001C35002010B503F0B3F9064803F08CFCB5
:100DA000054803F089FC054803F086FC044803F07D
:100DB00083FC10BD380100204001002048010020C4
:100DC000500100202DE9F0472B49B1F90410A1F59D
:100DD000FA70FFF782FC06460022284BFFF705FC5D
:100DE0000446FFF7EFFC2649086126484068486141
:100DF0002549B1F90200FFF770FC80460022234B21
:100E0000FFF781FB06460022214BFFF7EEFB04466D
:100E1000FFF7D8FC1F494861194800F035FA164918
:100E2000B1F90610A1F5FA70FFF757FC064600224B
:100E3000124BFFF7DAFB0446FFF7C4FC16490861C2
:100E40001048806848611049B1F90000FFF745FC7F
:100E5000064600220D4BFFF756FB044600220C4BC2
:100E6000FFF7C3FB8046FFF7ADFC0C4948610A4819
:100E700000F00AFABDE8F0870201002000004940B6
:100E8000580100201C3500201035002000409F40F4
:100E90000000E0407C010020A0010020C4010020EF
:100EA0001CB51548042100238022CDE9001013A1B0
:100EB000154805F06DFB1548032100238022CDE97C
:100EC000001013A1154805F063FB1548012100230C
:100ED0008022CDE9001013A1154805F059FB1548F3
:100EE000022100238022CDE9001013A1154805F04E
:100EF0004FFB05F0ABFA1CBD0C010020706F77654D
:100F0000725F7461736B0000C95C000810010020FF
:100F1000666C696768745F7461736B00E55A0008FA
:100F2000140100206C65645F7461736B0000000045
:100F3000295B000818010020636F6D5F7461736B9B
:100F400000000000995A000828B900210B4A1170CE
:100F50000B4A117010E001280ED109490978491C8B
:100F6000074A1170114609780A2905DB0121034A55
:100F700011700021024A117070470000000100202A
:100F80002801002010B52048007830B101280ED08B
:100F900002281ED0032834D12CE000F03DF828B9F7
:100FA0000120194908700020184908702AE01848E3
:100FB000407A012805D10220134908700020144905
:100FC000487214480078012802D103200E490870A5
:100FD00018E00F48407A012804D10B49087000201E
:100FE0000B4948720B480078012802D103200649BA
:100FF000087007E0012005F00FFA00200249087090
:1010000000E000BF00BF10BD010100201C01002056
:10101000020100200001002010B52D4800780528AD
:101020004BD2DFE800F00311273449002948B0F91A
:101030000000B0F5617F06DB01202549087005F04E
:10104000CBFB2549086039E02248B0F90000B0F533
:10105000617F0EDA05F0C0FB1F490968401AB0F540
:101060007A7F03D302201A49087002E00020184951
:10107000087023E01748B0F90000642806DC03205C
:101080001349087005F0A8FB1449086016E005F044
:10109000A3FB12490968401AB0F57A7F08D80D48B9
:1010A000B0F90000642806DD00200949087002E05C
:1010B00004200749087001E000E000BF00BF0448B9
:1010C0000078042801D1002010BD0120FCE70000B9
:1010D0001C0100200201002020010020240100202A
:1010E00070B511213148FFF782F8304803F0FCF960
:1010F0002E48FFF787F808B9012070BD2B4800780B
:10110000732807D129484078672803D12748807879
:10111000672801D00120F0E700240025002004E02A
:101120002249095C0C44411CC8B20D28F8DB1F4859
:10113000407B00061D49897B40EA01401B49C97B71
:1011400040EA01201949097C40EA0105AC4201D07E
:101150000120D2E7154800791449C97840EA0120F6
:1011600000B213490880114880791049497940EA52
:10117000012000B20E4948800C48007A0B49C97919
:1011800040EA012000B20A4988800848807A07496D
:10119000497A40EA012000B20549C8800348C07A74
:1011A00008720248007B48720020A6E7FC34002049
:1011B0000201002000BFFEE72DE9F04F89B0824612
:1011C000DAE90410FFF782F8CAF80C00DAF80C101C
:1011D000DAF81C00FFF728F8CAF81C000021DAF83A
:1011E0001800FFF70BFB03D1DAF80C00CAF818005F
:1011F000DAF81810DAF80C00FFF768F88346594659
:10120000DAF80800FFF768F80646FFF7AFFA044679
:101210001B4A1C4BFFF7E9F9CDE90401DAF81C1071
:10122000DAF80400FFF758F80190FFF79FFA8046BC
:10123000134A144BFFF767F904460D46DAF80C1011
:10124000DAF80000FFF748F88046FFF78FFA064605
:1012500022462B46FFF7B0F8CDE90201DDE9042371
:10126000FFF7AAF8CDE90601FFF7ACFACAF82000AB
:10127000DAF80C00CAF8180009B0BDE8F08F0000D9
:10128000FA7E6ABC7493783F70B505460C462846D2
:10129000FFF792FF286A20612046FFF78DFF70BD9F
:1012A00003468B4201DD08467047934201DA10463F
:1012B000FAE71846F8E72DE9F04788B08246144669
:1012C0001D46DAF81010DAF80000FEF7ADFFCAF894
:1012D0000400DAF81410DAF80400FEF7A5FF064659
:1012E0003146DAF80400FFF729F8CAF80C00DAF8FA
:1012F0000800FFF73BFA22462B46CDE90001FFF735
:10130000FFF8CDE90201DAF80C00FFF72FFA0646E4
:10131000DDE90223FFF7F7F880468946DAF808008E
:10132000FFF724FA42464B46CDE90401FFF744F8A3
:10133000CDE90601FFF746FACAF808004FF07E50E3
:10134000DAF80C10FEF7C2FF0646DAF80410FEF7D2
:10135000C3FFCAF80000DAF80800FFF707FA08B080
:10136000BDE8F0872DE9FC5F83460C462046FFF779
:10137000B4F907464FF033320C4BFFF7C4F88146FF
:101380008A465846FFF7A9F907464FF03332084B13
:10139000FFF7B9F84A465346CDE90001FFF70CF8CC
:1013A0000546FFF7C4F900B2BDE8FC9F3333EB3FBD
:1013B0003333C33F07B5A0B04FF07C512298FEF7FE
:1013C0008BFF0E90FE4880680690FD4800680590EF
:1013D0000699FEF781FF0890F948C0680690F84822
:1013E000406805900699FEF777FF07900899FEF789
:1013F0006DFF4FF080410990FEF76EFF1D90F048A1
:10140000C0680690EE48806805900699FEF764FF74
:101410000890EB4840680690E948006805900699F6
:10142000FEF75AFF07900899FEF7FEFE4FF0804145
:101430000990FEF751FF1E90E14880680590E04852
:10144000806804900599FEF747FF0790DC484068E4
:101450000590DB48406804900599FEF73DFF069033
:101460000799FEF7E1FE4FF080410890FEF734FF48
:101470004FF07E510990FEF72CFF1F902098B0F995
:101480000A000490FFF720F906902098B0F90A00AE
:101490000490FFF719F905900699FEF71DFF0890D3
:1014A0002098B0F908000290FFF70EF904902098F8
:1014B000B0F908000290FFF707F903900499FEF7CE
:1014C0000BFF06902098B0F906000290FFF7FCF899
:1014D00004902098B0F906000290FFF7F5F8039009
:1014E0000499FEF7F9FE05900699FEF79DFE079018
:1014F0000899FEF799FE099003F030FB0F902098B1
:10150000B0F906000890FFF7DFF809900F99FEF791
:10151000E3FE1A902098B0F908000890FFF7D4F87D
:1015200009900F99FEF7D8FE1B902098B0F90A0099
:101530000890FFF7C9F809900F99FEF7CDFE1C90AF
:101540001E9807901C9806900799FEF7C5FE099013
:101550001F9807901B9806900799FEF7BDFE08900C
:101560000999FEF7B3FE14901F9807901A980690F9
:101570000799FEF7B1FE09901D9807901C980690F8
:101580000799FEF7A9FE08900999FEF79FFE1590AE
:101590001D9807901B9806900799FEF79DFE0990ED
:1015A0001E9807901A9806900799FEF795FE0890E6
:1015B0000999FEF78BFE16901498089081480168EF
:1015C0000898FEF789FE09907F4800680146089058
:1015D0000998FEF729FE7C4908601598089079481B
:1015E00001680898FEF778FE099077484068014640
:1015F00008900998FEF718FE7349486016980890FD
:10160000704801680898FEF767FE09906E48806888
:10161000014608900998FEF707FE6B498860149808
:101620000146069069480068FEF756FE089020982B
:10163000B0F900000590FFF747F80690644801688C
:101640000698FEF749FE07900899FEF7EDFD099010
:101650005D480068014608900998FEF7E5FD17907F
:1016600015980146069059480068FEF735FE089027
:101670002098B0F902000590FFF726F8069054482C
:1016800001680698FEF728FE07900899FEF7CCFD42
:1016900009904D484068014608900998FEF7C4FD3E
:1016A000189016980146069048480068FEF714FE08
:1016B00008902098B0F904000590FFF705F806900F
:1016C000434801680698FEF707FE07900899FEF761
:1016D000ABFD09903C488068014608900998FEF7E8
:1016E000A3FD1990199806903548C0680590069991
:1016F000FEF7F2FD08901898049031488068039036
:101700000499FEF7E9FD06902D48406880F00040FE
:1017100004901798014603900498FEF7DDFD0590AC
:101720000699FEF7D3FD07900899FEF7CFFD0990C3
:101730000E99FEF7D1FD1390199806902048806805
:1017400005900699FEF7C8FD0890189804901C486B
:10175000C06803900499FEF7BFFD069017980490A7
:101760001748006803900499FEF7B6FD05900699A6
:10177000FEF7ACFD07900899FEF756FD09900E990B
:10178000FEF7AAFD1290199806900D484068059042
:101790000699FEF7A1FD0890189804900848006883
:1017A00003900499FEF798FD06901798049004485A
:1017B000C06803900499FEF78FFD0590069909E033
:1017C000700000206C000020280400206800002029
:1017D00060000020FEF728FD07900899FEF776FDCF
:1017E00009900E99FEF778FD119019980690C94856
:1017F000006805900699FEF76FFD08901898049010
:10180000C448406803900499FEF766FD0690C148FD
:10181000806880F000400490179801460390049877
:10182000FEF75AFD05900699FEF7FEFC0790089911
:10183000FEF7FAFC09900E99FEF74EFD1090B548A0
:10184000006809901399FEF7EFFCB249086008465A
:10185000406809901299FEF7E7FCAE4948600846D7
:10186000806809901199FEF7DFFCAA498860084654
:10187000C06809901099FEF7D7FCA649C8600846D1
:10188000C06806900846C06805900699FEF724FDDA
:101890000890A048806804909E488068039004994E
:1018A000FEF71AFD06909B484068029099484068F0
:1018B00001900299FEF710FD04909648006802908E
:1018C0009448006801900299FEF706FD0390049980
:1018D000FEF7AAFC05900699FEF7A6FC079008996A
:1018E000FEF7A2FC099003F039F90F9089480068CF
:1018F00009900F99FEF7F0FC864908600846406899
:1019000009900F99FEF7E8FC824948600846806814
:1019100009900F99FEF7E0FC7E4988600846C06890
:1019200009900F99FEF7D8FC7A49C86008464068CC
:10193000014606904FF08040FEF7CEFC07907548B8
:10194000C068014606900798FEF7C6FC09907148EA
:101950000068014606904FF08040FEF7BDFC0790FE
:101960006C488068014606900798FEF7B5FC089021
:101970000999FEF7ABFC0D90664800680146069099
:101980004FF08040FEF7A8FC07906248406801468F
:1019900006900798FEF7A0FC09905E488068014613
:1019A00006904FF08040FEF797FC07905948C068BA
:1019B000014606900798FEF78FFC08900999FEF7FC
:1019C00033FC0C9053488068014606904FF08040ED
:1019D000FEF782FC07904F48806801460690079802
:1019E000FEF77AFC09904B484068014605904FF09D
:1019F0008040FEF771FC069046484068014605901D
:101A00000698FEF769FC4FF07E510790FEF761FCE7
:101A100008900999FEF75AFC0B902098B0F9040041
:101A20000890FEF751FE09903B4801680998FEF7BF
:101A300053FC0A904FF07C510A98FEF7E9FE09D357
:101A40000A98FEF793FE0022344BCDE90801FEF719
:101A5000A1FE0DD222990A98FEF73EFC099021982A
:101A60000068014608900998FEF7DEFB219908609E
:101A70002B480068FEF77AFECDE906010D98FEF7C7
:101A800075FECDE9020103F07DFDCDE90401DDE93C
:101A90000623FEF738FDCDE90801FEF793FE2199F4
:101AA0004860DDE90B1003F0A5FE09901C480168B1
:101AB0000998FEF711FC219988602098B0F90A0076
:101AC0000690FEF701FE07900B99FEF705FC0990C2
:101AD0002098B0F908000490FEF7F6FD05900C99E7
:101AE000FEF7FAFB07902098B0F906000490FEF785
:101AF000EBFD05900D99FEF7EFFB06900799FEF7B9
:101B000093FB08900999FEF78FFB0649086023B004
:101B100000BD0000700000205C0000200000E0BF5D
:101B20005800002064000020704772B600BFFEE736
:101B300070B5044600F0B0F906462546681C10B1A1
:101B400004480078054400BF00F0A6F9801BA842B5
:101B5000FAD370BD080000202DE9F84703460022A3
:101B600094466EE14FF0010808FA02F4D1F80080C3
:101B700008EA0400A0427DD1DFF8DCA2D1F804809D
:101B8000A8EB0A09D0453AD014DCB8F1030F50D0C5
:101B900009DCB8F1000F31D0B8F1010F1CD0B8F159
:101BA000020F49D120E0B8F1110F18D0B8F1120F8F
:101BB00042D11EE0B9F5881F25D006DCB9F5803F7B
:101BC00020D0B9F5801F37D11AE0B9F5001F18D021
:101BD000B9F5041F30D117E0D1F80CC02DE0D1F8D1
:101BE0000C8008F1040C28E0D1F80C8008F1080CF6
:101BF00023E0D1F80C8008F10C0C1EE000BF00BF00
:101C000000BF00BF00BF00BFD1F80880B8F1000FCF
:101C100002D14FF0040C0BE0D1F80880B8F1010FAD
:101C200003D14FF0080C1C6102E04FF0080C5C611E
:101C300003E04FF0000C00E000BF00BFFF2801D818
:101C4000984601E003F104084646FF2802D84FEA0F
:101C5000820803E0A2F108084FEA88084746D6F850
:101C600000804FF00F0909FA07F928EA09080CFA71
:101C700007F900E088E048EA0908C6F80080D1F8D2
:101C8000048008F08058B8F1805F7DD100BFDFF894
:101C9000CC81D8F8188048F00108DFF8C091C9F865
:101CA0001880C846D8F8188008F00108CDF80080E0
:101CB00000BF00BF4FEAB9384FEA920958F82950DF
:101CC0004FEA82784FEA18794FF00F0808FA09F8BE
:101CD00025EA0805DFF88881434502D14FF0000866
:101CE00016E0DFF88081434502D14FF001080FE094
:101CF000DFF87481434502D14FF0020808E0DFF8B5
:101D00006C81434502D14FF0030801E04FF0040815
:101D10004FEA82794FEA197908FA09F848EA050585
:101D2000DFF84C814FEA920948F82950D1F8048035
:101D300008F48018B8F5801F0AD1DFF83881D8F888
:101D4000008048EA0008DFF82C91C9F8008009E01B
:101D5000DFF82081D8F8008028EA0008DFF8149125
:101D6000C9F80080D1F8048008F40018B8F5001F05
:101D700010D1DFF8008108F10408D8F8008048EAA3
:101D80000008DFF8F09000E05AE009F10409C9F812
:101D900000800DE0DFF8DC8008F10408D8F800804E
:101DA00028EA0008DFF8CC9009F10409C9F800809E
:101DB000D1F8048008F40038B8F5003F0ED1DFF800
:101DC000B480A8F10408D8F8008048EA0008DFF8D9
:101DD000A490A9F10409C9F800800DE0DFF894800F
:101DE000A8F10408D8F8008028EA0008DFF88490F9
:101DF000A9F10409C9F80080D1F8048008F48038FA
:101E0000B8F5803F0ED1DFF86C80A8F10808D8F84B
:101E1000008048EA0008DFF85C90A9F10809C9F8D9
:101E200000800DE0DFF84C80A8F10808D8F80080A9
:101E300028EA0008DFF83C90A9F10809C9F80080F9
:101E4000521CD1F8008028FA02F8B8F1000F7FF494
:101E500089AEBDE8F88700000000111000100240B4
:101E600000080140000C0140001001400014014036
:101E7000080001400804014010B5C26821EA0203CD
:101E800002EA010443EA0443036110BD0AB101619F
:101E900001E00B04036170470148006870470000CF
:101EA0000000002070B504460CB9012070BD94F804
:101EB0003D0028B9002084F83C00204600F046FB95
:101EC000242084F83D002068006820F0010021688B
:101ED00008602068006840F40040216808602068BD
:101EE000006820F400402168086000F0F7FC054617
:101EF0005C496068884206D85B48854201D201206F
:101F000007E0002005E05948854201D2012000E0A9
:101F10000020012800D1C9E75548B5FBF0F620683C
:101F2000406820F03F003043216848604D496068B8
:101F3000884201D8701C07E04FF4967070434FF44C
:101F40007A71B0FBF1F0401C2168096A21F03F0171
:101F500008432168086243496068884214D8681EB3
:101F600061684900B0FBF1F0401CC0F30B0004288D
:101F700001D204203DE0681E61684900B0FBF1F029
:101F8000401CC0F30B0034E0A06838B9681E6168DB
:101F900001EB4101B0FBF1F0401C0AE0681E6168F2
:101FA00001EBC10202EB0111B0FBF1F0401C40F467
:101FB0008040C0F30B0008B901201AE0A06848B9BE
:101FC000681E616801EB4101B0FBF1F0401CC0F3F9
:101FD0000B000CE0681E616801EBC10202EB01110D
:101FE000B0FBF1F0401CC0F30B0040F4804040F423
:101FF00000402168C9694CF6FF729143084321688B
:10200000C861D4E9070108432168096821F0C001CB
:10201000084321680860D4E90310084321688968EF
:1020200048F2FF329143084321688860D4E90501F2
:1020300008432168C96821F0FF0108432168C8608E
:102040002068006840F001002168086000202064DA
:10205000202084F83D000020206384F83E0000BF6B
:1020600024E70000A086010080841E0000093D00D6
:1020700040420F002DE9FE4F04460F469046994618
:10208000DDE90CAB0E9E00200290FFF705FF054630
:1020900094F83D00202872D119230122CE49204610
:1020A000009501F00EFE10B10220BDE8FE8F00BFCA
:1020B00094F83C00012801D10220F6E7012084F8C1
:1020C0003C0000BF2068006800F0010028B92068CB
:1020D000006840F00100216808602068006820F472
:1020E000006021680860222084F83D00402084F8C8
:1020F0003E0000202064C4F824A0A4F82AB0608D1B
:102100002085B648E0624B46424639462046CDE936
:10211000006501F083FC08B10120C6E7208D88B975
:1021200000BF00200190206840690190206880690C
:10213000019000BF00BF2068006840F40070216873
:1021400008604BE0208D01281AD12068006820F437
:1021500080602168086072B600BF0020019020688E
:102160004069019020688069019000BF00BF20682D
:10217000006840F400702168086062B62EE029E132
:10218000208D022819D12068006840F40060216881
:10219000086072B600BF002001902068406901907D
:1021A00020688069019000BF00BF2068006820F4AB
:1021B00080602168086062B610E02068006840F422
:1021C00080602168086000BF00200190206840699D
:1021D000019020688069019000BF00BFEBE0208D76
:1021E00003287DD8208D012815D12A463146204666
:1021F00001F043FE08B1012057E720680069616AD9
:102200000870606A401C6062208D401E2085608DD1
:10221000401E6085CFE0208D02282CD1334600225D
:102220006F492046009501F04CFD08B101203CE7C4
:1022300072B62068006840F4007021680860206869
:102240000069616A0870606A401C6062208D401EEF
:102250002085608D401E608562B620680069616AD5
:102260000870606A401C6062208D401E2085608D71
:10227000401E60859FE03346002259492046009564
:1022800001F01FFD08B101200FE72068006820F46D
:1022900080602168086072B620680069616A087011
:1022A000606A401C6062208D401E2085608D401E4B
:1022B00060854C4800681921B0FBF1F04FF47A7149
:1022C000B0FBF1F0C0EBC00000EB8000029000BF5B
:1022D0000298401E02900298A8B90020206300E0F6
:1022E00039E0202084F83D00002084F83E00206C76
:1022F00040F02000206462B600BF002084F83C005B
:1023000000BF0120D1E620684069C0F380000028AA
:10231000DED02068006840F4007021680860206802
:102320000069616A0870606A401C6062208D401E0E
:102330002085608D401E608562B620680069616AF4
:102340000870606A401C6062208D401E2085608D90
:10235000401E60852FE02A463146204601F08DFD63
:1023600008B10120A1E620680069616A0870606A0E
:10237000401C6062208D401E2085608D401E60855F
:1023800020684069C0F38000A8B1208D032805D1E2
:102390002068006820F48060216808602068006977
:1023A000616A0870606A401C6062208D401E208552
:1023B000608D401E6085208D00287FF410AF2020A6
:1023C00084F83D00002084F83E0000BF84F83C0003
:1023D00000BF6AE6022068E6020010000000FFFF6E
:1023E000040001000C0000202DE9FC5F04460F46AC
:1023F00090469946DDE90CAB0E9EFFF74DFD054674
:1024000094F83D0020287DD1192301224D49204612
:10241000009501F056FC10B10220BDE8FC9F00BF02
:1024200094F83C00012801D10220F6E7012084F84D
:102430003C0000BF2068006800F0010028B9206857
:10244000006840F00100216808602068006820F4FE
:10245000006021680860212084F83D00402084F855
:102460003E0000202064C4F824A0A4F82AB0608DA7
:1024700020853548E0624B46424639462046CDE944
:10248000006501F07BFB08B10120C6E731E02A4678
:102490003146204601F036FD50B1206C042805D1AC
:1024A0002068006840F40070216808600120B4E7EB
:1024B000606A007821680861606A401C6062208D53
:1024C000401E2085608D401E608520684069C0F3F5
:1024D000800070B1208D60B1606A00782168086169
:1024E000606A401C6062208D401E2085608D401E09
:1024F0006085208D0028CAD12A463146204601F049
:10250000ADFB00E01CE050B1206C042805D1206830
:10251000006840F400702168086001207DE72068B1
:10252000006840F4007021680860202084F83D00B5
:10253000002084F83E0000BF84F83C0000BF6CE738
:1025400002206AE7020010000000FFFF10B586B00D
:1025500004460020029003900490059015492068DD
:10256000884225D100BF1448806940F00800124914
:1025700088610846806900F00800019000BF00BF34
:10258000C0200290122003900320059002A90B485E
:10259000FFF7E2FA00BF0848C06940F4001006499E
:1025A000C8610846C06900F40010019000BF00BF78
:1025B00006B010BD0054004000100240000C014065
:1025C00003480068034909780844014908607047D6
:1025D000000000200800002010B50848006840F006
:1025E000100006490860032000F098F80F2000F062
:1025F00007F800F02BF8002010BD0000002002407A
:1026000070B504460E4800784FF47A71B1FBF0F0D3
:102610000C490968B1FBF0F5284600F0AFFD08B1A0
:10262000012070BD102C07D200222146501E00F060
:1026300037F80548046001E00120F2E70020F0E7E8
:10264000080000200C0000200400002008B500BF96
:102650001148806940F001000F498861084680698F
:1026600000F00100009000BF00BF00BF0846C06935
:1026700040F08050C8610846C06900F0805000906A
:1026800000BF00BF00BF0549486820F0E06040F08F
:102690000070486000BF08BD00100240000001400B
:1026A0002DE9F05F80460D461646002702F0F0FD4A
:1026B000074639462A46334601F00700C0F1070AAB
:1026C000BAF1040F02D94FF0040A01E0C0F1070A81
:1026D000D14600F1040ABAF1070F02D24FF0000A06
:1026E00001E0A0F1030AD4464FF0010A0AFA09FA00
:1026F000AAF1010A0AEA020A0AFA0CFA4FF0010BDF
:102700000BFA0CFBABF1010B0BEA030B4AEA0B04CF
:102710002146404602F0C4FDBDE8F09F00BF00F036
:102720000702064B19684FF6FF031940044B0B4391
:1027300043EA0221014B196000BF70470CED00E035
:102740000000FA0570B504460D460CB9012070BDB5
:102750005A48006800F00700A8420ED257480068A7
:1027600020F007002843554908600846006800F03B
:102770000700A84201D00120E9E7207800F002001C
:1027800002281DD1207800F00400042805D14C480F
:10279000406840F4E0604A494860207800F0080052
:1027A000082805D14648406840F4605044494860D4
:1027B0004348406820F0F000A16808434049486061
:1027C000207800F0010078B36068012806D13C4809
:1027D000006800F4003090B90120B8E76068022872
:1027E00006D13748006800F0007040B90120AEE71C
:1027F0003348006800F0020008B90120A7E730481C
:10280000406820F00300616808432D494860FFF7E5
:1028100043FB064609E0FFF73FFB801B41F288318E
:10282000884202D9032092E707E02548406800F07B
:102830000C006168B0EB810FEDD12048006800F01A
:102840000700A8420ED91D48006820F00700284361
:102850001A4908600846006800F00700A84201D045
:10286000012074E7207800F00400042807D1144800
:10287000406820F4E060E16808431149486020782E
:1028800000F00800082808D10D48406820F4605086
:10289000216940EAC1000A49486000F03FF8084950
:1028A0004968C1F30311074A515CC84006490860F2
:1028B00006480068FFF7A4FE002048E70020024019
:1028C00000100240E26A00080C0000200400002012
:1028D00001480068704700000C00002000B5FFF7B9
:1028E000F7FF04494968C1F30221034A515CC8401B
:1028F00000BD000000100240F26A000800B5FFF7BA
:10290000E7FF04494968C1F3C221034A515CC8404A
:1029100000BD000000100240F26A000870B50021FE
:102920000022002400230020134D696801F00C05EB
:10293000F5B1042D02D0082D19D101E00F4819E09E
:102940000F4DC1F38346AB5D01F4803555B10A4D9F
:102950006D68C5F340450B4E725D084D5D43B5FB98
:10296000F2F402E0084D03FB05F4204602E000BF4C
:10297000024800BF00BF70BD0010024000127A0084
:10298000D06A0008E06A000800093D00F8B5044676
:102990000CB90120F8BD207800F00100002878D0A3
:1029A000F848406800F00C0004280CD0F548406856
:1029B00000F00C00082811D1F248406800F4803083
:1029C000B0F5803F0AD1EF48006800F400300028DD
:1029D0005FD0606800285CD10120DBE700BF606841
:1029E000B0F5803F06D1E748006840F48030E54903
:1029F000086028E0606858B9E248006820F4803038
:102A0000E04908600846006820F4802008601AE069
:102A10006068B0F5A02F0BD1DA48006840F4802040
:102A2000D84908600846006840F4803008600AE031
:102A3000D448006820F48030D24908600846006815
:102A400020F48020086000BF606888B1FFF724FA96
:102A5000054606E0FFF720FA401B642801D9032051
:102A600098E7C848006800F400300028F2D010E071
:102A7000FFF712FA054606E0FFF70EFA401B64283E
:102A800001D9032086E7BF48006800F40030002821
:102A9000F2D1207800F00200022857D1B9484068EE
:102AA00000F00C0050B1B748406800F00C00082856
:102AB00018D1B448406800F4803098B9B148006833
:102AC00000F0020020B12069012801D0012061E757
:102AD000AC48006820F0F800616940EAC100A949EB
:102AE000086033E02069E8B10120A7490860FFF7DA
:102AF000D3F9054606E0FFF7CFF9401B022801D9BC
:102B0000032047E79F48006800F002000028F2D049
:102B10009C48006820F0F800616940EAC1009949CA
:102B2000086013E0002098490860FFF7B5F90546F2
:102B300006E0FFF7B1F9401B022801D9032029E77D
:102B40009048006800F002000028F2D1207800F0E0
:102B5000080008282DD1A069B8B101208B49086070
:102B6000FFF79AF9054606E0FFF796F9401B0228A1
:102B700001D903200EE78348406A00F002000028D4
:102B8000F2D0012002F012F813E000207F49086023
:102B9000FFF782F9054606E0FFF77EF9401B0228A1
:102BA00001D90320F6E67748406A00F002000028C9
:102BB000F2D1207800F00400042873D10027714876
:102BC000C06900F0805070B900BF6E48C06940F025
:102BD00080506C49C8610846C06900F08050009080
:102BE00000BF00BF01276A48006800F48070B0B9D8
:102BF0006748006840F4807065490860FFF74CF949
:102C0000054606E0FFF748F9401B642801D9032078
:102C1000C0E65F48006800F480700028F2D000BF72
:102C2000E068012806D15748006A40F00100554984
:102C3000086227E0E06858B95248006A20F00100B5
:102C4000504908620846006A20F00400086219E052
:102C5000E06805280BD14B48006A40F00400494960
:102C600008620846006A40F0010008620AE0454830
:102C7000006A20F00100434908620846006A20F01B
:102C80000400086200BFE068A0B1FFF705F905463F
:102C900009E0FFF701F9401B41F28831884202D96F
:102CA000032077E622E03748006A00F0020000289F
:102CB000EFD012E0FFF7F0F8054608E0FFF7ECF878
:102CC000401B41F28831884201D9032062E62D4839
:102CD000006A00F002000028F0D1012F05D1294838
:102CE000C06920F080502749C86100BFE069C8B3BF
:102CF0002448406800F00C00082860D0E0690228F1
:102D000048D1002020490866FFF7C6F8054606E0CE
:102D1000FFF7C2F8401B022801D903203AE6194800
:102D2000006800F000700028F2D1206AB0F5803F02
:102D300007D11448406820F40030A16808431149C5
:102D40004860D4E9080108430E49496821F4741128
:102D500008430C49486001200B490866FFF79CF8BE
:102D6000054607E03DE0FFF797F8401B022801D930
:102D700003200FE60348006800F000700028F2D03E
:102D80002FE0000000100240000042428004424256
:102D900000700040002014490866FFF77DF80546E2
:102DA00006E0FFF779F8401B022801D90320F1E57E
:102DB0000E48006800F000700028F2D111E0E069D0
:102DC000012800D1E6E50948466806F48031206A0A
:102DD000814204D106F47011606A814201D0012061
:102DE000D8E50020D6E50000000042420010024075
:102DF00010B504460CB9012010BD606A38B960688E
:102E0000B0F5827F00D105E00021E16102E0002100
:102E1000216161610021A16294F8510028B900206C
:102E200084F85000204600F043F8022084F8510056
:102E30002068006820F0400021680860A08800F445
:102E40008270218901F404410843A18901F40061E1
:102E50000843217C01F002010843217D01F00101BA
:102E60000843218B01F400710843217F01F03801F0
:102E700008432021095D01F080010843218D01F400
:102E800000510843216808600421A06901EA10404C
:102E9000216848602068C06920F400602168C8612A
:102EA00000206065012084F851000020A4E70000A4
:102EB00010B586B00446002002900390049005905F
:102EC0001949206888422DD100BF1848806940F414
:102ED0008050164988610846806900F4805001904E
:102EE00000BF00BF00BF0846806940F00400886151
:102EF0000846806900F00400019000BF00BFA020D8
:102F00000290022003900320059002A90848FEF7D2
:102F100023FE4020029000200390049002A9044860
:102F2000FEF71AFE06B010BD00300140001002404E
:102F3000000801402DE9FE4F04460F4690461D460D
:102F40000C9E01200190FEF7A7FF814694F851B036
:102F500060680290AA46BBF1010F0BD00298B0F551
:102F6000827F04D1A06810B9BBF1040F02D0022007
:102F7000BDE8FE8F1FB1B8F1000F00D00DB90120E0
:102F8000F6E700BF94F85000012801D10220EFE7D6
:102F9000012084F8500000BF94F85100042802D0AA
:102FA000052084F8510000206065C4F83880E5876A
:102FB000A5872763E586A58620646064206800688D
:102FC00000F04000402805D02068006840F0400034
:102FD00021680860E068B0F5006F52D1606810B1F8
:102FE000BAF1010F09D1206B00882168C860206BFD
:102FF000801C2063E08E401EE0863BE020688068F5
:1030000000F00200022810D1E08E70B10198012872
:103010000BD1206B00882168C860206B801C206366
:10302000E08E401EE086002001902068806800F05D
:10303000010068B1E08F58B12068C068A16B0880BA
:10304000A06B801CA063E08F401EE08701200190F0
:10305000FEF722FFA0EB0900B0420BD3701C48B171
:10306000012084F8510000BF002084F8500000BF08
:1030700003207DE7E08E0028C0D1E08F0028BDD17D
:1030800052E0606810B1BAF1010F09D1206B0078ED
:1030900021680873206B401C2063E08E401EE08690
:1030A0003CE02068806800F00200022810D1E08E29
:1030B00070B1019801280BD1206B0078216808734A
:1030C000206B401C2063E08E401EE08600200190B3
:1030D0002068806800F0010068B1E08F58B1206876
:1030E000C068A16B0870A06B401CA063E08F401EFD
:1030F000E08701200190FEF7CFFEA0EB0900B0426F
:1031000001D3701C00B94EB9012084F8510000BFF2
:10311000002084F8500000BF032029E7E08E00283B
:10312000BFD1E08F0028BCD14A463146204601F08D
:1031300051FD40B12020606500BF002084F85000A0
:1031400000BF012014E7A06850B900BF0020009024
:103150002068C068009020688068009000BF00BFB1
:10316000012084F8510000BF002084F8500000BF07
:10317000606D08B10120FBE60020F9E670B5044659
:103180002546681EB0F1807F01D301200FE0681E44
:103190004FF0E02148610F214FF0FF3002F080F83E
:1031A00000204FF0E021886107200861002070BDF9
:1031B00010B50346002200BF93F83C00012801D15E
:1031C000022010BD012083F83C0000BF22F0FF0068
:1031D000CC6840EA040222F440708C6840EA0402A1
:1031E00022F480604C6840EA040222F400600C681B
:1031F00040EA040222F480500C6940EA040222F4FE
:1032000000504C6940EA040222F48040CC6940EA54
:1032100004021868426400BF002083F83C0000BF2D
:1032200000BFCEE730B502460B4600BF92F83C0027
:10323000012801D1022030BD012082F83C0000BFEE
:10324000022082F83D00106844681068816824F00C
:1032500070041868044310684460104D1068A84258
:103260000BD01068B0F1804F07D00D4D1068A84208
:1032700003D00C4D1068A84205D121F08001586898
:10328000014310688160012082F83D0000BF0020EA
:1032900082F83C0000BF00BFCDE70000002C0140D9
:1032A000000400400008004010B504460CB901209D
:1032B00010BD94F83D0028B9002084F83C00204659
:1032C00000F026F8022084F83D00211D206801F05E
:1032D0005FFD012084F8460000BF84F83E00012114
:1032E0003F200155402001554120015500BF00BF3E
:1032F000012084F842004320015544200155452017
:10330000015500BF012084F83D000020D0E70000F7
:1033100008B5244A016891420DD100BF224989694C
:1033200041F40061204A91611146896901F400610C
:10333000009100BF35E00168B1F1804F0DD100BFB1
:103340001949C96941F00101174AD1611146C9699A
:1033500001F00101009100BF23E0144A016891428D
:103360000DD100BF1049C96941F002010E4AD16177
:103370001146C96901F00201009100BF11E00C4A39
:10338000016891420DD100BF0749C96941F00401AC
:10339000054AD1611146C96901F00401009100BFDD
:1033A00000BF08BD002C0140001002400004004096
:1033B000000800402DE9F04104460D46002700BFFB
:1033C00094F83C00012802D10220BDE8F0810120E0
:1033D00084F83C0000BF022084F83D002068866825
:1033E00026F0770626F47F462068866028685028F5
:1033F00033D00CDC202850D004DC00284BD010281F
:1034000051D149E0302849D040284CD139E06028DA
:103410002DD0702807D0B0F5805F03D0B0F5005FE5
:1034200041D10DE041E0D5E902136A68206801F05E
:1034300002FD2068866846F077062068866034E0E2
:10344000D5E902136A68206801F0F5FC20688068FD
:1034500040F480402168886027E0EA686968206855
:1034600001F0BAFD5021206801F0F0FC1DE0EA688F
:103470006968206801F0C3FD6021206801F0E6FC66
:1034800013E0EA686968206801F0A6FD4021206821
:1034900001F0DCFC09E000BF00BF00BF2968206824
:1034A00001F0D4FC01E0012700BF00BF012084F837
:1034B0003D0000BF002084F83C0000BF384684E790
:1034C00010B586B004460020029003900490059049
:1034D0003C492068884217D100BF3B48806940F0D2
:1034E0000400394988610846806900F004000190B1
:1034F00000BF00BF0815029002200390059002A9AA
:103500003248FEF729FB5BE02068B0F1804F16D10E
:1035100000BF2D48806940F004002B4988610846AF
:10352000806900F00400019000BF00BF02200290FB
:103530000390059002A92548FEF70EFB40E02449C0
:103540002068884221D100BF1F48806940F00800F0
:103550001D4988610846806900F00800019000BF9D
:1035600000BF1020029002200390059002A9194884
:10357000FEF7F2FA00BF1849486820F4406040F0B6
:10358000E06040F4006048601AE014492068884216
:1035900016D100BF0C48806940F008000A498861D4
:1035A0000846806900F00800019000BF00BF481580
:1035B000029002200390059002A90648FEF7CCFA7B
:1035C00006B010BD002C0140001002400008014070
:1035D00000040040000C01400000014000080040D1
:1035E0002DE9F04104460D461646002700BF94F829
:1035F0003C00012802D10220BDE8F081012084F8BE
:103600003C0000BF36B1042E1BD0082E31D00C2E4A
:103610005ED145E02946206801F022FC20688069DF
:1036200040F00800216888612068806920F004006B
:103630002168886120688069296908432168886158
:1036400048E02946206801F03BFC2068806940F48E
:103650000060216888612068806920F480602168AA
:10366000886120688069296940EA012021688861B1
:1036700030E02946206801F057FC2068C06940F01E
:1036800008002168C8612068C06920F00400216832
:10369000C8612068C069296908432168C86119E0C8
:1036A0002946206801F074FC2068C06940F400607D
:1036B0002168C8612068C06920F480602168C86101
:1036C0002068C069296940EA01202168C86101E0D9
:1036D000012700BF00BF00BF002084F83C0000BFEE
:1036E000384689E710B504460CB9012010BD94F89E
:1036F0003D0028B9002084F83C00204600F025F861
:10370000022084F83D00211D206801F041FB0120CA
:1037100084F8460000BF84F83E0001213F20015597
:10372000402001554120015500BF00BF012084F811
:10373000420043200155442001554520015500BF5A
:10374000012084F83D000020D0E7704770B50446A2
:103750000D4615B994F83E000BE0042D02D13F2030
:10376000005D06E0082D02D14020005D01E041200F
:10377000005D012801D0012070BD1DB9022084F830
:103780003E000EE0042D03D102213F20015508E048
:10379000082D03D102214020015502E002214120E1
:1037A000015501222946206801F034FB194920689F
:1037B000884201D1012000E0002028B12068406C3F
:1037C00040F40040216848641249206888420BD0C8
:1037D0002068B0F1804F07D00F492068884203D09D
:1037E0000E49206888420CD12068806800F00706E6
:1037F000062E0CD02068006840F0010021680860A7
:1038000005E02068006840F00100216808600020A1
:10381000B2E70000002C0140000400400008004016
:1038200010B504460CB9012010BDA06900B100E03C
:1038300000BF94F8410028B9002084F840002046D9
:1038400000F02AF8242084F841002068C06820F4A1
:1038500000502168C860204601F01CFC2068006907
:1038600020F49040216808612068406920F02A0017
:10387000216848612068C06840F400502168C86031
:1038800000206064202084F8410084F84200002079
:10389000606300BFC8E7000010B586B00446002092
:1038A00002900390049005901949206888422DD118
:1038B00000BF1848C06940F400301649C861084686
:1038C000C06900F40030019000BF00BF00BF08468F
:1038D000806940F0040088610846806900F00400B7
:1038E000019000BF00BF042002900220039003203B
:1038F000059002A90848FEF72FF908200290002041
:103900000390049002A90448FEF726F906B010BD02
:103910000044004000100240000801402DE9F84F2B
:1039200004460E46174699464FF0000A94F84100A7
:10393000202850D106B117B90120BDE8F88F00202A
:103940006064212084F84100FEF7A6FA8246A7842D
:10395000E784A068B0F5805F04D1206910B9002524
:10396000B04602E035464FF000081EE05346002204
:1039700080212046CDF8009001F00AFC20B12020E3
:1039800084F841000320D8E745B9B8F80000C0F337
:1039900008002168486008F1020803E028782168DF
:1039A00048606D1CE08C401EE084E08C0028DDD176
:1039B0005346002240212046CDF8009001F0E8FB5C
:1039C00020B1202084F841000320B6E7202084F8AD
:1039D00041000020B1E70220AFE700BFFEE701464B
:1039E00008684069C0F38020B0B16FF480600A6855
:1039F000506100200863202081F83D00002081F8FC
:103A00003E00086C40F00400086400BF002081F80C
:103A10003C0000BF012070470020FCE72DE9F8437F
:103A200004460F4615469946DDE908862068006879
:103A300040F48060216808602068006840F480706D
:103A400021680860434600224FF00111204600968D
:103A500000F037F960B12068006800F48070B0F5BC
:103A6000807F02D14FF4007020640320BDE8F8830A
:103A700007F0FE0021680861334642463E49204671
:103A800000F07EF908B10120F0E700BF00200090AF
:103A900020684069009020688069009000BF00BFE6
:103AA00032464146204600F02DFA50B1206C0428E1
:103AB00005D12068006840F400702168086001208A
:103AC000D4E7B9F1010F03D1E8B22168086117E02A
:103AD000C5F307202168086132464146204600F0C0
:103AE00011FA50B1206C042805D12068006840F418
:103AF0000070216808600120B8E7E8B22168086119
:103B000032464146204600F0FDF950B1206C0428B1
:103B100005D12068006840F4007021680860012029
:103B2000A4E72068006840F480702168086043467C
:103B300000224FF001112046009600F0C2F858B163
:103B40002068006800F48070B0F5807F02D14FF4E7
:103B500000702064032089E7F8B240F0010021687A
:103B60000861334642460449204600F009F908B18D
:103B700001207BE7002079E7020001002DE9F843EE
:103B80000446884615469946DDE9086720680068BE
:103B900040F4807021680860334600224FF0011124
:103BA0002046009700F08DF860B12068006800F4AE
:103BB0008070B0F5807F02D14FF400702064032044
:103BC000BDE8F88308F0FE00216808613B463246F4
:103BD0002149204600F0D4F808B10120F0E700BFE9
:103BE0000020009020684069009020688069009063
:103BF00000BF00BF3A463146204600F083F950B17D
:103C0000206C042805D12068006840F40070216809
:103C100008600120D4E7B9F1010F03D1E8B22168AF
:103C2000086117E0C5F30720216808613A4631466C
:103C3000204600F067F950B1206C042805D12068B7
:103C4000006840F40070216808600120B8E7E8B21D
:103C5000216808610020B3E70200010070B5044646
:103C60000D46164625E02046FFF7B9FE08B10120B3
:103C700070BD681CE8B1FEF70FF9801BA84200D8A0
:103C8000BDB920684069C0F3800090B9002020636E
:103C9000202084F83D00002084F83E00206C40F095
:103CA0002000206400BF002084F83C0000BF0120F9
:103CB000DEE720684069C0F380000028D3D00020F0
:103CC000D6E72DE9F04104460D4617461E46DDF8BD
:103CD000188038E0701CA8B3FEF7DEF8A0EB0800EF
:103CE000B04200D876BBC5F3074001280AD120684E
:103CF0004069A9B20840A9B2884201D101200BE075
:103D0000002009E020688069A9B20840A9B2884271
:103D100001D1012000E00020B84214D1002020632E
:103D2000202084F83D00002084F83E00206C40F004
:103D30002000206400BF002084F83C0000BF012068
:103D4000BDE8F081FFE7C5F3074001280AD12068EC
:103D50004069A9B20840A9B2884201D101200BE014
:103D6000002009E020688069A9B20840A9B2884211
:103D700001D1012000E00020B842ABD00020DFE7F5
:103D80002DE9F04104460D4616461F4658E02068CE
:103D90004069C0F38020E8B12068006840F40070FA
:103DA000216808606FF4806021684861002020630A
:103DB000202084F83D00002084F83E00206C40F074
:103DC0000400206400BF002084F83C0000BF0120F4
:103DD000BDE8F081701C90B3FEF75EF8C01BB042E6
:103DE00000D866BBC5F3074001280AD120684069A6
:103DF000A9B20840A9B2884201D101200BE00020FD
:103E000009E020688069A9B20840A9B2884201D1BE
:103E1000012000E0002090B900202063202084F8D9
:103E20003D00002084F83E00206C40F0200020641B
:103E300000BF002084F83C0000BF0120C8E7FFE776
:103E4000C5F3074001280AD120684069A9B208409B
:103E5000A9B2884201D101200BE0002009E02068CE
:103E60008069A9B20840A9B2884201D1012000E0CE
:103E7000002000288BD00020AAE770B504460D462C
:103E8000164637E020684069C0F30010A0B16FF01B
:103E900010002168486100202063202084F83D0044
:103EA000002084F83E00206C206400BF002084F8CD
:103EB0003C0000BF012070BDFDF7EEFF801BA84253
:103EC00000D8BDB920684069C0F3801090B90020C7
:103ED0002063202084F83D00002084F83E00206C00
:103EE00040F02000206400BF002084F83C0000BFA8
:103EF0000120E0E720684069C0F380100028C1D0AD
:103F00000020D8E770B504460D46164625E0204649
:103F1000FFF765FD08B1012070BD681CE8B1FDF731
:103F2000BBFF801BA84200D8BDB920684069C0F320
:103F3000C01090B900202063202084F83D000020AC
:103F400084F83E00206C40F02000206400BF002078
:103F500084F83C0000BF0120DEE720684069C0F320
:103F6000C0100028D3D00020D6E7000010B50022F2
:103F700004210E48FDF78AFF642002F04DFA012269
:103F800004210A48FDF782FFC82002F045FA00220A
:103F900004210648FDF77AFF642002F03DFA012271
:103FA00004210248FDF772FF10BD0000000C014023
:103FB00010B5002204210648FDF768FF642002F0D6
:103FC0002BFA012204210248FDF760FF10BD00001A
:103FD000000C01401CB5044600200190009001A98E
:103FE0003B2000F0C5F869463C2000F0C1F89DF880
:103FF00000009DF8041040EA012016490988401A83
:1040000000B2208001A93D2000F0B2F869463E20B0
:1040100000F0AEF89DF800009DF8041040EA012081
:104020000D490988401A00B2608001A93F2000F0C4
:104030009FF86946402000F09BF89DF800009DF82D
:10404000041040EA012005490988401A00B2A08006
:104050001CBD0000F4010020F8010020FC0100203C
:1040600010B50446204600F005F8A01DFFF7B2FF8A
:1040700010BD00001CB5044600200190009001A96D
:10408000432000F075F86946442000F071F89DF86F
:1040900000009DF8041040EA012016490988401AE2
:1040A00000B2208001A9452000F062F86946462050
:1040B00000F05EF89DF800009DF8041040EA012031
:1040C0000D490988401A00B2608001A9472000F01C
:1040D0004FF86946482000F04BF89DF800009DF825
:1040E000041040EA012005490988401A00B2A08066
:1040F0001CBD000000020020040200200802002075
:1041000008B580216B2000F045F80020009003E006
:1041100069466B2000F02CF89DF800004028F7D18C
:1041200000216B2000F036F818211B2000F032F837
:1041300000211C2000F02EF80021382000F02AF881
:1041400000216A2000F026F80121192000F022F851
:1041500001211A2000F01EF801216B2000F01AF84E
:1041600000216C2000F016F800F028F808BD0000CF
:104170003EB504460D464FF47A7001210B462246A7
:10418000CDE900510290D1210148FDF773FF3EBDFA
:104190001402002013B584B004464FF47A70012154
:1041A00005AA0B46CDE9002102902246D021024803
:1041B000FEF71AF906B010BD140200202DE9F04FE9
:1041C00087B000200590069003900490824603A8D3
:1041D000FFF700FF3AE005A8FFF7FCFEBDF9143039
:1041E000BDF90CC0A3EB0C02002A01DB134600E072
:1041F0005342B3F5C87F20DABDF91630BDF90EC0C1
:10420000A3EB0C01002901DB0B4600E04B42B3F5A8
:10421000C87F12DABDF91830BDF910C0A3EB0C004D
:10422000002801DB034600E04342B3F5C87F04DA0F
:104230000AF1010000F0FF0A01E04FF0000ADDE999
:104240000501CDE90301062002F0E6F8BAF1640F9A
:10425000C1DB002000900190029000240025002680
:1042600000278046814683461DE06846FFF7F8FE3A
:10427000BDF906000444BDF908000544BDF90A0073
:10428000A0F580400644BDF900000744BDF90200D6
:104290008044BDF904008144062002F0BDF80BF112
:1042A000010000F0FF0BBBF1640FDEDB642094FB28
:1042B000F0F00F490860642095FBF0F00D490860AC
:1042C000642096FBF0F00C490860642097FBF0F046
:1042D0000A490860642098FBF0F0094908606420EE
:1042E00099FBF0F00749086007B0BDE8F08F0000C7
:1042F000F4010020F8010020FC0100200002002051
:10430000040200200802002010B505220E491020EA
:1043100000F0B0F805220D49302000F0FFF805222A
:104320000949102000F0A6F8002109E00648405C89
:10433000064A525C904201D0012010BD481CC1B217
:104340000529F3DB0020F8E7ED010020E80100205B
:1043500070B5C820FDF7ECFB02E00A20FDF7E8FB92
:10436000FFF7D2FF0128F8D000F052F85C211AA024
:10437000FBF74FFF28B15C2117A0FBF74AFF401C59
:1043800000E015A005462F21FBF743FF88B15C2113
:1043900011A0FBF73EFF28B15C210FA0FBF739FF0E
:1043A000401C00E00CA005462F21FBF732FF401C0B
:1043B0000BE05C2108A0FBF72CFF28B15C2106A0D4
:1043C000FBF727FF401C00E003A00446ED22214636
:1043D00007A000F025FF70BD696E746572666163A9
:1043E000655C496E745F5349323452312E6300006C
:1043F0005B25733A25645D202053493234523120C5
:10440000496E69742053756363657373210D0A00E7
:1044100010B500224FF480711448FDF737FD0522D6
:1044200013492A2000F07AF80121212000F098F8A1
:104430000121222000F094F82821252000F090F896
:104440001121312000F08CF80621262000F088F898
:104450000F21202000F084F8FF21272000F080F8B1
:10446000012211020148FDF711FD10BD00080140B5
:10447000E80100202DE9F04107460D4616460022CE
:1044800010210C48FDF702FD384600F0C5FB8046C0
:10449000002405E0002000F0BFFB2855601CC4B2DA
:1044A000B442F7DB012210210248FDF7EFFC404641
:1044B000BDE8F0810008014070B5044600221021DB
:1044C0000848FDF7E3FC204600F0A6FB002000F0C2
:1044D000A3FB0546012210210248FDF7D7FC284620
:1044E00070BD00000008014070B504460720FFF7CA
:1044F000E3FF05462946272000F032F805F040008A
:1045000050B1112221466120FFF7B4FFFF21E220C4
:1045100000F026F8002070BD0120FCE72DE9F041F5
:1045200007460C461546002210210C48FDF7AEFC4C
:10453000384600F071FB8046002605E014F8010BB8
:1045400000F06AFB701CC6B2AE42F7DB01221021FC
:104550000248FDF79BFC4046BDE8F08100080140A1
:1045600070B505460C46002210210848FDF78EFC68
:10457000284600F051FB0646204600F04DFB012284
:1045800010210248FDF782FC304670BD0008014052
:1045900010B50446A1882068FDF76EFC10BD10B56B
:1045A0000446A18801222068FDF770FC10BD10B5FB
:1045B0000446A18800222068FDF768FC10BD0000B9
:1045C00070B50446B4F90600B0F57A7F35DD5C219C
:1045D0002AA0FBF71EFE28B15C2128A0FBF719FEDC
:1045E000401C00E025A006462F21FBF712FE88B1F3
:1045F0005C2122A0FBF70DFE28B15C211FA0FBF778
:1046000008FE401C00E01DA006462F21FBF701FE1E
:10461000401C0BE05C2119A0FBF7FBFD28B15C21DD
:1046200016A0FBF7F6FD401C00E014A005460C2286
:10463000294618A000F0F4FD70BDA08828B9B4F98F
:10464000060021680968486316E0A088042805D19F
:10465000B4F906002168096888630DE0A08808287D
:1046600005D1B4F9060021680968C86304E0B4F90B
:10467000060021680968086400BFDDE7696E74659B
:1046800072666163655C496E745F6D6F746F722EE4
:10469000630000005B25733A25645D20206D6F7414
:1046A0006F7220737065656420697320746F6F206A
:1046B0006269670D0A00000010B50446A08820B9A1
:1046C000002021680968486313E0A088042804D109
:1046D00000202168096888630BE0A088082804D1BD
:1046E000002021680968C86303E000202168096888
:1046F0000864A1882068FFF729F810BD00B585B0CF
:104700000020019002900390049000BF304880691F
:1047100040F010002E4988610846806900F01000C2
:10472000009000BF00BF00BF0846806940F0200035
:1047300088610846806900F02000009000BF00BF3B
:1047400000BF0846806940F004008861084680691F
:1047500000F00400009000BF00BF00BF0846806961
:1047600040F0080088610846806900F00800009069
:1047700000BF00BF012241F610011648FDF786FB7D
:1047800001224CF204011448FDF780FB00224FF493
:1047900080711048FDF77AFB41F61010019001205E
:1047A0000290002003900220049001A90948FDF71F
:1047B000D3F94CF2040001900120029000200390F4
:1047C0000220049001A90448FDF7C6F905B000BD18
:1047D0000010024000080140000C014010B50B48D9
:1047E0000B4908600B484860002109488160C1609E
:1047F0004FF480410161002141618161C161016229
:10480000FDF750FB08B1FDF790F910BD00540040D2
:1048100014020020801A060010B50E480E490860E8
:104820004FF48270486000210B488160C1600161D3
:1048300041614FF4007181611021C1610021016269
:10484000416281620A21C162FEF7D2FA08B1FDF726
:104850006CF910BD003001406802002000B595B031
:10486000002011901290139014900F9010901C2122
:1048700008A8FBF7BCFC20216846FBF7B8FC2B48D6
:104880002B4908600320486000212948816040F2DC
:10489000E731C1600021016141618161FEF704FDE2
:1048A00008B1FDF742F94FF48050119011A920484A
:1048B000FEF780FD08B1FDF738F91D48FEF712FF3D
:1048C00008B1FDF732F900200F9010900FA9184899
:1048D000FEF7A8FC08B1FDF728F960200890002039
:1048E00009900A900B900C900D900E90082208A948
:1048F0000F48FEF775FE08B1FDF717F9002000908C
:1049000001900290039004904FF400500590002015
:10491000079069460648FEF74BFC08B1FDF705F91C
:104920000348FEF7CDFD15B000BD0000002C01408E
:10493000C002002000B58DB0002009900A900B90B5
:104940000C90079008901C216846FBF750FC4FF034
:1049500080401F4908600320486000211C48816096
:1049600040F2E731C160002101618161FEF79CFCEA
:1049700008B1FDF7DAF84FF48050099009A91448FE
:10498000FEF718FD08B1FDF7D0F81148FEF7AAFEB2
:1049900008B1FDF7CAF800200790089007A90C4855
:1049A000FEF740FC08B1FDF7C0F860200090002041
:1049B000019002900490042269460548FEF710FE1B
:1049C00008B1FDF7B2F80248FEF77AFD0DB000BD60
:1049D0000803002000B58DB0002009900A900B90CC
:1049E0000C90079008901C216846FBF700FC2048BB
:1049F000204908600320486000211E48816040F281
:104A0000E731C160002101618161FEF74DFC08B111
:104A1000FDF78BF84FF48050099009A91548FEF76F
:104A2000C9FC08B1FDF781F81248FEF75BFE08B13A
:104A3000FDF77BF800200790089007A90D48FEF7C6
:104A4000F1FB08B1FDF771F86020009000200190A3
:104A500002900490002269460648FEF7C1FD08B1A5
:104A6000FDF763F80348FEF72BFD0DB000BD000015
:104A7000000400405003002000B58DB000200990D4
:104A80000A900B900C90079008901C216846FBF749
:104A9000AEFB2048204908600320486000211E48E2
:104AA000816040F2E731C160002101618161FEF760
:104AB000FBFB08B1FDF739F84FF48050099009A9C4
:104AC0001548FEF777FC08B1FDF72FF81248FEF7FE
:104AD00009FE08B1FDF729F800200790089007A902
:104AE0000D48FEF79FFB08B1FDF71FF8602000900E
:104AF00000200190029004900C2269460648FEF7BF
:104B00006FFD08B1FDF711F80348FEF7D9FC0DB0B1
:104B100000BD0000000800409803002010B50B48BD
:104B20000B4908604FF4E13048600021084881607B
:104B3000C16001610C21416100218161C161FEF709
:104B40006FFE08B1FCF7F1FF10BD0000004400400B
:104B5000E003002000BFFEE700BFFEE72DE9F05FA5
:104B600004464FF07F594FF07C512046FBF7B4FBD1
:104B7000824625462E460C48A0EB66063546294659
:104B80005046FBF7A9FB83462946FBF7A5FB804669
:104B90004946FBF79EFB07462946FBF79DFB05466A
:104BA0002846BDE8F09F0000DF59375F08B5084987
:104BB0000968C9084FF47A72B1FBF2F141430091E0
:104BC00000BF00BF00994A1E00920029F9D108BD1C
:104BD0000C000020F8B504460E4615463346012267
:104BE00002212046009500F029F828B1606D40F0C0
:104BF000200060650320F8BD334600228021204656
:104C0000009500F01BF828B1606D40F02000606551
:104C10000320F0E70020EEE701B582B0002001900C
:104C20004FF47A70012301AA02A900900248FEF70E
:104C300081F99DF804000EBD680200202DE9F84FAF
:104C400004460D4690461E46DDF82890FDF724F9EF
:104C5000A0EB0900371AFDF71FF982462C480068BF
:104C6000C0F3CB307843009045E0701C002842D060
:104C7000FDF712F9A0EB0A00B84200D2A7BB2068EA
:104C8000406820F0E000216848606068B0F5827FED
:104C90000DD1A068B0F5004F03D0A068B0F5806FCB
:104CA00005D12068006820F0400021680860A06AF3
:104CB000B0F5005F0DD100BF2068006820F40050FF
:104CC000216808602068006840F40050216808608E
:104CD00000BF012084F8510000BF002084F850007C
:104CE00000BF0320BDE8F88FFFE7009800B9002758
:104CF0000098401E0090206880682840A84201D19A
:104D0000012000E000204045AFD10020EAE700008C
:104D10000C00002010B501F04FFD012801D001F07A
:104D20001DFCFDF74DFC10BD00B58FB0282105A876
:104D3000FBF75DFA14216846FBF759FA012005904C
:104D400000040690002007900120099002200C909A
:104D5000C1030D914FF4E0110E9105A8FDF716FE69
:104D600008B1FCF7E2FE0F20009002200190002025
:104D700002904FF480600390002004900221684666
:104D8000FDF7E0FC08B1FCF7D0FE0FB000BD7047A6
:104D900010B502681C4B984208D0B0F1804F05D086
:104DA0001A4B984202D01A4B984203D122F070025B
:104DB0004B681A43144B984208D0B0F1804F05D08D
:104DC000124B984202D0124B984203D122F4407207
:104DD000CB681A4322F080034C6943EA0402026064
:104DE0008B68C3620B688362074B984201D10B69E1
:104DF000036301234361036903F001031BB10369EA
:104E000023F00103036110BD002C014000040040A9
:104E10000008004030B501F01F05012404FA05F335
:104E2000046A9C430462046A01F01F0502FA05F556
:104E30002C43046230BD30B50C46816821F47F41BB
:104E400042EA032525432943816030BD0A46816833
:104E500021F0700142F007031943816070470000A0
:104E600030B5026A056A25F0010505624368846968
:104E700024F0700424F003040D682C4322F0020295
:104E80008D682A430D4DA84206D100BF22F00802CA
:104E9000CD682A4322F00402084DA84207D123F42A
:104EA000807323F400734D692B438D692B4343605A
:104EB00084614D684563026230BD0000002C0140F2
:104EC00030B5026A056A25F01005056243688469F9
:104ED00024F4E04424F440740D6844EA052422F0EC
:104EE00020028D6842EA05120E4DA84207D100BF8C
:104EF00022F08002CD6842EA051222F04002094DFC
:104F0000A84209D123F4806323F400634D6943EA86
:104F100085038D6943EA8503436084614D68856339
:104F2000026230BD002C014030B5026A056A25F4EA
:104F3000807505624368C46924F0700424F003049A
:104F40000D682C4322F400728D6842EA05220F4D51
:104F5000A84207D100BF22F40062CD6842EA0522D0
:104F600022F48062094DA84209D123F4805323F42E
:104F700000534D6943EA05138D6943EA0513436005
:104F8000C4614D68C563026230BD0000002C014061
:104F900030B5036A056A25F4805505624468C26924
:104FA00022F4E04222F440720D6842EA052223F422
:104FB00000538D6843EA0533064DA84204D124F41A
:104FC00080444D6944EA85144460C2614D680564BB
:104FD000036230BD002C014030B50B461446026A16
:104FE000056A25F001050562816921F0F00141EAB9
:104FF000041122F00A021A438161026230BD30B509
:105000000B461446026A056A25F01005056281699F
:1050100021F4704141EA043122F0A00242EA031275
:105020008161026230BD00BF00BF02680C3252E8ED
:10503000002F22F4907102680C3242E80013002B1A
:10504000F3D100BF00BF00BF0268143252E8002F46
:1050500022F001010268143242E80013002BF3D160
:1050600000BF016B01290ED100BF00BF02680C32E6
:1050700052E8002F22F0100102680C3242E80013BF
:10508000002BF3D100BF202180F8421000210163E2
:105090007047000070B504462168096921F4405149
:1050A000E2681143226811612269A16811436269B3
:1050B00041EA02052168C96841F20C629143294323
:1050C0002268D1602168496921F44071A2691143C5
:1050D000226851612D4A2168914202D1FDF70EFCF0
:1050E00001E0FDF7FBFB00EBC00101EB0011626882
:1050F0009200B1FBF2F100EBC00202EB0012636818
:105100009B00B2FBF3F26423B2FBF3F202EBC203A7
:1051100003EB0212A1EB8201322202EB01116422A5
:10512000B1FBF2F101F0F00100EBC00202EB001262
:1051300063689B00B2FBF3F26423B2FBF3F201EB72
:10514000021200EBC00101EB001163689B00B1FB90
:10515000F3F100EBC00303EB00136668B600B3FB8A
:10516000F6F36426B3FBF6F303EBC30606EB031377
:10517000A1EB8301322303EB01116423B1FBF3F1B3
:1051800001F00F0111442268916070BD00380140A8
:105190002DE9F84304460D4617469846089E31E02F
:1051A000701C70B3FCF778FEA0EB0800B04200D88A
:1051B00016B90320BDE8F8832068C06800F0040039
:1051C000F8B1802D1ED0402D1CD020680068C0F39F
:1051D000C000B0B100BF00200090206800680090BF
:1051E00020684068009000BF00BF2046FFF71BFF0B
:1051F0000820606400BF002084F8400000BF012048
:10520000D8E7FFE7206800682840A84201D10120C4
:1052100000E00020B842C3D00020CBE700BFFEE78B
:105220000FB4054B10B503A9044A029800F0CEF85C
:1052300010BC5DF814FB00000D5B00080C020020A0
:10524000490050EAC12018BF04204A0D18BF40F0A1
:10525000010040F2FF72B2EB515F08BF40F0020064
:10526000012808BF052070474100080218BF04202C
:105270000A0E18BF40F001004FF07F4232EA0101F0
:1052800008BF40F00200012808BF05207047000059
:1052900002480068C0F30220704700000CED00E0F7
:1052A00010B5002804DB0A07130E054A135406E064
:1052B0000A07140E034A00F00F031B1FD45410BD3D
:1052C00000E400E018ED00E02DE9F0414F1E00EB96
:1052D000C7010446D1E9000115461E4637F0060213
:1052E0000DD02A463346FBF70EF97F1E04EBC703A9
:1052F000D3E90023FBF760F837F00602F1D1022F63
:1053000025D0042F13D0062F18BFBDE8F0812A4600
:105310003346FBF7F8F8D4E90A23FBF74DF82A46A1
:105320003346FBF7F0F8D4E90823FBF745F82A46A3
:105330003346FBF7E8F8D4E90623FBF73DF82A46A5
:105340003346FBF7E0F8D4E90423FBF735F82A46A7
:105350003346FBF7D8F8D4E90223FBF72DF82A46A9
:105360003346FBF7D0F8D4E90023BDE8F041FBF762
:1053700023B80122FBF721BB002213461046114639
:10538000FBF733B9024A00201107FBF716BB0000F8
:1053900001FDFFFFFAF748BF6FF05E010807FBF75A
:1053A00035BB02E008C8121F08C1002AFAD17047B5
:1053B0007047002001E001C1121F002AFBD1704795
:1053C0000149086070470000100200202DE9FF4FDE
:1053D0008BB09A460F460546002606E025280BD0DE
:1053E00052460D9990476D1C761C28780028F5D1FF
:1053F0000FB03046BDE8F08F0024A046012260497E
:1054000000E0044315F8013F203B02FA03F0084294
:10541000F7D128782E2817D115F8010F44F004048D
:105420002A280ED06FF02F022878A0F13001092928
:105430000AD808EB880102EB410100EB01086D1C62
:10544000F2E757F8048B6D1C287869283ED006DCFB
:105450000028CDD063280BD0642804D136E073280F
:1054600010D075284BD052460D999047761C85E098
:1054700017F8040B8DF8000000208DF80100E946B4
:10548000012003E057F8049B4FF0FF3061074FF015
:10549000000401D40AE0641C44450DDA8442FADBBE
:1054A00019F804100029F6D106E0641C8442FCDBE4
:1054B00019F804100029F8D1264404E019F8010B6A
:1054C00052460D999047641EF8D257E001CF4FF035
:1054D0000A0B002802DA40422D2102E0210504D502
:1054E0002B218DF82410012103E0E10705D02021B4
:1054F000F7E70DF1200908910CE00021F9E701CF51
:105500004FF00A0BF9E75946FBF78CF901F130022D
:1055100009F8012D0028F6D1ADEB090000F1200BB0
:10552000600701D44FF00108D84502DDA8EB0B005D
:1055300000E000208046002406E009A85246005DF5
:105540000D999047641C761C08988442F5DB04E0B2
:10555000302052460D999047761CB8F10001A8F111
:105560000108F5DC05E019F8010B52460D9990474A
:10557000761CBBF10001ABF1010BF4DC6D1C34E7D0
:10558000092801002DE9F04D8D4F21F0004A86B029
:1055900005460C46BA452ADBAAEB070028430AD089
:1055A0008848824501DC1AD1CDB106B02846BDE855
:1055B000F04DFFF7DEBE844A844B2846FAF7A3FF7E
:1055C00007460E46824A834B28462146FAF79BFF40
:1055D00006B03A463346BDE8F04DFAF7EDBE01207D
:1055E000FFF7EEFE06B0BDE8F04DFFF7C5BE7A4806
:1055F000824542DABAF1795F0BDA2846FFF720FEDE
:10560000042808BFFFF7BEFE284606B02146BDE8C5
:10561000F08D2A460B461046FAF775FF8346024680
:105620006E480E460B4606217844FFF74DFE5A465B
:105630003346FAF768FF804669488A465A46334639
:1056400004217844FFF740FE5A463346FAF75BFFE1
:1056500000223B46FAF7B0FE02460B464046514652
:10566000FAF7C3FF2A462346FAF74DFF06B02A464B
:105670002346BDE8F04DFAF79FBE284624F00041CE
:1056800000223D463B46FAF73BFF4FF0FF32FBF767
:1056900094F90646024653480F460B4606217844C5
:1056A000FFF712FE32463B46FAF72DFFCDE9000127
:1056B0004D4832463B4604217844FFF705FE32460A
:1056C0003B46FAF720FF00222B46FAF775FE834689
:1056D00002913046394600F0A3FD804643480D460E
:1056E000504517DCDDE900015A46029BFAF77DFFC1
:1056F00042462B46FAF707FF42462B46FAF75CFE76
:105700000122FBF75AF9304A304BFAF7F6FE304ADD
:10571000304B4CE04FF0000A52460B464046FAF739
:105720004BFECDE9031052462B4610461946FAF7B8
:10573000EAFE32463B46FAF7E3FEDDE90332FAF7CA
:1057400054FF06460F46DDE900015A46029BFAF770
:105750004CFF83460091012230463946FBF72DF974
:10576000194A1A4BFAF7CCFE06460F46012240466C
:105770002946FBF722F95A46009BFAF7C4FE324647
:105780003B46FAF7BAFE06460F4601225046294626
:10579000FBF713F90E4DDFF858802A464346FAF717
:1057A000AFFE32463B46FAF7ABFE2A464346FAF7CF
:1057B000A7FE002CD8BF81F0004106B0BDE8F08DF7
:1057C0000000F03F0000F07F075C143326A6913CF8
:1057D000182D4454FB21F93F0000E03FD414000091
:1057E000EA1400005E140000741400003333EF3F2D
:1057F000FB21E93F2DE9F0474FF0684202EB4003FF
:105800000C460546B3F1654F3CBF02EB4102B2F1D5
:10581000654F80F0CD8000BFC0F3C752C1F3C753BE
:10582000D21A1B2A06DD10F0004F14BF87488848A3
:10583000BDE8F08712F11A0F2FDA11F0004F06D0F1
:1058400010F0004F0CBF83488348BDE8F087214625
:105850002846FAF773FD0646FFF706FD042808BF41
:10586000FFF79AFD2846FFF7FFFC05462046FFF7A5
:10587000FBFC04463046FFF7F7FC042D18BF052D4E
:1058800008D1042C18BF052C04D1002804BF022025
:10589000FFF796FD3046BDE8F0874200B2EB410FBE
:1058A00025D910F0004F19BF6C4F6D4E6D4F6E4EE5
:1058B000224685F0004415460A4680F00041104615
:1058C0000A1A5200B2F1807F3ED248406749DFF8A1
:1058D000A0A110F0004F18D04FF03F483846FAF71B
:1058E000F5FC074651463046FAF7F0FC17E011F098
:1058F000004F04BF00263746E2D010F0004F19BF1A
:105900005C4F5D4E5D4F5E4EDAE74FF07C58384697
:10591000FAF78AFC074651463046FAF785FC0646F8
:1059200041462846FAF7D8FC2146FAF77DFC824624
:1059300021464046FAF7D0FC2946FAF7CAFC514600
:10594000FAF7FCFC044604E021462846FAF7F6FC88
:1059500004460146FAF7C0FC80464A49FAF7BCFC07
:105960004949FAF761FC4146FAF7B6FC4749FAF7AC
:105970005BFC4146FAF7B0FC4549FAF755FC414655
:10598000FAF7AAFC4349FAF74FFC05464146204680
:10599000FAF7A2FC2946FAF79FFC3146FAF744FCD5
:1059A0002146FAF741FC3946BDE8F047FAF73CBC1E
:1059B0004FF07F42B2EB400F28BFB2EB410F03D252
:1059C000BDE8F047FFF7E6BC40EA01035B0008BF13
:1059D00044F0FF410AD0B2EB400F08BFB2EB410FD9
:1059E00006D125F0804024F0804105460C4613E79F
:1059F000B2EB400F12BF5FEA410345F0FF4004F0F5
:105A000000413FF409AFB2EB410F12BF5FEA400221
:105A100005F0004044F0FF413FF4FEAE4A0092EA38
:105A200040033FF5F9AE002AACBF4FF09F464FF060
:105A30003E563146FAF750FC054631462046FAF705
:105A40004BFC044628462146E6E60000DB0FC9BFB2
:105A5000DB0FC93FDB0F4940DB0F49C00000C9BF66
:105A600022AAFDB90000C93F22AAFD390060ED3E1F
:105A7000C30ACE37000049C022AA7DBA00004940BF
:105A800022AA7D3A2DAD65BD8FB8D53D0FB511BEAB
:105A900061C84C3EA8AAAABE1CB500F09DFE0190AC
:105AA0001BE0FBF71DFB04462046FBF74DFA0B48B5
:105AB000007A012808D10020022302460146009006
:105AC0000748006800F0D2FDFBF75CFA00BF062132
:105AD00001A800F091FD00BF00BFE2E70201002035
