:020000040800F2
:10000000303A002099010008915A0008B7450008CD
:100010008D5A0008B917000875610008000000003B
:1000200000000000000000000000000001010008C6
:100030002D21000800000000450100084D5C00086B
:10004000B3010008B3010008B3010008B3010008C0
:10005000B3010008B3010008B3010008B3010008B0
:10006000B3010008B3010008B3010008B3010008A0
:10007000B3010008B3010008B3010008B301000890
:10008000B3010008B3010008B3010008B301000880
:10009000B3010008B3010008B3010008B301000870
:1000A000B3010008B3010008B3010008B301000860
:1000B000B3010008B3010008B3010008B301000850
:1000C000B3010008B3010008B3010008B301000840
:1000D000B3010008B3010008B3010008B301000830
:1000E000B3010008B3010008B3010008DFF80CD029
:1000F00000F00AFD00480047C1780008303A0020AF
:10010000224B19680868B0E8F00F80F30988BFF344
:100110006F8F4FF0000080F311884EF00D0E704786
:100120000000000006480068006880F3088862B696
:1001300061B6BFF34F8FBFF36F8F00DF00BF00BF0B
:1001400008ED00E0EFF30980BFF36F8F0F4B1A68E3
:1001500020E9F00F106008B54FF0BF0080F3118860
:10016000BFF34F8FBFF36F8F08F014F84FF000000C
:1001700080F31188BDE8084019680868B0E8F00FFE
:1001800080F30988BFF36F8F704700BF80000020A5
:10019000EFF3058070470000064880470648004797
:1001A000FEE7FEE7FEE7FEE7FEE7FEE7FEE7FEE727
:1001B000FEE7FEE7E55C0008ED000008202A04DB0E
:1001C000203A21FA02F00021704721FA02F3D040D0
:1001D000C2F120029140084319467047D2B201E0B3
:1001E00000F8012B491EFBD270470022F6E710B53C
:1001F00013460A4604461946FFF7F0FF204610BD95
:10020000421C10F8011B0029FBD1801A70470246DE
:10021000C9B200E0401C0378002BFBD102E0037858
:100220008B4203D0401E9042F9D200207047F0B4B8
:1002300080EA0102D40F4200B2EB410F02D2024623
:10024000084611464A0042D0C30DDDB2C1F3C75281
:10025000AD1A202D35DAC1F3160141F4000204B1C4
:100260005242C5F1200602FA06F12A411044B3EBCE
:10027000D05F23D0C4B1012DA0EBC35009DCF0BC8A
:100280004FF0004202EAC352DBB200F5000000F07A
:1002900068BB400000F1807000EBC350A0F180709B
:1002A00040EAD170490009E0490841EAC071A0EB79
:1002B000C35000F50000400800EBC350F0BC00F054
:1002C00047BB6142012202EB4101001BF6E7F0BC93
:1002D000704781F00041AAE780F00040A7E780EA7C
:1002E000010210B502F00043400022D04A001FD0A6
:1002F000010E01EB1261C0F35600C2F3560240F446
:10030000000042F40002A0FB022000047F39140424
:1003100000D0401C50EA124001D44000491EC2B235
:100320000C0604EBD010401C4008802A02D003E0E9
:10033000002010BD20F00100002900DA0020184341
:1003400010BD30B480EA010202F0004530F00042F6
:1003500021F0004013D090B1C30DD40DC2F31601AB
:10036000C0F31600E41A41F4000140F400027D34A9
:10037000914201D3641C00E04900002C02DA30BC39
:10038000002070474FF400000023914201D3891AE6
:10039000034340084FEA4101F7D151B1914202D1E4
:1003A0004FF0004105E002D24FF0010101E06FF093
:1003B000010103EBC450284430BC00F0C9BA2DE958
:1003C000FE4F804681EA0300C00F0C46009021F0EA
:1003D000004123F00045B8EB0200A94105D2404698
:1003E000214690461C460B46024623F0004010432F
:1003F00047D0270DC7F30A00C3F30A510290401AF1
:10040000019040286BDAC3F3130040F4801B00987E
:10041000924620B10023D2EB030A63EB0B0B019849
:100420005946C0F14002504600F071FA06460D46AA
:1004300050465946019A00F079FA10EB08006141E4
:10044000002487EA115284EAE7731A4340D0009AE5
:1004500062B3019A012A4FEA075215DC001B61EBD7
:1004600002014FF0004202EA0752CDE90042001CAF
:1004700041F5801132462B4600F0B0FA03B0BDE8DA
:10048000F08F40462146F9E7001B61EB0201001C9A
:1004900041F5801300185B412018A2F5001747EBC7
:1004A000030140EAD570B6196D4111E06D084FEABD
:1004B000360645EAC0754FEA0752001B61EB0201A0
:1004C000001C41F5801149084FEA300000195141E4
:1004D00032462B4603B0BDE8F04F00F070BA0098EA
:1004E000012240000023D0EB020263EBE07300988E
:1004F00021464FEAE074B8EB000061EB0401E9E744
:1005000083F000435BE781F0004158E72DE9FE4F9F
:1005100081EA030404F0004421F0004100944FF00C
:10052000000B23F0004350EA01045ED052EA0304BA
:100530005BD0C3F30A54C1F30A552C44A4F2F3343C
:100540000194A0FB0254C1F3130141F48011C3F3E1
:10055000130343F4801301FB024400FB034E840A9F
:10056000970A44EA815447EA8357A4FB0768029537
:100570008D0A05FB07854FEA932C04FB0C542705D5
:10058000029D4FEA065847EA1637B5EB08056EEBB1
:10059000070C870E920E47EA811742EA8312A7FBE7
:1005A0000201B6EB0B0164EB00042B0D43EA0C33A4
:1005B0005E1844EB1C50DA465146E7FB0201C5F3D6
:1005C00013044FEA0B3343EA14534FEA0432019CFD
:1005D00043EA0603A4F10C040294009CCDE900B4A4
:1005E00000F0FCF903B0BDE8F08F00200146F9E708
:1005F0002DE9F04D81EA030404F0004B21F00045A1
:1006000014464FF0000A23F0004150EA050220D0C2
:1006100054EA01021DD0C5F30A570246C5F313037D
:10062000C1F31300C1F30A5640F4801543F480135C
:10063000A7EB0608101BD64608F2FD3873EB050041
:1006400002D308F1010801E092185B41B8F1000FF4
:1006500003DA00200146BDE8F08D00204FF4801140
:10066000064684460EE0171B73EB050705D3121BE5
:1006700063EB050306434CEA010C49084FEA3000DE
:1006800092185B4150EA0107EDD152EA030012D003
:1006900082EA040083EA0501084305D0101BAB4140
:1006A00006D20122002306E000224FF0004302E0C0
:1006B0006FF0010253101AEB06004CEB085110EBDF
:1006C0000A0041EB0B01BDE8F04D00F078B9C10F15
:1006D00080EAE0700844CA079623002100F041B97F
:1006E00096230022114600F03CB90EB5C10F80EAF6
:1006F000E0700844CA07002140F233438DE80E0041
:100700000A460B4600F06AF903B000BD0EB540F290
:10071000334102910021CDE900110A460B4600F059
:100720005DF903B000BD00F0004220F00040C10DB3
:10073000C0F3160040F400007F2901DA0020704762
:10074000962903DCC1F19601C84001E09639884042
:10075000002AF4D04042704770B5C1F30A5201F04C
:1007600000450024C1F3130140F2FF3341F480112E
:100770009A4201DA002070BD40F233439A42A2F25D
:10078000334203DC5242FFF719FD00E090402C4356
:10079000F1D0404270BDC1F30A5210B5C1F313014C
:1007A00040F2FF3341F480119A4201DA002010BD7B
:1007B00040F233439A42A2F2334203DC5242FFF743
:1007C000FDFC10BD904010BD00F0004230F0004034
:1007D0000AD0C10D01F56071C0F3160042EA015163
:1007E000C2084007114370470020014670470000CF
:1007F00030B5041E71F1000404DB4FF000444042A8
:1008000064EB0101141E73F1000405DB1C464FF07C
:100810000043524263EB04038B4208BF824230BD67
:1008200001F0004330B421F0004150EA010206D04B
:100830000A0DA2F56072C1F31301002A02DC30BC7C
:1008400000207047440F44EAC104C100E01830BCE6
:1008500000EBC25000F07CB8002801DBC0F1004082
:10086000002901DBC1F1004181427047002801DB12
:10087000C0F10040002901DBC1F10041884270470E
:1008800030B50B46014600202022012409E021FA60
:1008900002F59D4205D303FA02F5491B04FA02F55D
:1008A0002844151EA2F10102F1DC30BD2DE9F05FF4
:1008B0000546002092469B468846064681464024CF
:1008C0001BE02846414647462246FFF777FC534641
:1008D0005A46C01A914110D311461846224600F0DC
:1008E00016F82D1A67EB01084F4622460120002119
:1008F00000F00DF817EB00094E41201EA4F1010491
:10090000DFDC484631462A464346BDE8F09F202AB0
:1009100004DB203A00FA02F1002070479140C2F156
:10092000200320FA03F3194390407047202A06DB86
:10093000CB17203A41FA02F043EAE07306E041FAAD
:1009400002F3D040C2F1200291400843194670479B
:100950000029A8BF7047401C490008BF20F00100D3
:10096000704710B4B0FA80FC00FA0CF050EA0104B1
:1009700004BF10BC704749B1CCF1200421FA04F443
:1009800011FA0CF118BF012121430843A3EB0C011C
:10099000CB1D4FEA00614FEA102042BF002010BC7F
:1009A000704700EBC35010440029A4BF10BC70472F
:1009B000401C490008BF20F0010010BC704710B572
:1009C000141E73F1000408DA401C41F10001921872
:1009D0005B411A4301D120F0010010BD2DE9F04D1B
:1009E00092469B4611B1B1FA81F202E0B0FA80F270
:1009F00020329046FFF78BFF04460F4640EA0A007C
:100A000041EA0B0153465A46084313D0114653EAB4
:100A1000010019D0C8F140025046FFF7CFFB054650
:100A20000E46504659464246FFF771FF084305D02F
:100A3000012004E020463946BDE8F08D0020054342
:100A400046EAE0762C4337430A986305E40AA0EBB4
:100A500008000022FD0A44EA47540A3002D500206B
:100A60000146E9E7010510196941DDE9084500196A
:100A70006941BDE8F04DA2E770B521F000430343A2
:100A80000CD0C1F30A550024D5EB040564EB040334
:100A9000D617AD1AB34102DB0020014670BD201805
:100AA00041EB025170BDC1F30A52C1F3130140F290
:100AB000FF3341F480119A4202DA00200146704768
:100AC00040F233439A42A2F2334202DC5242FFF731
:100AD00075BBFFF71CBF000030B5041E71F10004A8
:100AE00004DB4FF00044404264EB0101141E73F13B
:100AF000000405DB1C464FF00043524263EB040345
:100B0000994208BF904230BD064C074D06E0E068B0
:100B100040F0010394E8070098471034AC42F6D344
:100B2000FFF7E8FA90880008B0880008420005D076
:100B3000C0F3C7525242914201DC0020704700EBE3
:100B4000C15070472DE9F04D00231A461B1A8A4107
:100B500003DB00200146BDE8F08DC1F30A52C1F36A
:100B6000130141F480154FF0000BD10702D100189A
:100B70006D41521E0027044640F2FF11384601EB3A
:100B8000620A3E468046024600204FF48011FFF77D
:100B900015FBC2197141BB1846EB0100B4EB030C05
:100BA00075EB000C04D3E41A65EB000517460E46FE
:100BB000241908F101006D4180463428E3DDF9195C
:100BC00046EB0600091BA84103D24FF0FF32134643
:100BD00001E0002213461BEB070046EB0A51BDE87B
:100BE000F04DFFF7ECBE70B58C1810F8015B15F0F6
:100BF000070301D110F8013B2A1106D110F8012B8F
:100C000003E010F8016B01F8016B5B1EF9D12B07B3
:100C100005D40023521E0DD401F8013BFAE710F869
:100C2000013BCB1A921C03E013F8015B01F8015B56
:100C3000521EF9D5A142D8D3002070BD70B504462C
:100C400000252068806800F0010018B320688068E3
:100C500020F001002168886001F046FE054613E09F
:100C600001F042FE401B02280ED92068806800F087
:100C7000010048B1A06A40F01000A062E06A40F0B4
:100C80000100E062012070BD2068806800F0010072
:100C90000028E5D10020F6E738B5044600250020FD
:100CA00000902068806800F0010078BB20688068B0
:100CB00040F0010021688860194800681949B0FBBC
:100CC000F1F0009002E00098401E0090009800288B
:100CD000F9D101F009FE054619E001F005FE401BBF
:100CE000022814D92068806800F0010078B9A06A51
:100CF00040F01000A062E06A40F00100E06200BF36
:100D0000002084F8240000BF012038BD05E02068E1
:100D1000806800F001000028DFD00020F5E7000027
:100D20000C00002040420F0000B587B0F748007863
:100D300030B101280ED002287ED003287DD1AEE14B
:100D40000020F349C880F349C880F349C880F349BB
:100D5000C880F2E1F248006A0190FFF7E4FC00B2BB
:100D60006FF063026421029000F09CFD0390FFF796
:100D7000AEFC0590EB48B0F900000190FFF7A7FC2E
:100D80000290E948006A014601900298FFF74FFA85
:100D90000390E648006A014602900398FFF799FA2B
:100DA00004900599FFF743FA0690FFF7BCFC00B2E8
:100DB000D749C880DA48006A0190FFF7B4FC00B256
:100DC0006FF063026421029000F06CFD0390FFF766
:100DD0007EFC0590D348B0F900000190FFF777FC46
:100DE0000290D148006A014601900298FFF771FA1B
:100DF0000390CE48006A014602900398FFF769FA13
:100E000004900599FFF765FA0690FFF78CFC00B295
:100E1000C049C880C248006A0190FFF784FC00B254
:100E20006FF063026421029000F03CFD0390FFF735
:100E30004EFC0590BB4801E050E07DE1B0F90000B8
:100E40000190FFF744FC0290B748006A0146019008
:100E50000298FFF7ECF90390B448006A014602904B
:100E60000398FFF7E4F904900599FFF732FA06902A
:100E7000FFF759FC00B2A849C880A948006A019050
:100E8000FFF751FC00B26FF063026421029000F0A2
:100E900009FD0390FFF71BFC0590A248B0F9000084
:100EA0000190FFF714FC02909F48006A01460190F0
:100EB0000298FFF70EFA03909C48006A01460290E0
:100EC0000398FFF7B4F904900599FFF7B0F906907D
:100ED000FFF729FC00B29149C8802EE19048006AD2
:100EE0000090FFF720FC00B26FF0630264210190D4
:100EF00000F0D8FC0290FFF7EAFB04908948B0F9B3
:100F000000000090FFF7E3FB01908748006A01466C
:100F100000900198FFF78BF902908448006A01461F
:100F200001900298FFF7D5F903900499FFF77FF934
:100F300005907F48006A014604900598FFF777F90D
:100F40000690FFF7F0FB00B27149C8807448006A50
:100F50000090FFF7E8FB00B26FF06302642101909C
:100F600000F0A0FC0290FFF7B2FB04906D48B0F9CE
:100F700000000090FFF7ABFB01906B48006A014650
:100F800000900198FFF7A5F902906848006A0146B1
:100F900001900298FFF79DF903900499FFF799F9E2
:100FA00005906348006A014604900598FFF73FF9F1
:100FB0000690FFF7B8FB00B25649C8805848006A4F
:100FC0000090FFF7B0FB00B26FF063026421019064
:100FD00000F068FC0290FFF77AFB04905148B0F9EA
:100FE00000000090FFF773FB01904F48006A014634
:100FF00000900198FFF71BF902904C48006A0146E7
:1010000001900298FFF713F903900499FFF761F933
:1010100005904748006A014604900598FFF707F9D4
:101020000690FFF780FB00B23B49C8803C48006A4D
:101030000090FFF778FB00B26FF06302642101902B
:1010400000F030FC0290FFF742FB04903548B0F905
:1010500000000090FFF73BFB01903348006A014617
:1010600000900198FFF735F902903048006A014678
:1010700001900298FFF7DBF803900499FFF7D7F887
:1010800005902B48006A014604900598FFF7CFF8B9
:101090000690FFF748FB00B22049C8804DE01C488D
:1010A000C088801E00B21A49C8801A48C088801EB5
:1010B00000B21849C8801848C088801E00B216497E
:1010C000C8801648C088801E00B21449C8801048E5
:1010D000B0F90600002817DC0E48B0F90600002819
:1010E00012DC0D48B0F9060000280DDC0846B0F906
:1010F0000600002808DC002002230246014600907A
:101100000C48006807F018F917E000000101002002
:101110003C010020440100204C010020540100202B
:10112000100200200201002080010020C8010020E0
:10113000340200201C01002000BF00BF2348B0F98A
:10114000060000224FF42F71069000F0ABFB1F4900
:10115000C8801F48B0F9060000224FF42F71069096
:1011600000F0A0FB1A49C8801A48B0F90600002216
:101170004FF42F71069000F095FB1649C880164871
:10118000B0F9060000224FF42F71069000F08AFBA0
:101190001149C8801148B0F90000322808DA00204F
:1011A0000A49C8800A49C8800A49C8800A49C880D3
:1011B000064804F053F9064804F050F9054804F0D5
:1011C0004DF9054804F04AF907B000BD3C01002084
:1011D000440100204C0100205401002002010020A5
:1011E00010B508480088FFF77BFA0749086104F04A
:1011F0002DF80446FFF774FA03494861084600F0E9
:10120000DDFA10BD0C010020340200202DE9F04170
:10121000324803F013FD324AB2F900102F4AB2F9F6
:10122000000000F0A1FB2D4908802D4AB2F9021000
:101230002A4AB2F9020000F097FB28494880284A60
:10124000B2F90410254AB2F9040000F08DFB2349DD
:1012500088800846008822490880204840884880C5
:101260001E48808888801D49B1F90600FFF73DFAC5
:10127000064632460B461B4800F01FFB0446FFF7AC
:101280006BFA00B21549C880B1F90800FFF72DFAD2
:10129000064632460B461348183000F00EFB044653
:1012A000FFF75AFA01B20D4801810146B1F90A006F
:1012B000FFF71BFA064632460B460A48303000F06C
:1012C000FCFA0446FFF748FA01B204484181064A95
:1012D000064900F071FBBDE8F081000018360020DF
:1012E0003001002010000020A69BC43B24360020C3
:1012F00010B503F0F3FC074804F02CF9064804F09D
:1013000029F9064804F026F9054804F023F903F00A
:10131000ABFF10BD3C010020440100204C01002027
:10132000540100202DE9F0474149B1F90410A1F51D
:10133000FA70FFF7DAF9064600223E4BFFF758F93C
:101340000446FFF76DFA3C4908613C484068486133
:101350003B49B1F90200FFF7C8F980460022394B3A
:10136000FFF7D4F806460022374BFFF741F9044651
:10137000FFF756FA354948612F4800F087FA2C49A3
:10138000B1F90610A1F5FA70FFF7AFF90646002291
:10139000284BFFF72DF90446FFF742FA2C49086164
:1013A0002648806848612649B1F90000FFF79DF999
:1013B00080460022234BFFF7A9F806460022224B65
:1013C000FFF716F90446FFF72BFA22494861204837
:1013D00000F05CFA1649B1F90210A1F5FA70FFF7B6
:1013E00084F906460022134BFFF702F90446FFF783
:1013F00017FA194908611148006848611049B1F9A4
:101400000400FFF772F9064600220E4BFFF77EF844
:10141000044600220C4BFFF7EBF88046FFF700FA7A
:101420000E4948610C4800F031FABDE8F087000031
:1014300002010020000049405C0100202436002009
:101440001836002000409F400000E040800100204E
:10145000A4010020C8010020EC010020100200209F
:101460001CB51548042100238022CDE9001013A1EA
:10147000154806F0F3FE1548032100238022CDE92C
:10148000001013A1154806F0E9FE154801210023BC
:101490008022CDE9001013A1154806F0DFFE1548A3
:1014A000042100238022CDE9001013A1154806F085
:1014B000D5FE06F031FE1CBD10010020706F77656F
:1014C000725F7461736B000095790008140100204D
:1014D000666C696768745F7461736B008D77000870
:1014E000180100206C65645F7461736B000000007C
:1014F000ED7700081C010020636F6D5F7461736BF2
:10150000000000001D77000828B900210B4A117067
:101510000B4A117010E001280ED109490978491CC5
:10152000074A1170114609780A2905DB0121034A8F
:1015300011700021024A1170704700000001002064
:101540002C01002010B52448007830B101280ED0BD
:10155000022822D003283BD130E000F047F828B918
:1015600001201D49087000201C49087031E01C480A
:10157000407A012809D10220174908700020184933
:10158000487203F063FE1749088017480078012865
:1015900002D10320104908701BE01148407A01284D
:1015A00004D10D49087000200D4948720E4800789A
:1015B000012802D10320084908700AE04FF0FF32E9
:1015C0000121002006F0B8FC00200349087000E06B
:1015D00000BF00BF10BD000001010020200100205D
:1015E000020100200C0100200001002010B52D4850
:1015F000007805284BD2DFE800F0031127344900BA
:101600002948B0F90000B0F5617F06DB01202549CB
:10161000087006F047FF2549086039E02248B0F914
:101620000000B0F5617F0EDA06F03CFF1F49096843
:10163000401AB0F57A7F03D302201A49087002E0FD
:1016400000201849087023E01748B0F9000064280A
:1016500006DC03201349087006F024FF14490860D3
:1016600016E006F01FFF12490968401AB0F57A7FAC
:1016700008D80D48B0F90000642806DD00200949AB
:10168000087002E004200749087001E000E000BF94
:1016900000BF04480078042801D1002010BD0120BB
:1016A000FCE70000200100200201002024010020AE
:1016B000280100202DE9F04111213C48FEF795FD5D
:1016C0003A4803F0FFFC06468EB903F015FD4FF4CF
:1016D000FA7700BF364803F043FD012804D1381ED5
:1016E000A7F101018FB2F5D103F080FC00BF2F48B4
:1016F000FEF786FD10B90120BDE8F0812B48007887
:10170000732807D129484078672803D12748807873
:10171000672801D00120EFE700240025002004E025
:101720002249095C0C44411CC8B20D28F8DB1F4853
:10173000407B00061D49897B40EA01401B49C97B6B
:1017400040EA01201949097C40EA0105AC4201D078
:101750000120D1E7154800791449C97840EA0120F1
:1017600000B214490880114880791049497940EA4B
:10177000012000B20F4948800C48007A0B49C97912
:1017800040EA012000B20B4988800848807A074966
:10179000497A40EA012000B20649C8800348C07A6D
:1017A00008720248007B48720020A5E70536002039
:1017B000F43500200201002000BFFEE72DE9F04FC4
:1017C00089B08246DAE90410FEF783FDCAF80C00FE
:1017D000DAF80C10DAF81C00FEF729FDCAF81C0034
:1017E0000021DAF81800FFF737F803D1DAF80C0017
:1017F000CAF81800DAF81810DAF80C00FEF769FDDC
:1018000083465946DAF80800FEF769FD0646FEF7FA
:10181000DBFF04461B4A1C4BFEF7EAFECDE9040140
:10182000DAF81C10DAF80400FEF759FD0190FEF713
:10183000CBFF8046134A144BFEF768FE04460D4664
:10184000DAF80C10DAF80000FEF749FD8046FEF7E2
:10185000BBFF064622462B46FEF7B1FDCDE902014D
:10186000DDE90423FEF7ABFDCDE90601FEF7D8FF65
:10187000CAF82000DAF80C00CAF8180009B0BDE870
:10188000F08F0000FA7E6ABC7493783F70B505460D
:101890000C462846FFF792FF286A20612046FFF792
:1018A0008DFF70BD03468B4201DD084670479342B1
:1018B00001DA1046FAE71846F8E72DE9F04788B054
:1018C000824614461D46DAF81010DAF80000FEF7DA
:1018D000AEFCCAF80400DAF81410DAF80400FEF7D7
:1018E000A6FC06463146DAF80400FEF72AFDCAF8DF
:1018F0000C00DAF80800FEF767FF22462B46CDE918
:101900000001FEF700FECDE90201DAF80C00FEF757
:101910005BFF0646DDE90223FEF7F8FD80468946B7
:10192000DAF80800FEF750FF42464B46CDE90401C5
:10193000FEF745FDCDE90601FEF772FFCAF8080083
:101940004FF07E50DAF80C10FEF7C3FC0646DAF8CA
:101950000410FEF7C4FCCAF80000DAF80800FEF72D
:1019600033FF08B0BDE8F0872DE9FC5F83460C46E5
:101970002046FEF7BAFE07464FF033320C4BFEF717
:10198000C5FD81468A465846FEF7AFFE07464FF032
:101990003332084BFEF7BAFD4A465346CDE9000103
:1019A000FEF70DFD0546FEF7D7FE00B2BDE8FC9F31
:1019B0003333EB3F3333C33F07B5A0B04FF07C5117
:1019C0002298FEF78CFC0E90FE4880680690FD4839
:1019D000006805900699FEF782FC0890F948C068F7
:1019E0000690F848406805900699FEF778FC079045
:1019F0000899FEF76EFC4FF080410990FEF76FFCEE
:101A00001D90F048C0680690EE48806805900699E1
:101A1000FEF765FC0890EB4840680690E9480068CE
:101A200005900699FEF75BFC07900899FEF7FFFB0F
:101A30004FF080410990FEF752FC1E90E14880680B
:101A40000590E048806804900599FEF748FC0790EF
:101A5000DC4840680590DB48406804900599FEF733
:101A60003EFC06900799FEF7E2FB4FF0804108909C
:101A7000FEF735FC4FF07E510990FEF72DFC1F90CC
:101A80002098B0F90A000490FEF721FE06902098F5
:101A9000B0F90A000490FEF71AFE05900699FEF7C9
:101AA0001EFC08902098B0F908000290FEF70FFE87
:101AB00004902098B0F908000290FEF708FE039009
:101AC0000499FEF70CFC06902098B0F906000290ED
:101AD000FEF7FDFD04902098B0F906000290FEF795
:101AE000F6FD03900499FEF7FAFB05900699FEF7C0
:101AF0009EFB07900899FEF79AFB099003F0CAFF36
:101B00000F902098B0F906000890FEF7E0FD0990CC
:101B10000F99FEF7E4FB1A902098B0F9080008909E
:101B2000FEF7D5FD09900F99FEF7D9FB1B90209881
:101B3000B0F90A000890FEF7CAFD09900F99FEF768
:101B4000CEFB1C901E9807901C9806900799FEF7F4
:101B5000C6FB09901F9807901B9806900799FEF7FF
:101B6000BEFB08900999FEF7B4FB14901F980790EC
:101B70001A9806900799FEF7B2FB09901D980790F6
:101B80001C9806900799FEF7AAFB08900999FEF7A2
:101B9000A0FB15901D9807901B9806900799FEF7DB
:101BA0009EFB09901E9807901A9806900799FEF7D9
:101BB00096FB08900999FEF78CFB169014980890F4
:101BC000814801680898FEF78AFB09907F48006801
:101BD000014608900998FEF72AFB7C490860159891
:101BE0000890794801680898FEF779FB09907748D2
:101BF0004068014608900998FEF719FB7349486050
:101C000016980890704801680898FEF768FB0990DC
:101C10006E488068014608900998FEF708FB6B49FA
:101C2000886014980146069069480068FEF757FBE3
:101C300008902098B0F900000590FEF748FD069046
:101C4000644801680698FEF74AFB07900899FEF77A
:101C5000EEFA09905D480068014608900998FEF781
:101C6000E6FA179015980146069059480068FEF765
:101C700036FB08902098B0F902000590FEF727FD8A
:101C80000690544801680698FEF729FB07900899CA
:101C9000FEF7CDFA09904D48406801460890099832
:101CA000FEF7C5FA18901698014606904848006855
:101CB000FEF715FB08902098B0F904000590FEF798
:101CC00006FD0690434801680698FEF708FB07905A
:101CD0000899FEF7ACFA09903C48806801460890E4
:101CE0000998FEF7A4FA1990199806903548C0682B
:101CF00005900699FEF7F3FA089018980490314879
:101D0000806803900499FEF7EAFA06902D4840682F
:101D100080F0004004901798014603900498FEF765
:101D2000DEFA05900699FEF7D4FA07900899FEF7B7
:101D3000D0FA09900E99FEF7D2FA139019980690EE
:101D40002048806805900699FEF7C9FA089018980F
:101D500004901C48C06803900499FEF7C0FA0690EE
:101D6000179804901748006803900499FEF7B7FA93
:101D700005900699FEF7ADFA07900899FEF757FA15
:101D800009900E99FEF7ABFA1290199806900D483B
:101D9000406805900699FEF7A2FA089018980490FA
:101DA0000848006803900499FEF799FA069017987E
:101DB00004900448C06803900499FEF790FA0590D7
:101DC000069909E0700000206C000020200500202A
:101DD0006800002060000020FEF729FA07900899AB
:101DE000FEF777FA09900E99FEF779FA1190199893
:101DF0000690C948006805900699FEF770FA0890A9
:101E000018980490C448406803900499FEF767FA54
:101E10000690C148806880F0004004901798014601
:101E200003900498FEF75BFA05900699FEF7FFF918
:101E300007900899FEF7FBF909900E99FEF74FFA03
:101E40001090B548006809901399FEF7F0F9B2496F
:101E500008600846406809901299FEF7E8F9AE4913
:101E600048600846806809901199FEF7E0F9AA4990
:101E700088600846C06809901099FEF7D8F9A6490D
:101E8000C8600846C06806900846C0680590069974
:101E9000FEF725FA0890A048806804909E48806864
:101EA00003900499FEF71BFA06909B484068029045
:101EB0009948406801900299FEF711FA04909648FB
:101EC000006802909448006801900299FEF707FAB2
:101ED00003900499FEF7ABF905900699FEF7A7F970
:101EE00007900899FEF7A3F9099003F0D3FD0F902E
:101EF0008948006809900F99FEF7F1F98649086052
:101F00000846406809900F99FEF7E9F98249486050
:101F10000846806809900F99FEF7E1F97E498860CC
:101F20000846C06809900F99FEF7D9F97A49C86048
:101F300008464068014606904FF08040FEF7CFF912
:101F400007907548C068014606900798FEF7C7F9E4
:101F5000099071480068014606904FF08040FEF7F6
:101F6000BEF907906C488068014606900798FEF716
:101F7000B6F908900999FEF7ACF90D90664800682B
:101F8000014606904FF08040FEF7A9F9079062489D
:101F90004068014606900798FEF7A1F909905E484F
:101FA0008068014606904FF08040FEF798F9079050
:101FB0005948C068014606900798FEF790F90890C6
:101FC0000999FEF734F90C90534880680146069051
:101FD0004FF08040FEF783F907904F488068014634
:101FE00006900798FEF77BF909904B484068014638
:101FF00005904FF08040FEF772F906904648406821
:10200000014605900698FEF76AF94FF07E51079059
:10201000FEF762F908900999FEF75BF90B9020989A
:10202000B0F904000890FEF752FB09903B480168A4
:102030000998FEF754F90A904FF07C510A98FEF780
:1020400015FC09D30A98FEF7BFFB0022344BCDE9FB
:102050000801FEF7CDFB0DD222990A98FEF73FF951
:10206000099021980068014608900998FEF7DFF86A
:10207000219908602B480068FEF7A6FBCDE9060110
:102080000D98FEF7A1FBCDE9020105F0E1F8CDE9DD
:102090000401DDE90623FEF739FACDE90801FEF770
:1020A000BFFB21994860DDE90B1005F009FA0990A2
:1020B0001C4801680998FEF712F921998860209858
:1020C000B0F90A000690FEF702FB07900B99FEF7A5
:1020D00006F909902098B0F908000490FEF7F7FA85
:1020E00005900C99FEF7FBF807902098B0F90600D0
:1020F0000490FEF7ECFA05900D99FEF7F0F80690C3
:102100000799FEF794F808900999FEF790F80649A8
:10211000086023B000BD0000700000205C000020BB
:102120000000E0BF5800002064000020704772B635
:1021300000BFFEE738B5024600230020009000BF34
:1021400092F82400012801D1022038BD012082F834
:10215000240000BF4868072812D21068406B0C7931
:10216000641E04EB84051F24AC40A0430D796D1E52
:1021700005EB85050C68AC4020431468606327E0DC
:1021800048680D2812D21068006B0C79E41F04EB2C
:1021900084051F24AC40A0430D79ED1F05EB850598
:1021A0000C68AC4020431468206311E01068C06ADA
:1021B0000C790D3C04EB84051F24AC40A0430D7941
:1021C0000D3D05EB85050C68AC4020431468E062CA
:1021D00008680A2812D31068C0680C780A3C04EB1F
:1021E00044050724AC40A0430D780A3D05EB4505A6
:1021F0008C68AC4020431468E0600FE01068006910
:102200000C7804EB44050724AC40A0430D7805EBA3
:1022100045058C68AC40204314682061086810288C
:1022200002D00868112827D1174C1068A0421ED18F
:102230001068806800F40000F0B91068806840F40D
:1022400000001468A0600868102815D10F480068C5
:102250000F4CB0FBF4F000EB80004000009002E077
:102260000098401E009000980028F9D104E0906A80
:1022700040F020009062012300BF002082F824007B
:1022800000BF184661E70000002401400C00002058
:1022900040420F0001460868C06C70472DE9F041CC
:1022A0000446002700250026A84614B90120BDE8F1
:1022B000F081A06810B1207D00B100BFA06A30B9E4
:1022C0000020E06284F82400204600F089F82046CF
:1022D000FEF7B4FC0746A06A00F01000002873D196
:1022E000002F71D1A06A20F4885040F00200A06253
:1022F000E16960680843217B40EA41000643A06829
:10230000B0F5807F02D0A068012802D14FF4807020
:1023100000E000200543207D012811D1207B38B941
:10232000A069401E4FF4006141EA4030054307E0D8
:10233000A06A40F02000A062E06A40F00100E06284
:102340002068406820F4694028432168486020687C
:10235000806821490840304321688860A068B0F552
:10236000807F02D0A068012802D14FF4807000E085
:102370000020B0F5807F03D1208A401E4FEA00582C
:102380002068C06A20F4700040EA08002168C86232
:102390002068806811490840B04208D10020E062FE
:1023A000A06A20F0020040F00100A06211E0A06AE3
:1023B00020F0020040F01000A062E06A40F001004E
:1023C000E062012705E0FFE7A06A40F01000A0628C
:1023D000012738466BE70000FDF7E1FFFE0E1FFF07
:1023E00010B586B00446002002900390049005903A
:1023F00014492068884222D100BF1348806940F404
:102400000070114988610846806900F400700190ED
:1024100000BF00BF00BF0846806940F00800886127
:102420000846806900F00800019000BF00BF02204C
:1024300002900320039002A9044800F0B5F806B00A
:1024400010BD00000024014000100240000C0140BB
:1024500070B50446002500BF94F82400012801D17E
:10246000022070BD012084F8240000BF2046FEF742
:1024700013FC0546002D77D1A06A40F20121884364
:1024800040F48070A0623C492068884208D13B48F3
:10249000006800F4702008B9012002E0002000E08C
:1024A000012078B1A06A20F48010A0622068406802
:1024B00000F4806000B3A06A20F4005040F4805023
:1024C000A06219E0A06A40F48010A0622B49091FA5
:1024D0002068884203D028492068884204D12748D0
:1024E000006800F4806000E0002028B1A06A20F4B9
:1024F000005040F48050A062A06A00F4805020B1E7
:10250000E06A20F00600E06201E00020E06200BF27
:10251000002084F8240000BFC01E216808602068E5
:10252000806800F46020B0F5602F16D11249206851
:10253000884208D11148006800F4702008B90120D1
:1025400002E0002000E0012038B12068806840F4FB
:10255000A000216888600CE006E02068806840F4F4
:1025600080102168886004E000BF002084F8240007
:1025700000BF284675E70000002801400424014000
:1025800070B5044600F0B0F906462546681C10B147
:1025900004480078054400BF00F0A6F9801BA8425B
:1025A000FAD370BD080000202DE9F8470346002249
:1025B00094466EE14FF0010808FA02F4D1F8008069
:1025C00008EA0400A0427DD1DFF8DCA2D1F8048043
:1025D000A8EB0A09D0453AD014DCB8F1030F50D06B
:1025E00009DCB8F1000F31D0B8F1010F1CD0B8F1FF
:1025F000020F49D120E0B8F1110F18D0B8F1120F35
:1026000042D11EE0B9F5881F25D006DCB9F5803F20
:1026100020D0B9F5801F37D11AE0B9F5001F18D0C6
:10262000B9F5041F30D117E0D1F80CC02DE0D1F876
:102630000C8008F1040C28E0D1F80C8008F1080C9B
:1026400023E0D1F80C8008F10C0C1EE000BF00BFA5
:1026500000BF00BF00BF00BFD1F80880B8F1000F75
:1026600002D14FF0040C0BE0D1F80880B8F1010F53
:1026700003D14FF0080C1C6102E04FF0080C5C61C4
:1026800003E04FF0000C00E000BF00BFFF2801D8BE
:10269000984601E003F104084646FF2802D84FEAB5
:1026A000820803E0A2F108084FEA88084746D6F8F6
:1026B00000804FF00F0909FA07F928EA09080CFA17
:1026C00007F900E088E048EA0908C6F80080D1F878
:1026D000048008F08058B8F1805F7DD100BFDFF83A
:1026E000CC81D8F8188048F00108DFF8C091C9F80B
:1026F0001880C846D8F8188008F00108CDF8008086
:1027000000BF00BF4FEAB9384FEA920958F8295084
:102710004FEA82784FEA18794FF00F0808FA09F863
:1027200025EA0805DFF88881434502D14FF000080B
:1027300016E0DFF88081434502D14FF001080FE039
:10274000DFF87481434502D14FF0020808E0DFF85A
:102750006C81434502D14FF0030801E04FF00408BB
:102760004FEA82794FEA197908FA09F848EA05052B
:10277000DFF84C814FEA920948F82950D1F80480DB
:1027800008F48018B8F5801F0AD1DFF83881D8F82E
:10279000008048EA0008DFF82C91C9F8008009E0C1
:1027A000DFF82081D8F8008028EA0008DFF81491CB
:1027B000C9F80080D1F8048008F40018B8F5001FAB
:1027C00010D1DFF8008108F10408D8F8008048EA49
:1027D0000008DFF8F09000E05AE009F10409C9F8B8
:1027E00000800DE0DFF8DC8008F10408D8F80080F4
:1027F00028EA0008DFF8CC9009F10409C9F8008044
:10280000D1F8048008F40038B8F5003F0ED1DFF8A5
:10281000B480A8F10408D8F8008048EA0008DFF87E
:10282000A490A9F10409C9F800800DE0DFF89480B4
:10283000A8F10408D8F8008028EA0008DFF884909E
:10284000A9F10409C9F80080D1F8048008F480389F
:10285000B8F5803F0ED1DFF86C80A8F10808D8F8F1
:10286000008048EA0008DFF85C90A9F10809C9F87F
:1028700000800DE0DFF84C80A8F10808D8F800804F
:1028800028EA0008DFF83C90A9F10809C9F800809F
:10289000521CD1F8008028FA02F8B8F1000F7FF43A
:1028A00089AEBDE8F887000000001110001002405A
:1028B00000080140000C01400010014000140140DC
:1028C000080001400804014010B5C26821EA020373
:1028D00002EA010443EA0443036110BD0AB1016145
:1028E00001E00B0403617047014800687047000075
:1028F0000000002070B504460CB9012070BD94F8AA
:102900003D0028B9002084F83C00204600F046FB3A
:10291000242084F83D002068006820F00100216830
:1029200008602068006840F4004021680860206862
:10293000006820F400402168086000F0BDFD0546F5
:102940005C496068884206D85B48854201D2012014
:1029500007E0002005E05948854201D2012000E04F
:102960000020012800D1C9E75548B5FBF0F62068E2
:10297000406820F03F003043216848604D4960685E
:10298000884201D8701C07E04FF4967070434FF4F2
:102990007A71B0FBF1F0401C2168096A21F03F0117
:1029A00008432168086243496068884214D8681E59
:1029B00061684900B0FBF1F0401CC0F30B00042833
:1029C00001D204203DE0681E61684900B0FBF1F0CF
:1029D000401CC0F30B0034E0A06838B9681E616881
:1029E00001EB4101B0FBF1F0401C0AE0681E616898
:1029F00001EBC10202EB0111B0FBF1F0401C40F40D
:102A00008040C0F30B0008B901201AE0A06848B963
:102A1000681E616801EB4101B0FBF1F0401CC0F39E
:102A20000B000CE0681E616801EBC10202EB0111B2
:102A3000B0FBF1F0401CC0F30B0040F4804040F4C8
:102A400000402168C9694CF6FF7291430843216830
:102A5000C861D4E9070108432168096821F0C00171
:102A6000084321680860D4E9031008432168896895
:102A700048F2FF329143084321688860D4E9050198
:102A800008432168C96821F0FF0108432168C86034
:102A90002068006840F00100216808600020206480
:102AA000202084F83D000020206384F83E0000BF11
:102AB00024E70000A086010080841E0000093D007C
:102AC00040420F002DE9FE4F04460F4690469946BE
:102AD000DDE90CAB0E9E00200290FFF705FF0546D6
:102AE00094F83D00202872D119230122CE492046B6
:102AF000009501F0D4FE10B10220BDE8FE8F00BFAA
:102B000094F83C00012801D10220F6E7012084F866
:102B10003C0000BF2068006800F0010028B9206870
:102B2000006840F00100216808602068006820F417
:102B3000006021680860222084F83D00402084F86D
:102B40003E0000202064C4F824A0A4F82AB0608DC0
:102B50002085B648E0624B46424639462046CDE9DC
:102B6000006501F049FD08B10120C6E7208D88B954
:102B700000BF0020019020684069019020688069B2
:102B8000019000BF00BF2068006840F40070216819
:102B900008604BE0208D01281AD12068006820F4DD
:102BA00080602168086072B600BF00200190206834
:102BB0004069019020688069019000BF00BF2068D3
:102BC000006840F400702168086062B62EE029E1D8
:102BD000208D022819D12068006840F40060216827
:102BE000086072B600BF0020019020684069019023
:102BF00020688069019000BF00BF2068006820F451
:102C000080602168086062B610E02068006840F4C7
:102C100080602168086000BF002001902068406942
:102C2000019020688069019000BF00BFEBE0208D1B
:102C300003287DD8208D012815D12A46314620460B
:102C400001F009FF08B1012057E720680069616AB7
:102C50000870606A401C6062208D401E2085608D77
:102C6000401E6085CFE0208D02282CD13346002203
:102C70006F492046009501F012FE08B101203CE7A3
:102C800072B62068006840F400702168086020680F
:102C90000069616A0870606A401C6062208D401E95
:102CA0002085608D401E608562B620680069616A7B
:102CB0000870606A401C6062208D401E2085608D17
:102CC000401E60859FE0334600225949204600950A
:102CD00001F0E5FD08B101200FE72068006820F44D
:102CE00080602168086072B620680069616A0870B7
:102CF000606A401C6062208D401E2085608D401EF1
:102D000060854C4800681921B0FBF1F04FF47A71EE
:102D1000B0FBF1F0C0EBC00000EB8000029000BF00
:102D20000298401E02900298A8B90020206300E09B
:102D300039E0202084F83D00002084F83E00206C1B
:102D400040F02000206462B600BF002084F83C0000
:102D500000BF0120D1E620684069C0F38000002850
:102D6000DED02068006840F40070216808602068A8
:102D70000069616A0870606A401C6062208D401EB4
:102D80002085608D401E608562B620680069616A9A
:102D90000870606A401C6062208D401E2085608D36
:102DA000401E60852FE02A463146204601F053FE42
:102DB00008B10120A1E620680069616A0870606AB4
:102DC000401C6062208D401E2085608D401E608505
:102DD00020684069C0F38000A8B1208D032805D188
:102DE0002068006820F4806021680860206800691D
:102DF000616A0870606A401C6062208D401E2085F8
:102E0000608D401E6085208D00287FF410AF20204B
:102E100084F83D00002084F83E0000BF84F83C00A8
:102E200000BF6AE6022068E6020010000000FFFF13
:102E3000040001000C0000202DE9FC5F04460F4651
:102E400090469946DDE90CAB0E9EFFF74DFD054619
:102E500094F83D0020287DD1192301224D492046B8
:102E6000009501F01CFD10B10220BDE8FC9F00BFE1
:102E700094F83C00012801D10220F6E7012084F8F3
:102E80003C0000BF2068006800F0010028B92068FD
:102E9000006840F00100216808602068006820F4A4
:102EA000006021680860212084F83D00402084F8FB
:102EB0003E0000202064C4F824A0A4F82AB0608D4D
:102EC00020853548E0624B46424639462046CDE9EA
:102ED000006501F041FC08B10120C6E731E02A4657
:102EE0003146204601F0FCFD50B1206C042805D18C
:102EF0002068006840F40070216808600120B4E791
:102F0000606A007821680861606A401C6062208DF8
:102F1000401E2085608D401E608520684069C0F39A
:102F2000800070B1208D60B1606A0078216808610E
:102F3000606A401C6062208D401E2085608D401EAE
:102F40006085208D0028CAD12A463146204601F0EE
:102F500073FC00E01CE050B1206C042805D120680F
:102F6000006840F400702168086001207DE7206857
:102F7000006840F4007021680860202084F83D005B
:102F8000002084F83E0000BF84F83C0000BF6CE7DE
:102F900002206AE7020010000000FFFF10B586B0B3
:102FA0000446002002900390049005902B4920686D
:102FB000884225D100BF2A48806940F0080028498E
:102FC00088610846806900F00800019000BF00BFDA
:102FD000C0200290122003900320059002A92148EE
:102FE000FFF7E2FA00BF1E48C06940F400101C4918
:102FF000C8610846C06900F40010019000BF2AE0D3
:1030000019492068884226D100BF1548806940F0E0
:103010000800134988610846806900F008000190A3
:1030200000BF00BF4FF440600290122003900320C5
:10303000059002A90B48FFF7B7FA00BF0848C0691E
:1030400040F480000649C8610846C06900F4800069
:10305000019000BF00BF06B010BD0000005400404A
:1030600000100240000C0140005800400348006876
:1030700003490978084401490860704700000020AE
:103080000800002010B50848006840F0100006490C
:103090000860032000F098F80F2000F007F800F017
:1030A0002BF8002010BD00000020024070B504463F
:1030B0000E4800784FF47A71B1FBF0F00C490968C2
:1030C000B1FBF0F5284600F047FE08B1012070BDC5
:1030D000102C07D200222146501E00F037F8054878
:1030E000046001E00120F2E70020F0E70800002082
:1030F0000C0000200400002008B500BF11488069C2
:1031000040F001000F4988610846806900F0010025
:10311000009000BF00BF00BF0846C06940F080506B
:10312000C8610846C06900F08050009000BF00BF31
:1031300000BF0549486820F0E06040F0007048603A
:1031400000BF08BD00100240000001402DE9F05F03
:1031500080460D461646002703F07EFB074639469B
:103160002A46334601F00700C0F1070ABAF1040FFE
:1031700002D94FF0040A01E0C0F1070AD14600F17C
:10318000040ABAF1070F02D24FF0000A01E0A0F1E1
:10319000030AD4464FF0010A0AFA09FAAAF1010A11
:1031A0000AEA020A0AFA0CFA4FF0010B0BFA0CFBBE
:1031B000ABF1010B0BEA030B4AEA0B042146404634
:1031C00003F052FBBDE8F09F00BF00F00702064B82
:1031D00019684FF6FF031940044B0B4343EA0221E1
:1031E000014B196000BF70470CED00E00000FA05CC
:1031F000F8B5044600260025207800F001000028DC
:103200006BD000274348C06900F0805070B900BF00
:103210004048C06940F080503E49C8610846C069D6
:1032200000F08050009000BF00BF01273A480068BE
:1032300000F48070B0B93848006840F480703649B6
:103240000860FFF751FB064606E0FFF74DFB801BC9
:10325000642801D90320F8BD2F48006800F480706D
:103260000028F2D02B48006A00F440752DB3A088E6
:1032700000F44070A84220D02648006A20F440752F
:10328000012026490860002008602248056205F0F8
:10329000010090B1FFF728FB064608E0FFF724FB8A
:1032A000801B41F28831884201D90320D3E71948B5
:1032B000006A00F002000028F0D01648006A20F4EE
:1032C00040706168084313490862012F04D1084621
:1032D000C06920F08050C86100BF207800F0020073
:1032E000022807D10B48406820F44040A1680843F9
:1032F00008494860207800F01000102807D10548E0
:10330000406820F48000E1680843024948600020DA
:10331000A1E700000010024000700040400442425B
:1033200070B504460D460CB9012070BD5A480068BE
:1033300000F00700A8420ED25748006820F00700AE
:103340002843554908600846006800F00700A84275
:1033500001D00120E9E7207800F0020002281DD109
:10336000207800F00400042805D14C48406840F45F
:10337000E0604A494860207800F00800082805D13C
:103380004648406840F460504449486043484068BB
:1033900020F0F000A168084340494860207800F020
:1033A000010078B36068012806D13C48006800F449
:1033B000003090B90120B8E76068022806D137488C
:1033C000006800F0007040B90120AEE733480068A3
:1033D00000F0020008B90120A7E73048406820F05B
:1033E0000300616808432D494860FFF77DFA0646EF
:1033F00009E0FFF779FA801B41F28831884202D94F
:10340000032092E707E02548406800F00C0061685F
:10341000B0EB810FEDD12048006800F00700A84212
:103420000ED91D48006820F0070028431A4908609B
:103430000846006800F00700A84201D0012074E7A8
:10344000207800F00400042807D11448406820F4D4
:10345000E060E168084311494860207800F0080006
:10346000082808D10D48406820F46050216940EADE
:10347000C1000A49486000F03FF808494968C1F3B3
:103480000311074A515CC8400649086006480068B5
:10349000FFF70CFE002048E7002002400010024029
:1034A000AE8700080C0000200400002001480068DE
:1034B000704700000C00002000B5FFF7F7FF04493B
:1034C0004968C1F30221034A515CC84000BD0000B5
:1034D00000100240BE87000800B5FFF7E7FF04496F
:1034E0004968C1F3C221034A515CC84000BD0000D5
:1034F00000100240BE87000870B5002100220024A1
:1035000000230020134D696801F00C05F5B1042D6E
:1035100002D0082D19D101E00F4819E00F4DC1F379
:103520008346AB5D01F4803555B10A4D6D68C5F336
:1035300040450B4E725D084D5D43B5FBF2F402E071
:10354000084D03FB05F4204602E000BF024800BF1F
:1035500000BF70BD0010024000127A009C87000876
:10356000AC87000800093D00F8B504460CB90120FD
:10357000F8BD207800F00100002878D0F8484068B5
:1035800000F00C0004280CD0F548406800F00C0056
:10359000082811D1F248406800F48030B0F5803F2F
:1035A0000AD1EF48006800F4003000285FD060685E
:1035B00000285CD10120DBE700BF6068B0F5803FE8
:1035C00006D1E748006840F48030E549086028E00B
:1035D000606858B9E248006820F48030E04908602B
:1035E0000846006820F4802008601AE06068B0F5A2
:1035F000A02F0BD1DA48006840F48020D849086039
:103600000846006840F4803008600AE0D44800684A
:1036100020F48030D24908600846006820F48020F9
:10362000086000BF606888B1FFF75EF9054606E0F4
:10363000FFF75AF9401B642801D9032098E7C848CE
:10364000006800F400300028F2D010E0FFF74CF9D9
:10365000054606E0FFF748F9401B642801D903201E
:1036600086E7BF48006800F400300028F2D12078D7
:1036700000F00200022857D1B948406800F00C0061
:1036800050B1B748406800F00C00082818D1B44881
:10369000406800F4803098B9B148006800F002003A
:1036A00020B12069012801D0012061E7AC48006801
:1036B00020F0F800616940EAC100A949086033E0E0
:1036C0002069E8B10120A7490860FFF70DF9054618
:1036D00006E0FFF709F9401B022801D9032047E75C
:1036E0009F48006800F002000028F2D09C48006863
:1036F00020F0F800616940EAC1009949086013E0D0
:10370000002098490860FFF7EFF8054606E0FFF74C
:10371000EBF8401B022801D9032029E790480068F4
:1037200000F002000028F2D1207800F008000828FC
:103730002DD1A069B8B101208B490860FFF7D4F8FA
:10374000054606E0FFF7D0F8401B022801D9032008
:103750000EE78348406A00F002000028F2D0012002
:1037600002F0C0F913E000207F490860FFF7BCF8C1
:10377000054606E0FFF7B8F8401B022801D90320F0
:10378000F6E67748406A00F002000028F2D120787F
:1037900000F00400042873D100277148C06900F0CC
:1037A000805070B900BF6E48C06940F080506C49CD
:1037B000C8610846C06900F08050009000BF00BF9B
:1037C00001276A48006800F48070B0B96748006853
:1037D00040F4807065490860FFF786F8054606E00A
:1037E000FFF782F8401B642801D90320C0E65F4838
:1037F000006800F480700028F2D000BFE068012863
:1038000006D15748006A40F001005549086227E098
:10381000E06858B95248006A20F001005049086237
:103820000846006A20F00400086219E0E0680528F4
:103830000BD14B48006A40F0040049490862084631
:10384000006A40F0010008620AE04548006A20F082
:103850000100434908620846006A20F0040008623B
:1038600000BFE068A0B1FFF73FF8054609E0FFF7A9
:103870003BF8401B41F28831884202D9032077E6A9
:1038800022E03748006A00F002000028EFD012E082
:10389000FFF72AF8054608E0FFF726F8401B41F23B
:1038A0008831884201D9032062E62D48006A00F081
:1038B00002000028F0D1012F05D12948C06920F06D
:1038C00080502749C86100BFE069C8B324484068F8
:1038D00000F00C00082860D0E069022848D10020E0
:1038E00020490866FFF700F8054606E0FEF7FCFFF2
:1038F000401B022801D903203AE61948006800F06D
:1039000000700028F2D1206AB0F5803F07D114483A
:10391000406820F40030A168084311494860D4E9A8
:10392000080108430E49496821F4741108430C4901
:10393000486001200B490866FEF7D6FF054607E000
:103940003DE0FEF7D1FF401B022801D903200FE61E
:103950000348006800F000700028F2D02FE000005B
:1039600000100240000042428004424200700040C9
:10397000002014490866FEF7B7FF054606E0FEF78B
:10398000B3FF401B022801D90320F1E50E4800686F
:1039900000F000700028F2D111E0E069012800D1A8
:1039A000E6E50948466806F48031206A814204D180
:1039B00006F47011606A814201D00120D8E5002030
:1039C000D6E50000000042420010024010B5044657
:1039D0000CB9012010BD606A38B96068B0F5827F0B
:1039E00000D105E00021E16102E000212161616177
:1039F0000021A16294F8510028B9002084F85000F9
:103A0000204600F043F8022084F851002068006846
:103A100020F0400021680860A08800F482702189AD
:103A200001F404410843A18901F400610843217CA9
:103A300001F002010843217D01F001010843218BBF
:103A400001F400710843217F01F03801084320216F
:103A5000095D01F080010843218D01F40051084304
:103A6000216808600421A06901EA104021684860CB
:103A70002068C06920F400602168C861002060658A
:103A8000012084F851000020A4E7000010B586B0A2
:103A90000446002002900390049005901949206884
:103AA00088422DD100BF1848806940F480501649E3
:103AB00088610846806900F48050019000BF00BF13
:103AC00000BF0846806940F00400886108468069AC
:103AD00000F00400019000BF00BFA020029002206F
:103AE00003900320059002A90848FEF75DFD4020E1
:103AF000029000200390049002A90448FEF754FDB0
:103B000006B010BD00300140001002400008014026
:103B10002DE9FE4F04460F4690461D460C9E01209F
:103B20000190FEF7E1FE814694F851B06068029082
:103B3000AA46BBF1010F0BD00298B0F5827F04D1E9
:103B4000A06810B9BBF1040F02D00220BDE8FE8FBF
:103B50001FB1B8F1000F00D00DB90120F6E700BF8A
:103B600094F85000012801D10220EFE7012084F8E9
:103B7000500000BF94F85100042802D0052084F8BA
:103B8000510000206065C4F83880E587A587276369
:103B9000E586A586206460642068006800F0400027
:103BA000402805D02068006840F040002168086087
:103BB000E068B0F5006F52D1606810B1BAF1010F42
:103BC00009D1206B00882168C860206B801C2063AD
:103BD000E08E401EE0863BE02068806800F0020036
:103BE000022810D1E08E70B1019801280BD1206B12
:103BF00000882168C860206B801C2063E08E401E16
:103C0000E086002001902068806800F0010068B123
:103C1000E08F58B12068C068A16B0880A06B801C41
:103C2000A063E08F401EE08701200190FEF75CFE5C
:103C3000A0EB0900B0420BD3701C48B1012084F8FE
:103C4000510000BF002084F8500000BF03207DE732
:103C5000E08E0028C0D1E08F0028BDD152E060681E
:103C600010B1BAF1010F09D1206B007821680873F7
:103C7000206B401C2063E08E401EE0863CE0206804
:103C8000806800F00200022810D1E08E70B1019827
:103C900001280BD1206B007821680873206B401C31
:103CA0002063E08E401EE08600200190206880683E
:103CB00000F0010068B1E08F58B12068C068A16BC6
:103CC0000870A06B401CA063E08F401EE0870120BD
:103CD0000190FEF709FEA0EB0900B04201D3701C71
:103CE00000B94EB9012084F8510000BF002084F8CB
:103CF000500000BF032029E7E08E0028BFD1E08FED
:103D00000028BCD14A463146204601F0FFFE40B1B2
:103D10002020606500BF002084F8500000BF012013
:103D200014E7A06850B900BF002000902068C06868
:103D3000009020688068009000BF00BF012084F8D8
:103D4000510000BF002084F8500000BF606D08B132
:103D50000120FBE60020F9E670B504462546681E02
:103D6000B0F1807F01D301200FE0681E4FF0E02109
:103D700048610F214FF0FF3002F076FD00204FF038
:103D8000E021886107200861002070BD10B503465E
:103D9000002200BF93F83C00012801D1022010BD91
:103DA000012083F83C0000BF22F0FF00CC6840EA0D
:103DB000040222F440708C6840EA040222F480601D
:103DC0004C6840EA040222F400600C6840EA0402F5
:103DD00022F480500C6940EA040222F400504C693D
:103DE00040EA040222F48040CC6940EA04021868E8
:103DF000426400BF002083F83C0000BF00BFCEE754
:103E000030B502460B4600BF92F83C00012801D1B4
:103E1000022030BD012082F83C0000BF022082F861
:103E20003D00106844681068816824F070041868C8
:103E3000044310684460104D1068A8420BD010680D
:103E4000B0F1804F07D00D4D1068A84203D00C4D43
:103E50001068A84205D121F080015868014310681C
:103E60008160012082F83D0000BF002082F83C0004
:103E700000BF00BFCDE70000002C0140000400405F
:103E80000008004010B504460CB9012010BD94F89C
:103E90003D0028B9002084F83C00204600F026F8B8
:103EA000022084F83D00211D206801F01DFF012043
:103EB00084F8460000BF84F83E0001213F200155F0
:103EC000402001554120015500BF00BF012084F86A
:103ED000420043200155442001554520015500BFB3
:103EE000012084F83D000020D0E7000008B5244AF6
:103EF000016891420DD100BF2249896941F40061F6
:103F0000204A91611146896901F40061009100BF66
:103F100035E00168B1F1804F0DD100BF1949C96981
:103F200041F00101174AD1611146C96901F001014F
:103F3000009100BF23E0144A016891420DD100BFF7
:103F40001049C96941F002010E4AD1611146C9699F
:103F500001F00201009100BF11E00C4A016891429A
:103F60000DD100BF0749C96941F00401054AD1617B
:103F70001146C96901F00401009100BF00BF08BDEE
:103F8000002C0140001002400004004000080040E6
:103F90002DE9F04104460D46002700BF94F83C008F
:103FA000012802D10220BDE8F081012084F83C0004
:103FB00000BF022084F83D002068866826F077065E
:103FC00026F47F46206886602868502833D00CDCB1
:103FD000202850D004DC00284BD0102851D149E0D3
:103FE000302849D040284CD139E060282DD07028A5
:103FF00007D0B0F5805F03D0B0F5005F41D10DE090
:1040000041E0D5E902136A68206801F0C0FE20682B
:10401000866846F077062068866034E0D5E90213AA
:104020006A68206801F0B3FE2068806840F4804030
:104030002168886027E0EA686968206801F078FFF5
:104040005021206801F0AEFE1DE0EA686968206832
:1040500001F081FF6021206801F0A4FE13E0EA680E
:104060006968206801F064FF4021206801F09AFE31
:1040700009E000BF00BF00BF2968206801F092FE80
:1040800001E0012700BF00BF012084F83D0000BF10
:10409000002084F83C0000BF384684E710B586B0A5
:1040A0000446002002900390049005903C4920684B
:1040B000884217D100BF3B48806940F0040039496D
:1040C00088610846806900F00400019000BF00BFCD
:1040D0000815029002200390059002A93248FEF7CD
:1040E00063FA5BE02068B0F1804F16D100BF2D4825
:1040F000806940F004002B4988610846806900F01F
:104100000400019000BF00BF0220029003900590C0
:1041100002A92548FEF748FA40E024492068884271
:1041200021D100BF1F48806940F008001D49886107
:104130000846806900F00800019000BF00BF102011
:10414000029002200390059002A91948FEF72CFA6C
:1041500000BF1849486820F4406040F0E06040F437
:10416000006048601AE014492068884216D100BFF8
:104170000C48806940F008000A4988610846806957
:1041800000F00800019000BF00BF48150290022017
:104190000390059002A90648FEF706FA06B010BD86
:1041A000002C0140001002400008014000040040C3
:1041B000000C014000000140000800402DE9F041E2
:1041C00004460D461646002700BF94F83C0001281F
:1041D00002D10220BDE8F081012084F83C0000BF3C
:1041E00036B1042E1BD0082E31D00C2E5ED145E006
:1041F0002946206801F0E0FD2068806940F0080051
:10420000216888612068806920F004002168886145
:1042100020688069296908432168886148E0294647
:10422000206801F0F9FD2068806940F40060216891
:1042300088612068806920F4806021688861206836
:104240008069296940EA01202168886130E02946B7
:10425000206801F015FE2068C06940F00800216860
:10426000C8612068C06920F004002168C861206826
:10427000C069296908432168C86119E02946206896
:1042800001F032FE2068C06940F400602168C86116
:104290002068C06920F480602168C8612068C06916
:1042A000296940EA01202168C86101E0012700BFB7
:1042B00000BF00BF002084F83C0000BF384689E7FB
:1042C00010B504460CB9012010BD94F83D0028B982
:1042D000002084F83C00204600F025F8022084F8F5
:1042E0003D00211D206801F0FFFC012084F84600FC
:1042F00000BF84F83E0001213F20015540200155B8
:104300004120015500BF00BF012084F84200432036
:104310000155442001554520015500BF012084F876
:104320003D000020D0E7704770B504460D4615B932
:1043300094F83E000BE0042D02D13F20005D06E022
:10434000082D02D14020005D01E04120005D0128E0
:1043500001D0012070BD1DB9022084F83E000EE09E
:10436000042D03D102213F20015508E0082D03D17F
:1043700002214020015502E0022141200155012285
:104380002946206801F0F2FC19492068884201D1D1
:10439000012000E0002028B12068406C40F400407B
:1043A000216848641249206888420BD02068B0F127
:1043B000804F07D00F492068884203D00E492068FB
:1043C00088420CD12068806800F00706062E0CD0C9
:1043D0002068006840F001002168086005E020685E
:1043E000006840F00100216808600020B2E700008A
:1043F000002C0140000400400008004010B50446B5
:104400000CB9012010BDA06900B100E000BF94F814
:10441000410028B9002084F84000204600F02AF826
:10442000242084F841002068C06820F400502168EE
:10443000C860204601F0DAFD2068006920F4904051
:10444000216808612068406920F02A0021684861DD
:104450002068C06840F400502168C8600020606493
:10446000202084F8410084F842000020606300BFEF
:10447000C8E7000010B586B0044600200290039003
:10448000049005901949206888422DD100BF184832
:10449000C06940F400301649C8610846C06900F49C
:1044A0000030019000BF00BF00BF0846806940F0A7
:1044B000040088610846806900F00400019000BF94
:1044C00000BF04200290022003900320059002A95F
:1044D0000848FEF769F80820029000200390049035
:1044E00002A90448FEF760F806B010BD0044004081
:1044F00000100240000801402DE9F84F04460E4626
:10450000174699464FF0000A94F84100202850D1F0
:1045100006B117B90120BDE8F88F002060642120A2
:1045200084F84100FEF7E0F98246A784E784A0689A
:10453000B0F5805F04D1206910B90025B04602E0D3
:1045400035464FF000081EE05346002280212046E9
:10455000CDF8009001F0C8FD20B1202084F8410082
:104560000320D8E745B9B8F80000C0F30800216877
:10457000486008F1020803E02878216848606D1C53
:10458000E08C401EE084E08C0028DDD15346002200
:1045900040212046CDF8009001F0A6FD20B120205A
:1045A00084F841000320B6E7202084F84100002071
:1045B000B1E70220AFE700BFFEE7014608684069A7
:1045C000C0F38020B0B16FF480600A6850610020B1
:1045D0000863202081F83D00002081F83E00086C2F
:1045E00040F00400086400BF002081F83C0000BFD8
:1045F000012070470020FCE72DE9F84304460F46F0
:1046000015469946DDE908862068006840F4806018
:10461000216808602068006840F4807021680860A4
:10462000434600224FF001112046009600F037F972
:1046300060B12068006800F48070B0F5807F02D11E
:104640004FF4007020640320BDE8F88307F0FE00FB
:1046500021680861334642463E49204600F07EF913
:1046600008B10120F0E700BF0020009020684069F9
:10467000009020688069009000BF00BF324641462C
:10468000204600F02DFA50B1206C042805D1206896
:10469000006840F40070216808600120D4E7B9F197
:1046A000010F03D1E8B22168086117E0C5F30720C4
:1046B0002168086132464146204600F011FA50B1A7
:1046C000206C042805D12068006840F4007021683F
:1046D00008600120B8E7E8B2216808613246414627
:1046E000204600F0FDF950B1206C042805D1206867
:1046F000006840F40070216808600120A4E7206889
:10470000006840F4807021680860434600224FF042
:1047100001112046009600F0C2F858B120680068E8
:1047200000F48070B0F5807F02D14FF400702064F7
:10473000032089E7F8B240F00100216808613346A0
:1047400042460449204600F009F908B101207BE700
:10475000002079E7020001002DE9F843044688466D
:1047600015469946DDE908672068006840F48070C6
:1047700021680860334600224FF00111204600975F
:1047800000F08DF860B12068006800F48070B0F52A
:10479000807F02D14FF4007020640320BDE8F883CD
:1047A00008F0FE00216808613B4632462149204658
:1047B00000F0D4F808B10120F0E700BF002000901D
:1047C00020684069009020688069009000BF00BFA9
:1047D0003A463146204600F083F950B1206C042857
:1047E00005D12068006840F400702168086001204D
:1047F000D4E7B9F1010F03D1E8B22168086117E0ED
:10480000C5F30720216808613A463146204600F08A
:1048100067F950B1206C042805D12068006840F485
:104820000070216808600120B8E7E8B221680861DB
:104830000020B3E70200010070B504460D4616469D
:1048400025E02046FFF7B9FE08B1012070BD681CC5
:10485000E8B1FEF749F8801BA84200D8BDB920682E
:104860004069C0F3800090B900202063202084F8C4
:104870003D00002084F83E00206C40F020002064C1
:1048800000BF002084F83C0000BF0120DEE7206864
:104890004069C0F380000028D3D00020D6E72DE97E
:1048A000F04104460D4617461E46DDF8188038E0F4
:1048B000701CA8B3FEF718F8A0EB0800B04200D8AF
:1048C00076BBC5F3074001280AD120684069A9B228
:1048D0000840A9B2884201D101200BE0002009E084
:1048E00020688069A9B20840A9B2884201D101209C
:1048F00000E00020B84214D100202063202084F87A
:104900003D00002084F83E00206C40F02000206430
:1049100000BF002084F83C0000BF0120BDE8F0810A
:10492000FFE7C5F3074001280AD120684069A9B212
:104930000840A9B2884201D101200BE0002009E023
:1049400020688069A9B20840A9B2884201D101203B
:1049500000E00020B842ABD00020DFE72DE9F041B5
:1049600004460D4616461F4658E020684069C0F3CD
:104970008020E8B12068006840F400702168086079
:104980006FF480602168486100202063202084F853
:104990003D00002084F83E00206C40F004002064BC
:1049A00000BF002084F83C0000BF0120BDE8F0817A
:1049B000701C90B3FDF798FFC01BB04200D866BBD7
:1049C000C5F3074001280AD120684069A9B2084010
:1049D000A9B2884201D101200BE0002009E0206843
:1049E0008069A9B20840A9B2884201D1012000E043
:1049F000002090B900202063202084F83D00002092
:104A000084F83E00206C40F02000206400BF0020AD
:104A100084F83C0000BF0120C8E7FFE7C5F307406A
:104A200001280AD120684069A9B20840A9B2884289
:104A300001D101200BE0002009E020688069A9B2C3
:104A40000840A9B2884201D1012000E000200028DE
:104A50008BD00020AAE770B504460D46164637E015
:104A600020684069C0F30010A0B16FF01000216809
:104A7000486100202063202084F83D00002084F855
:104A80003E00206C206400BF002084F83C0000BF82
:104A9000012070BDFDF728FF801BA84200D8BDB9DA
:104AA00020684069C0F3801090B900202063202066
:104AB00084F83D00002084F83E00206C40F0200087
:104AC000206400BF002084F83C0000BF0120E0E724
:104AD00020684069C0F380100028C1D00020D8E7CA
:104AE00070B504460D46164625E02046FFF765FDE5
:104AF00008B1012070BD681CE8B1FDF7F5FE801B10
:104B0000A84200D8BDB920684069C0F3C01090B970
:104B100000202063202084F83D00002084F83E001F
:104B2000206C40F02000206400BF002084F83C008E
:104B300000BF0120DEE720684069C0F3C0100028F4
:104B4000D3D00020D6E7000010B5002204210E4883
:104B5000FDF7C4FE642003F0C5FA012204210A48CF
:104B6000FDF7BCFEC82003F0BDFA00220421064870
:104B7000FDF7B4FE642003F0B5FA012204210248D7
:104B8000FDF7ACFE10BD0000000C014010B5002286
:104B900004210648FDF7A2FE642003F0A3FA0122D7
:104BA00004210248FDF79AFE10BD0000000C0140F0
:104BB0001CB5044600200190009001A93B2000F0A4
:104BC000C5F869463C2000F0C1F89DF800009DF84A
:104BD000041040EA012016490988401A00B22080DA
:104BE00001A93D2000F0B2F869463E2000F0AEF881
:104BF0009DF800009DF8041040EA01200D49098845
:104C0000401A00B2608001A93F2000F09FF8694679
:104C1000402000F09BF89DF800009DF8041040EA49
:104C2000012005490988401A00B2A0801CBD00007F
:104C300064020020680200206C02002010B50446C7
:104C4000204600F005F8A01DFFF7B2FF10BD0000E0
:104C50001CB5044600200190009001A9432000F0FB
:104C600075F86946442000F071F89DF800009DF841
:104C7000041040EA012016490988401A00B2208039
:104C800001A9452000F062F86946462000F05EF870
:104C90009DF800009DF8041040EA01200D490988A4
:104CA000401A00B2608001A9472000F04FF8694621
:104CB000482000F04BF89DF800009DF8041040EAF1
:104CC000012005490988401A00B2A0801CBD0000DF
:104CD00070020020740200207802002008B58021B4
:104CE0006B2000F045F80020009003E069466B203F
:104CF00000F02CF89DF800004028F7D100216B202F
:104D000000F036F818211B2000F032F800211C209A
:104D100000F02EF80021382000F02AF800216A2047
:104D200000F026F80121192000F022F801211A20B4
:104D300000F01EF801216B2000F01AF800216C2011
:104D400000F016F800F028F808BD00003EB5044653
:104D50000D464FF47A7001210B462246CDE90051F1
:104D60000290D1210148FDF7ADFE3EBDB802002002
:104D700013B584B004464FF47A70012105AA0B469E
:104D8000CDE9002102902246D0210248FEF754F8D6
:104D900006B010BDB80200202DE9F04F87B000200A
:104DA0000590069003900490824603A8FFF700FF49
:104DB0003AE005A8FFF7FCFEBDF91430BDF90CC0C0
:104DC000A3EB0C02002A01DB134600E05342B3F5CB
:104DD000C87F20DABDF91630BDF90EC0A3EB0C0177
:104DE000002901DB0B4600E04B42B3F5C87F12DA25
:104DF000BDF91830BDF910C0A3EB0C00002801DB91
:104E0000034600E04342B3F5C87F04DA0AF101002B
:104E100000F0FF0A01E04FF0000ADDE90501CDE9ED
:104E20000301062003F05EF9BAF1640FC1DB002034
:104E30000090019002900024002500260027804663
:104E4000814683461DE06846FFF7F8FEBDF906007F
:104E50000444BDF908000544BDF90A00A0F58040EE
:104E60000644BDF900000744BDF902008044BDF9C5
:104E700004008144062003F035F90BF1010000F035
:104E8000FF0BBBF1640FDEDB642094FBF0F00F49F5
:104E90000860642095FBF0F00D490860642096FBE3
:104EA000F0F00C490860642097FBF0F00A490860B4
:104EB000642098FBF0F009490860642099FBF0F049
:104EC0000749086007B0BDE8F08F000064020020C9
:104ED000680200206C020020700200207402002092
:104EE0007802002010B505220E49102000F0B0F81D
:104EF00005220D49302000F06FF9052209491020E4
:104F000000F0A6F8002109E00648405C064A525C21
:104F1000904201D0012010BD481CC1B20529F3DB2D
:104F20000020F8E75D0200205802002070B5C8207C
:104F3000FDF726FB02E00A20FDF722FBFFF7D2FF78
:104F40000128F8D000F052F85C211AA0FBF75FF9B5
:104F500028B15C2117A0FBF75AF9401C00E015A00E
:104F600005462F21FBF753F988B15C2111A0FBF70F
:104F70004EF928B15C210FA0FBF749F9401C00E075
:104F80000CA005462F21FBF742F9401C0BE05C21E9
:104F900008A0FBF73CF928B15C2106A0FBF737F924
:104FA000401C00E003A00446ED22214607A001F0CA
:104FB00007FC70BD696E746572666163655C496EFD
:104FC000745F5349323452312E6300005B25733ACB
:104FD00025645D202053493234523120496E697472
:104FE0002053756363657373210D0A0010B50022A9
:104FF0004FF480711448FDF771FC052213492A20F3
:1050000000F0EAF80121212000F008F90121222016
:1050100000F004F92821252000F000F911213120A9
:1050200000F0FCF80621262000F0F8F80F212020DF
:1050300000F0F4F8FF21272000F0F0F8012211021F
:105040000148FDF74BFC10BD00080140580200204C
:105050002DE9F04107460D461646002210210C4866
:10506000FDF73CFC384600F073FD8046002405E067
:10507000002000F06DFD2855601CC4B2B442F7DB7F
:10508000012210210248FDF729FC4046BDE8F081CD
:105090000008014070B50446002210210848FDF7C1
:1050A0001DFC204600F054FD002000F051FD054697
:1050B000012210210248FDF711FC284670BD0000B6
:1050C0000008014070B504460720FFF7E3FF0546DE
:1050D0002946272000F0A2F805F0400050B1112227
:1050E00021466120FFF7B4FFFF21E22000F096F88F
:1050F000002070BD0120FCE710B500224FF4807144
:105100001548FDF7EBFB05221449302000F064F848
:10511000052212492A2000F05FF80121212000F029
:105120007DF80121222000F079F80A21242000F0E6
:1051300075F82821252000F071F80621262000F0BE
:105140006DF80E21202000F069F8012211020248BA
:10515000FDF7C4FB10BD000000080140580200200C
:1051600070B5054600224FF480711A48FDF7B6FB72
:1051700011222946A02000F02FF801221102154823
:10518000FDF7ACFB0720FFF785FF044606E007208C
:10519000FFF780FF0446012002F0A4FF04F0200086
:1051A00018B904F010000028F1D02146272000F0A3
:1051B00035F804F0100028B1FF21E12000F02EF8AE
:1051C000012070BD04F0200008B10020F9E70120A3
:1051D000F7E70000000801402DE9F04107460C46C2
:1051E0001546002210210C48FDF778FB384600F0E8
:1051F000AFFC8046002605E014F8010B00F0A8FC87
:10520000701CC6B2AE42F7DB012210210248FDF746
:1052100065FB4046BDE8F0810008014070B50546D9
:105220000C46002210210848FDF758FB284600F0E4
:105230008FFC0646204600F08BFC0122102102481C
:10524000FDF74CFB304670BD0008014008B500205A
:10525000009069460348008800F0C9FFBDF80000CF
:1052600008BD00007C0200200EB500224FF48051E2
:105270003048FDF733FB022002F034FF0122110316
:105280002C48FDF72BFB022002F02CFF002002909F
:105290000190009002AA40F20F112748008801F007
:1052A00003FA9DF8081025A001F08AFA02AA4FF42B
:1052B00088712148008801F0F7F99DF8081025A0B1
:1052C00001F07EFA01AA40F20F111B48008801F09C
:1052D000FFF9BDF8041026A001F072FA07E0694654
:1052E0001548008800F048FF022002F0FBFE9DF800
:1052F00000000028F3D022A001F062FA0E480088D6
:1053000001F00EF802210C48008801F045F8142144
:105310000948008801F0D8F814210748008801F0F6
:10532000A7F81BA001F04CFA0348008801F0A5F98A
:105330000EBD0000000C01407C020020564C3533AD
:105340004C3158204D6F64656C5F49443A202558B4
:105350000A000000564C35334C3158204D6F6475AF
:105360006C655F547970653A2025580A000000008A
:10537000564C35334C31583A2025580A000000006D
:105380004368697020626F6F7465640A00000000F2
:10539000564C35334C315820556C747261204C6931
:1053A000746520447269766572204578616D706C11
:1053B000652072756E6E696E67202E2E2E0A0000B3
:1053C00010B5002220210348FDF788FA0248FDF7B6
:1053D0003FF810BD000C0140880200202DE9FC5F61
:1053E0000F48FCF757FF01900198FBF78FF98046B3
:1053F0004FF066320B4BFBF789F8064600220A4B4A
:10540000FBF7F6F8044600224FF08043FBF77EF8E6
:105410008246FBF705FA00900098BDE8FC9F00006B
:105420008802002066660A4000FEAF4010B50446C0
:10543000A1882068FDF748FA10BD10B50446A18880
:1054400001222068FDF74AFA10BD10B50446A18874
:1054500000222068FDF742FA10BD000070B5044636
:10546000B4F90600B0F57A7F35DD5C212AA0FAF7A1
:10547000CEFE28B15C2128A0FAF7C9FE401C00E04E
:1054800025A006462F21FAF7C2FE88B15C2122A092
:10549000FAF7BDFE28B15C211FA0FAF7B8FE401C48
:1054A00000E01DA006462F21FAF7B1FE401C0BE0DC
:1054B0005C2119A0FAF7ABFE28B15C2116A0FAF71F
:1054C000A6FE401C00E014A005460C22294618A0A8
:1054D00001F076F970BDA08828B9B4F906002168FA
:1054E0000968486316E0A088042805D1B4F90600CD
:1054F0002168096888630DE0A088082805D1B4F9FF
:10550000060021680968C86304E0B4F90600216850
:105510000968086400BFDDE7696E746572666163DF
:10552000655C496E745F6D6F746F722E630000006E
:105530005B25733A25645D20206D6F746F72207354
:105540007065656420697320746F6F206269670DF0
:105550000A00000010B50446A08820B90020216888
:105560000968486313E0A088042804D1002021685A
:10557000096888630BE0A088082804D1002021680E
:105580000968C86303E00020216809680864A188ED
:105590002068FEF7C9FE10BD0EB5002000900190F6
:1055A00002901348134908600021124881600121CC
:1055B0000173002101754FF46021C16100200D4984
:1055C000486001210B480161FCF768FE08B1FCF757
:1055D000AEFD092000900120019002200290694652
:1055E0000448FCF7A7FD08B1FCF7A1FD0EBD0000C3
:1055F000002401408802002000B585B00020019001
:1056000002900390049000BF3048806940F0100081
:105610002E4988610846806900F01000009000BFA4
:1056200000BF00BF0846806940F02000886108463E
:10563000806900F02000009000BF00BF00BF084656
:10564000806940F0040088610846806900F0040029
:10565000009000BF00BF00BF0846806940F008000E
:1056600088610846806900F00800009000BF00BF14
:10567000012241F610011648FDF730F901224DF2E2
:1056800024011448FDF72AF900224FF480711048D4
:10569000FDF724F941F6101001900120029000203E
:1056A00003900220049001A90948FCF77DFF4DF208
:1056B0002400019001200290002003900220049019
:1056C00001A90448FCF770FF05B000BD00100240BE
:1056D00000080140000C014010B50B480B49086060
:1056E0000B484860002109488160C1604FF4804147
:1056F0000161002141618161C1610162FDF7FAF838
:1057000008B1FCF714FD10BD00540040B8020020A1
:10571000801A060010B50B480B4908600B4848601A
:10572000002109488160C1604FF48041016100217E
:1057300041618161C1610162FDF7DCF808B1FCF7EC
:10574000F6FC10BD005800400C030020801A060033
:1057500010B50E480E4908604FF482704860002171
:105760000B488160C160016141614FF4007181614A
:105770001021C16100210162416281620A21C1627E
:10578000FEF724F908B1FCF7D2FC10BD003001404F
:105790006003002000B595B0002011901290139086
:1057A00014900F9010901C2108A8FAF71EFD2021DC
:1057B0006846FAF71AFD2B482B4908600320486019
:1057C00000212948816040F2E731C1600021016178
:1057D00041618161FEF756FB08B1FCF7A8FC4FF46C
:1057E0008050119011A92048FEF7D2FB08B1FCF7B8
:1057F0009EFC1D48FEF764FD08B1FCF798FC0020F4
:105800000F9010900FA91848FEF7FAFA08B1FCF7AC
:105810008EFC60200890002009900A900B900C905C
:105820000D900E90082208A90F48FEF7C7FC08B19A
:10583000FCF77DFC00200090019002900390049002
:105840004FF4005005900020079069460648FEF787
:105850009DFA08B1FCF76BFC0348FEF71FFC15B07E
:1058600000BD0000002C0140B803002000B58DB041
:10587000002009900A900B900C90079008901C2132
:105880006846FAF7B2FC4FF080401F4908600320D9
:10589000486000211C48816040F2E731C16000216E
:1058A00001618161FEF7EEFA08B1FCF740FC4FF4AC
:1058B0008050099009A91448FEF76AFB08B1FCF76B
:1058C00036FC1148FEF7FCFC08B1FCF730FC002068
:1058D0000790089007A90C48FEF792FA08B1FCF768
:1058E00026FC602000900020019002900490042289
:1058F00069460548FEF762FC08B1FCF718FC02484F
:10590000FEF7CCFB0DB000BD0004002000B58DB04B
:10591000002009900A900B900C90079008901C2191
:105920006846FAF762FC2048204908600320486076
:1059300000211E48816040F2E731C1600021016111
:105940008161FEF79FFA08B1FCF7F1FB4FF480503C
:10595000099009A91548FEF71BFB08B1FCF7E7FB06
:105960001248FEF7ADFC08B1FCF7E1FB0020079000
:10597000089007A90D48FEF743FA08B1FCF7D7FBDA
:10598000602000900020019002900490002269465F
:105990000648FEF713FC08B1FCF7C9FB0348FEF705
:1059A0007DFB0DB000BD0000000400404804002055
:1059B00000B58DB0002009900A900B900C900790D4
:1059C00008901C216846FAF710FC2048204908601E
:1059D0000320486000211E48816040F2E731C16029
:1059E000002101618161FEF74DFA08B1FCF79FFBD0
:1059F0004FF48050099009A91548FEF7C9FA08B17B
:105A0000FCF795FB1248FEF75BFC08B1FCF78FFB37
:105A100000200790089007A90D48FEF7F1F908B19A
:105A2000FCF785FB6020009000200190029004901C
:105A30000C2269460648FEF7C1FB08B1FCF777FB6C
:105A40000348FEF72BFB0DB000BD0000000800402E
:105A50009004002010B50B480B4908604FF4E1306A
:105A60004860002108488160C16001610C214161EA
:105A700000218161C161FEF7C1FC08B1FCF757FB51
:105A800010BD000000440040D804002000BFFEE725
:105A900000BFFEE72DE9F05F04464FF07F594FF05D
:105AA0007C512046FAF71BFC824625462E460C48C0
:105AB000A0EB6606354629465046FAF710FC8346A9
:105AC0002946FAF70CFC80464946FAF705FC0746DA
:105AD0002946FAF704FC05462846BDE8F09F000079
