:020000040800F2
:10000000F80E0020193C0008213C0008233C0008A1
:10001000253C0008273C0008293C0008000000009F
:100020000000000000000000000000002B3C000861
:100030002D3C0008000000002F3C0008012B0008A8
:10004000333C0008333C0008333C0008333C0008D4
:10005000333C0008333C0008333C0008333C0008C4
:10006000333C0008333C0008333C0008333C0008B4
:10007000333C0008333C0008333C0008333C0008A4
:10008000333C0008333C0008333C0008092B0008CF
:100090000B2B0008333C0008333C0008333C0008BD
:1000A000333C0008333C0008333C0008333C000874
:1000B000333C0008333C0008333C0008333C000864
:1000C000333C0008333C0008333C0008333C000854
:1000D000333C0008F92A0008333C0008333C000890
:1000E000333C0008333C0008333C0008DFF80CD0F8
:1000F00008F072FD0048004717010008F80E0020C4
:1001000010B5012145F21D2003F0F6FF01212F4813
:1001100003F0FFFF10BDFFF7F3FF4FF4407004F052
:100120004FF802F038FD00F0CBFE03F019FA02F0B0
:1001300039FF02F0CFFE264908700846007840B12A
:1001400024480178042002F056FE0020224908715C
:1001500002E001202049087102F054FD03F0F0F99B
:1001600003F062FB01F009F91C4800684FF4FA72D1
:10017000B0FBF2F1B1F1807F00D31DE021F07F40B0
:10018000401E4FF0E022506150170F22002807DA7E
:1001900013071D0E124B00F00F04241F1D5503E022
:1001A00013071C0E0F4B1C5400BF00204FF0E02221
:1001B00090610720106100BF07E00748407820B138
:1001C00002F037FC002004494870F6E702002400E2
:1001D00000000020D2020020E40600207C00002065
:1001E00018ED00E000E400E010B56E48008A6E49AA
:1001F000088108460089B0F5AC7F07DC0846008915
:10020000B0F5A07F02DD0120C87002E00020664941
:10021000C87066480088664908800846008800B2B1
:10022000604948820020614908806148008858B9C7
:100230000221604804F01FFC00205B49487188716E
:1002400008708881887006E002215A4804F011FC89
:1002500001205549887110BD10B5012052494870E0
:1002600002F0A5FD5448007820B1002153480088D1
:1002700000F0C8FD10BD10B503F09DFB10BD10B51A
:1002800003F0F4FA02F08BFB4D480068401C4C4927
:1002900008604548807908B900F059FC10BD10B5D8
:1002A0004848007801280CD147480078212804DA12
:1002B00045480178401C02F063FD00204149087068
:1002C00001E000F091FB10BD10B502F022FE3F48A6
:1002D000007848B13E4801783E4803F056F903F0F3
:1002E00066F900203949087000F0C2FA10BD10B557
:1002F00039480088012804DBFFF7E6FF0020364973
:10030000088036480088022804DBFFF7C8FF002079
:100310003249088032480088052804DBFFF7AFFF28
:1003200000202F4908802F4800880A2804DBFFF7A7
:10033000A2FF00202B4908802B480088192804DBE5
:10034000FFF78AFF00202849088028480088B0F578
:10035000FA7F04DBFFF748FF00202449088010BD26
:1003600010B51D480088401C1B4908801B480088A8
:10037000401C1A4908801A480088401C1849088007
:1003800018480088401C1749088017480088401CFE
:100390001549088015480088401C14490880FFF75B
:1003A000A6FF10BDCA010020E40600205E00002068
:1003B0005C000020000C01403800002030000020CC
:1003C00048000020DA0000205609002060000020CC
:1003D0005A00002004070020020000200400002032
:1003E00006000020080000200A0000200C00002069
:1003F000B0F9041040F2D252914208DDB0F9041075
:1004000040F2E652914202DA40F2DC518180B0F9CA
:10041000061040F2D252914208DDB0F9061040F2C7
:10042000E652914202DA40F2DC51C180B0F902108A
:1004300040F2D252914208DDB0F9021040F2E65289
:10044000914202DA40F2DC5141807047B0F900106D
:10045000B1F57A7F02DC4FF47A7101E0B0F9001057
:100460000180B0F90010B1F5FA6F02DB4FF4FA61C8
:1004700001E0B0F900100180B0F90410B1F57A7F05
:1004800002DC4FF47A7101E0B0F904108180B0F918
:100490000410B1F5FA6F02DB4FF4FA6101E0B0F934
:1004A00004108180B0F90610B1F57A7F02DC4FF4B8
:1004B0007A7101E0B0F90610C180B0F90610B1F50B
:1004C000FA6F02DB4FF4FA6101E0B0F90610C18067
:1004D000B0F90210B1F57A7F02DC4FF47A7101E0D5
:1004E000B0F902104180B0F90210B1F5FA6F02DBE9
:1004F0004FF4FA6101E0B0F902104180B0F9081040
:10050000B1F57A7F02DC4FF47A7101E0B0F908109E
:100510000181B0F90810B1F5FA6F02DB4FF4FA610E
:1005200001E0B0F908100181B0F90A10B1F57A7F45
:1005300002DC4FF47A7101E0B0F90A104181B0F9A0
:100540000A10B1F5FA6F02DB4FF4FA6101E0B0F97D
:100550000A104181B0F90C10B1F57A7F02DC4FF43A
:100560007A7101E0B0F90C108181B0F90C10B1F58D
:10057000FA6F02DB4FF4FA6101E0B0F90C108181EF
:100580007047FE490A68091DFD4B1B7831F81310AE
:10059000511AFA4A1160FB490A68091DF84B1B7889
:1005A00031F81310511AF74A1160F7490A68091D0A
:1005B000F34B1B7831F81310511AF34A1160F349C9
:1005C0000A68091DEE4B1B7831F81310511AEF4AD7
:1005D0001160EF490A68091DE94B1B7831F81310C7
:1005E000511AEB4A1160EB490A68091DE44B1B786C
:1005F00031F81310511AE74A1160E7490A68091DDA
:10060000DF4B1B7831F81310511AE34A116001884F
:100610008AB2DA49091DDA4B1B7821F81320418888
:100620008AB2D849091DD64B1B7821F81320C188FE
:100630008AB2D549091DD24B1B7821F81320818835
:100640008AB2D249091DCE4B1B7821F813200189AB
:100650008AB2CF49091DCA4B1B7821F81320818922
:100660008AB2CC49091DC64B1B7821F81320018A98
:100670008AB2C949091DC24B1B7821F81320BF4912
:100680000A68091DBE4B1B7831F813101144BB4A90
:100690001160BC490A68091DB94B1B7831F8131069
:1006A0001144B84A1160B8490A68091DB44B1B7857
:1006B00031F813101144B44A1160B4490A68091D95
:1006C000AF4B1B7831F813101144B04A1160B04998
:1006D0000A68091DAA4B1B7831F813101144AC4A63
:1006E0001160AC490A68091DA54B1B7831F813103D
:1006F0001144A84A1160A8490A68091DA04B1B783B
:1007000031F813101144A44A11609C4909680A2267
:10071000B1FBF2F109B201809A490968B1FBF2F12B
:1007200009B2418098490968B1FBF2F109B2C18070
:1007300096490968B1FBF2F109B2818094490968D0
:10074000B1FBF2F109B2018192490968B1FBF2F102
:1007500009B2818190490968B1FBF2F109B20182C5
:1007600087490978491C864A1170114609780A2977
:1007700001D100211170704710B5044687484078B8
:10078000002873D08648007890B900208349C8803B
:1007900008818880488001208149087000208149B3
:1007A000086081490860814908608149086010BD7E
:1007B0007B480078401C7A490870B4F900007949F8
:1007C0000968084477490860B4F902007649096865
:1007D000084475490860B4F904007449096808447C
:1007E00072490860B4F90600714909680844704903
:1007F00008606B480078332838D169480078401E7B
:100800006749087067480068097890FBF1F0A0F527
:100810007A706249C880644800686149097890FB31
:10082000F1F0A0F2DC5080B25C49088108825F4898
:1008300000685B49097890FBF1F0A0F2DC5080B2CF
:1008400056498880C8815A4800685549097890FB04
:10085000F1F0A0F2DC5080B250494880888100203D
:100860004F4908704D49487000F016FB00BF9EE7E5
:100870002DE9F0474F49488808F068F805464FF0E1
:100880007A5107F06BFE044608F076F800F57A70AE
:100890004249C988401A00B2474908804549C8887A
:1008A00008F054F805464FF07A5107F057FE044619
:1008B00008F062F800F57A7038498988401A00B269
:1008C0003D4988803B49088808F040F805464FF0CC
:1008D0007A5107F043FE044608F04EF8C0F5FA607E
:1008E0002E490989401A00B2334948803149888825
:1008F00008F02CF805464FF07A5107F02FFE044619
:1009000008F03AF800F57A7024494988401A00B294
:100910002949C8802148408800F2DC5000B2088193
:100920001E48808800F2DC5000B288812149088A84
:1009300008F00CF880461F49C88908F007F881467E
:100940004FF0804107F00AFE0746414607F038FEA7
:1009500006461A4907F002FE0546194907F0FEFD52
:10096000044608F009F82C3000B213490882084602
:10097000FFF707FE1048FFF7FFFE23E0E00100202D
:10098000100000202802002010020020F8010020A2
:10099000400200207002002088020020D2020020C5
:1009A0001100002014000020180000201C0000206E
:1009B0002000002044090020CA0100209A99993F94
:1009C0000000C8420348FFF741FD0248FFF710FD51
:1009D000BDE8F087CA01002070B504460D462946DF
:1009E000204602F0CDF970BD70B50024AA22214640
:1009F000641CFB484254AF222146641C425403222B
:100A00002146641C425400222146641C4254F5488D
:100A100042782146641CF2484254F248027821464A
:100A2000641CEF484254EF48C2782146641CEC48ED
:100A30004254EC4882782046611CCCB2E8490A5402
:100A4000E848C2792046611CCCB2E5490A54E54821
:100A500082792046611CCCB2E1490A54E1484279CE
:100A60002046611CCCB2DE490A54DE480279204699
:100A7000611CCCB2DA490A54DA48427A2046611C39
:100A8000CCB2D7490A54D748027A2046611CCCB26E
:100A9000D3490A54D348C27A2146601CC4B2D04814
:100AA0004254D048827A2046611CCCB2CC490A54C8
:100AB000CC48427B2046611CCCB2C9490A54C94883
:100AC000027B2046611CCCB2C5490A54C548C27B92
:100AD0002046611CCCB2C2490A54C248827B2046DF
:100AE000611CCCB2BE490A54BE48427C2046611CFF
:100AF000CCB2BB490A54BB48027C2046611CCCB234
:100B0000B7490A54B748C27C2046611CCCB2B449EC
:100B10000A54B448827C2046611CCCB2B0490A54C5
:100B2000201FC8700025002005E0AD49095C29445C
:100B3000CDB2411CC8B2A042F7DB2046611CCCB24A
:100B4000A7490D542146A648FFF746FF70BD70B572
:100B50000024AA222146641CA14842542146641C58
:100B6000425403222146641C425400222146641C44
:100B700042549C4842782146641C99484254994802
:100B800002782146641C964842549648C278214611
:100B9000641C93484254934882782046611CCCB22E
:100BA0008F490A548F48C2792046611CCCB28C49C7
:100BB0000A548C4882792046611CCCB288490A5478
:100BC000884842792046611CCCB285490A54854840
:100BD00002792046611CCCB281490A548148427A8C
:100BE0002046611CCCB27E490A547E48027A2046D7
:100BF000611CCCB27A490A547A48C27A2146601CF8
:100C0000C4B2774842547748827A2046611CCCB2FD
:100C100073490A547348427B2046611CCCB2704928
:100C20000A547048027B2046611CCCB26C490A54BD
:100C30006C48C27B2046611CCCB269490A546948A1
:100C4000827B2046611CCCB265490A546548427CCF
:100C50002046611CCCB262490A546248027C20469C
:100C6000611CCCB25E490A545E48C27C2046611CBD
:100C7000CCB25B490A545B48827C2046611CCCB2F2
:100C800057490A54201FC8700025002005E0544928
:100C9000095C2944CDB2411CC8B2A042F7DB204612
:100CA000611CCCB24E490D5421464D4802F06DFCFA
:100CB00002F07DFC70BD2DE9F047044689464FF0F7
:100CC000000A002005E0215C514401F0FF0A411CAC
:100CD000C8B2A9F101018142F5DC04EB090010F86A
:100CE000010C504501D0BDE8F0872078AA2802D138
:100CF0006078AA2800D0F6E7A07801284CD12179A5
:100D0000090209B2627941EA020007F024FE0746AF
:100D1000354A364B07F039FD054607F041FE3449A8
:100D20000861A179090209B2E27941EA020007F0FB
:100D300012FE07462C4A2D4B07F027FD054607F00B
:100D40002FFE2B494861217A090209B2627A41EAF1
:100D5000020007F000FE0546234A244B07F015FD6C
:100D6000074607F01DFE22498861A17A0906E27A4A
:100D700041EA0241227B41EA0221627B41EA020010
:100D800007F0E9FD05461B4A1B4B07F0FEFC074632
:100D900007F006FE1649C861A07805281ED1207903
:100DA000617941EA002012494881207A0870607A0E
:100DB0004871A07AE17A41EA00200D498881207BC0
:100DC000617B41EA00200A49C8810846C0890B4975
:100DD0000988884202D100200949087000BF82E7D3
:100DE000A0020020CA0100209A9999999999B93FC7
:100DF000E40600207B14AE47E17A843F30000020F7
:100E0000380000202DE9F84306460F460024A0468E
:100E1000AA222146641C1F484254AF222146641C6A
:100E20004254F1222146641C425400222146641C93
:100E3000425400969DF801202146641C42549DF8BE
:100E400000202146641C425400979DF80120214651
:100E5000641C42549DF800202046611CCCB20D4910
:100E60000A54201FC870002506E00A48405D40442F
:100E700000F0FF08681CC5B2A542F6DB2046611CE5
:100E8000CCB2044901F8008020210248FFF7A4FDFC
:100E9000BDE8F883A002002010B512210E4802F030
:100EA0008EFC10BD10B500200B49087048704880BA
:100EB00088800881C88044204881FFF7EDFF10BD7D
:100EC00010B51221044802F05BFC03484089442815
:100ED00001D0FFF7E7FF10BDD202002010B50A468F
:100EE00022B14FF48053FB4C236004E04FF4805355
:100EF000F84C241D2360002119E04FF40053F54CF9
:100F0000241D236000F0800323B14FF40043241F0D
:100F1000236004E04FF40043EE4C241D23604FF4A3
:100F20000053EC4C23604306180E4B1CD9B2082921
:100F3000E3DB4FF48053E74C236010BD30B5002451
:100F40001CE004F1B001C8B20021FFF7C7FF002187
:100F50000846FFF7C3FF00211020FFF7BFFF002561
:100F600008E0DD4901EBC501085D0121FFF7B6FF8F
:100F7000681CC5B2802DF4DB601CC4B2082CE0DB19
:100F800030BD00B500218D20FFF7A8FF00211420FF
:100F9000FFF7A4FF0021AF20FFF7A0FF00BD00B5C1
:100FA00000218D20FFF79AFF00211020FFF796FF08
:100FB0000021AE20FFF792FF00BD30B500240CE009
:100FC000002506E00020C44901EBC5010855681C56
:100FD000C5B2802DF6DB601CC4B2082CF0DBFFF735
:100FE000ADFF30BDF0B5144600267F2801DC3F2957
:100FF00000DDF0BD0B46CF1701EB5777FF10C7F1AF
:101000000707FAB2CF1701EB5777FF10A1EBC7071D
:10101000FDB2C5F107070123BB40DEB24CB1AE4BB8
:1010200003EBC0039B5C3343AB4F07EBC007BB54E0
:1010300008E0A94B03EBC0039B5CB343A64F07EB4F
:10104000C007BB5400BFD4E72DE9F04F80460C46E3
:1010500015461E46A346A5F12000C5B200273EE076
:101060000C2E07D105EB45009C4901EB800010F8E0
:10107000079004E09A4800EB051010F807904FF035
:10108000000A26E009F0800028B121464046099A6E
:10109000FFF7A8FF09E0099808B9012000E0002047
:1010A000024621464046FFF79DFF4FEA49604FEA5E
:1010B0001069601CC4B2A4EB0B00B04205D15C46C1
:1010C00008F1010000F0FF0806E00AF1010000F05D
:1010D000FF0ABAF1080FD5DB00BF781CC7B2B742D0
:1010E000BEDBBDE8F08F2DE9F04F07460C46904679
:1010F0001D46A346002634E008EB4800794901EB81
:10110000800010F806904FF0000A24E009F08000FB
:1011100028B121463846099AFFF764FF09E009988B
:1011200008B9012000E00020024621463846FFF7BA
:1011300059FF4FEA49604FEA1069601CC4B2A4EB42
:101140000B00A84203D15C46781CC7B206E00AF146
:10115000010000F0FF0ABAF1080FD7DB00BF701CD6
:10116000C6B2AE42C8DBBDE8F08F2DE9F8430646B3
:101170000F4614461D46DDF82090012000906006C1
:10118000020E2B4639463046FFF7ADFF0120A84638
:1011900005EBD87106EB61010090C8B2012101EBAB
:1011A0004401CAB22B463946FFF79DFFBDE8F883DC
:1011B0002DE9F04F07460C4690461D46A3460026F3
:1011C0002FE018F806904FF0000A24E009F08000A4
:1011D00028B121463846099AFFF704FF09E009982B
:1011E00008B9012000E00020024621463846FFF7FA
:1011F000F9FE4FEA49604FEA1069601CC4B2A4EBE3
:101200000B00A84203D15C46781CC7B206E00AF185
:10121000010000F0FF0ABAF1080FD7DB00BF701C15
:10122000C6B2AE42CDDBBDE8F08F10B5024601205C
:1012300000E050430B1EA1F10104E1B2F9D110BD51
:101240002DE9FF4F81B0074691461E460E9D4FF097
:10125000000A002439E0301B401EC1B20A20FFF70B
:10126000E4FFB9FBF0F00A21B0FBF1F201FB120838
:10127000BAF1000F16D1701EA04213DDB8F1000FB5
:101280000ED10120AB4605EBDB71491001FB047167
:101290000090C8B22B4620220299FFF7D5FE12E03B
:1012A0004FF0010A0120AB4605EBDB71491001FB51
:1012B00004710090C8B208F13001CAB22B460299FD
:1012C000FFF7C2FE00BF601CC4B2B442C3DB05B06E
:1012D000BDE8F08F100C0140E4020020D09300081C
:1012E00044980008349E00082DE9F84105460E4652
:1012F00014461F46DDF81C8018E07A2D03DD00251A
:1013000006F11000C6B23A2E04DD0020054606465E
:10131000FFF753FECDF8008022783B463146284641
:10132000FFF792FE05F10800C5B2641C2078002882
:10133000E3D1BDE8F88178B505460E46144618E0BD
:101340007A2D03DD002506F11000C6B23A2E04DD29
:10135000002005460646FFF730FE01200090227867
:10136000102331462846FFF76FFE05F10800C5B28D
:10137000641C20780028E3D178BD38B5012108200D
:1013800002F0BAFE0121084602F0B6FE01216648CD
:1013900003F093FB4FF42040ADF8000010208DF8CF
:1013A000030003208DF802006946604803F0B4FA98
:1013B0004FF420415D4803F05CFB4FF4A040ADF8D2
:1013C000000010208DF8030003208DF8020069460C
:1013D000564803F0A1FA4FF48041544803F049FB0A
:1013E0004FF48040514910310860C82001F073FB70
:1013F0004FF480404D4914310860C82001F06BFB68
:101400004FF48040494910310860C82001F063FB67
:101410000021AE20FFF762FD00210846FFF75EFDC8
:1014200000211020FFF75AFD00214020FFF756FD54
:1014300000218120FFF752FD0021FF20FFF74EFD24
:101440000021A120FFF74AFD0021C820FFF746FD3B
:101450000021A620FFF742FD0021A820FFF73EFD56
:1014600000213F20FFF73AFD0021D320FFF736FD92
:1014700000210846FFF732FD0021D520FFF72EFDA1
:1014800000218020FFF72AFD0021D920FFF726FD4B
:101490000021F120FFF722FD0021DA20FFF71EFDD9
:1014A00000211220FFF71AFD0021DB20FFF716FDB7
:1014B00000214020FFF712FD00212020FFF70EFD44
:1014C00000210220FFF70AFD00218D20FFF706FD15
:1014D00000211420FFF702FDFFF76FFD0021AF2070
:1014E000FFF7FCFC002419E004F1B001C8B20021B0
:1014F000FFF7F4FC00210846FFF7F0FC0021102064
:10150000FFF7ECFC002505E00121FF20FFF7E6FCDA
:10151000681CC5B2802DF7DB601CC4B2082CE3DB6D
:1015200000200349887038BD00023000000C0140E3
:10153000E40600202DE9F84F04460E4690461F466B
:10154000DDE90B5ADDF828900D2C7ED2DFE804F09F
:10155000071019222B343D464F58616A7400301928
:10156000C2B22B46494638460095FFF7FEFD74E0AF
:101570003019C2B22B46494638460095FFF7F5FDB3
:101580006BE03019C2B22B46494638460095FFF74A
:10159000ECFD62E03019C2B22B4649463846009550
:1015A000FFF7E3FD59E03019C2B22B4649463846F1
:1015B0000095FFF7DAFD50E03019C2B22B464946DC
:1015C00038460095FFF7D1FD47E03019C2B22B46EF
:1015D000494638460095FFF7C8FD3EE03019C2B2D3
:1015E0002B46494638460095FFF7BFFD35E03019D8
:1015F000C2B22B46494638460095FFF7B6FD2CE0AF
:101600003019C2B22B46494638460095FFF7ADFD6A
:1016100023E03019C2B22B46494638460095FFF701
:10162000A4FD1AE03019C2B22B464946384600954F
:10163000FFF79BFD11E008E03019C2B22B46494686
:1016400038460095FFF791FD07E02B464246494694
:1016500038460095FFF789FD00BF00BFBDE8F88F51
:1016600000B587B0FE480078FE490978884205D069
:10167000FB480078FB490870FFF79FFCFA48C078E8
:10168000B0B3FA480078401CF84908700846007862
:1016900003280BDD00200870F548007818B90120F8
:1016A000F349087002E00020F1490870002004901E
:1016B0001AE0EF4800780090049800EB4000ED49F4
:1016C00001EB80000390049800EB40001D2101EB2A
:1016D0004000C0B20C2302900021039AFFF768FD7E
:1016E0000498401CC0B2049004980C28E1DB6DE023
:1016F000FFE7DD48007B00F02000B0B3DB48007856
:10170000401CDA4908700846007803280BDD0020E9
:101710000870D748007818B90120D549087002E050
:101720000020D3490870002004901AE0D0480078C7
:101730000090049800EB4000CF4901EB800003903B
:10174000049800EB40001D2101EB4000C0B20C23C7
:1017500002900021039AFFF72BFD0498401CC0B2B1
:10176000049004980C28E1DB30E0FFE701200C2313
:101770000022114600901D20FFF7F7FC01200C23EA
:101780000246002100902920FFF7EFFC01200C23E6
:101790000222002100903520FFF7E7FC01200C23F6
:1017A0000322002100904120FFF7DFFC01200C23E1
:1017B0000422002100904D20FFF7D7FC01200C23CC
:1017C0000522002100905920FFF7CFFCA6480079A0
:1017D00040B101200C230622002100900220FFF7D7
:1017E000C4FC0AE00C200090A448007803230246C1
:1017F000002104900220FFF723FD9B48407914212B
:1018000090FBF1F0C0B206900698052831D2DFE8CF
:1018100000F0030C151E270001200C2306220021D6
:1018200000907220FFF7A1FC2CE001200C2307227E
:10183000002100907220FFF798FC23E001200C2388
:101840000822002100907220FFF78FFC1AE001208F
:101850000C230922002100907220FFF786FC11E082
:1018600001200C230A22002100907220FFF77DFC4A
:1018700008E001200C230B22002100907220FFF7CA
:1018800074FC00BF00BF01200C237DA20E2100903C
:101890000520FFF729FD01200C237BA20E210090DB
:1018A0002920FFF721FD70480089642190FBF1F0A9
:1018B00004900C20012300900E212320049AFFF7AE
:1018C000BFFC69480089642190FBF1F201FB120022
:1018D00004900C20022300900E212F20049AFFF781
:1018E000AFFC61480089642190FBF1F201FB12001A
:1018F0000A2807DA0C20012300220E2100902F2055
:10190000FFF79EFC01200C2360A20E2100904520D1
:10191000FFF7EAFC01200C235BA20E210090692056
:10192000FFF7E2FC50484089642190FBF1F00490FD
:101930000C20012300900E216320049AFFF780FC05
:1019400049484089642190FBF1F201FB12000490A8
:101950000C20022300900E216F20049AFFF770FCE8
:1019600041484089642190FBF1F201FB12000A28F2
:1019700007DA0C20012300220E2100906F20FFF7D0
:101980005FFC01200C2343A21A2100900520FFF7E1
:10199000ABFC4248B0F90000A0F57A70292190FB19
:1019A000F1F0C0B2069001200C211A222423CDE9C7
:1019B0000021029018220698FFF7BCFD3748B0F9C5
:1019C0000000A0F2DC50292190FBF1F0C0B206909B
:1019D00001200C211A223023CDE9002102900A4671
:1019E0000698FFF7A7FD01200C232DA21A210090D5
:1019F0004520FFF779FC2948B0F90600A0F57A7078
:101A0000292190FBF1F0C0B2069001200C211A228E
:101A10006423CDE90021029018220698FFF78AFD81
:101A20001E48B0F90600A0F2DC50292190FBF1F02D
:101A3000C0B2069001200C211A227023CDE90021AA
:101A400002900A460698FFF775FD01200C2316A2A6
:101A5000262100900520FFF747FC104828E00000F1
:101A6000390000203A000020E40600203B0000205E
:101A70003C00002058A70008E8A70008D202002078
:101A8000522D563A000000002E000000462D563A16
:101A9000000000005448523A00000000CA01002033
:101AA000524F4C3A000000005941573A00000000E4
:101AB000B0F90200A0F57A70292190FBF1F0C0B2D4
:101AC000069001200C2126222423CDE9002102903A
:101AD00018220698FFF72EFDFC48B0F90200A0F28C
:101AE000DC50292190FBF1F0C0B2069001200C21BE
:101AF00026223023CDE9002102900A460698FFF7FE
:101B000019FD01200C23F2A2262100904520FFF7A9
:101B1000EBFBEE48B0F90400A0F57A70292190FBA8
:101B2000F1F0C0B2069001200C2126226423CDE9F9
:101B30000021029018220698FFF7FCFCE348B0F958
:101B40000400A0F2DC50292190FBF1F0C0B2069015
:101B500001200C2126227023CDE9002102900A46A3
:101B60000698FFF7E7FCDC48407900287DD0DA488A
:101B70000078012879D1D9490870D7480069002830
:101B80000CDAD54800694042059001200C23D4A20C
:101B9000322100900020FFF7A7FB0AE0CE48006941
:101BA000059001200C23CFA2322100900020FFF7E6
:101BB0009BFB0A21059890FBF1F004900C20032375
:101BC000009032210820049AFFF73AFB01200C23F1
:101BD000AFF24C12322100901C20FFF785FB0A2146
:101BE000059890FBF1F201FB120004900C200123F8
:101BF000009032212020049AFFF722FBB64840696A
:101C000000280CDAB44840694042059001200C23BA
:101C1000B3A2322100903320FFF766FB0AE0AE4802
:101C20004069059001200C23AEA2322100903320A0
:101C3000FFF75AFB0A21059890FBF1F004900C2065
:101C40000323009032213B20049AFFF7F9FA012088
:101C50000C23AFF2CC12322100904F20FFF744FB4F
:101C60000A21059890FBF1F200E03EE001FB120032
:101C700004900C200123009032215320049AFFF796
:101C8000DFFA9548C06900280CDA9348C0694042E1
:101C9000059001200C2392A2322100906720FFF7CB
:101CA00023FB0AE08C48C069059001200C238DA21B
:101CB000322100906720FFF717FB0598B0F57A7F77
:101CC0000ADB40F2E730059001200C2386A2322186
:101CD00000906720FFF708FB0C20032300903221BF
:101CE0006F20059AFFF7ACFA92E002207B4908705A
:101CF00001200C237DA2322100900220FFF7F4FA8C
:101D00007B484088A0F57A70292190FBF1F0C0B2A1
:101D1000069001200C2132221123CDE900210290EE
:101D200018220698FFF706FC71484088A0F2DC50A4
:101D3000292190FBF1F0C0B2069001200C21322243
:101D40001D23CDE9002102900A460698FFF7F2FB19
:101D500001200C2367A2322100902E20FFF7C4FA45
:101D600063480089A0F57A70292190FBF1F0C0B298
:101D7000069001200C2132223D23CDE90021029062
:101D800018220698FFF7D6FB59480089A0F2DC50CC
:101D9000292190FBF1F0C0B2069001200C213222E3
:101DA0004923CDE9002102900A460698FFF7C2FBBD
:101DB00001200C2350A2322100905A20FFF794FA00
:101DC0004B488088A0F57A70292190FBF1F0C0B2D1
:101DD000069001200C2132226923CDE900210290D6
:101DE00018220698FFF7A6FB41488088A0F2DC5035
:101DF000292190FBF1F0C0B2069001200C21322283
:101E00007523CDE9002102900A460698FFF792FB60
:101E1000FFF794F807B000BD2DE9F8430026002530
:101E2000A84614E0012008EB4801344B03EB810283
:101E300008EB4801282303EB41010090C8B20C23B2
:101E40003146FFF7B5F908F1010000F0FF08B8F1DD
:101E5000080FE7DB2A49B1F90000C11700EB9171C7
:101E6000C1F38707B806050E26480078B84203D0AC
:101E700024480770FFF7A1F817B1012F7DD1ABE11E
:101E800006F10D00C6B24FF0000814E0012008EB87
:101E900048011D4B03EB810208EB4801002303EBD3
:101EA00041010090C8B20C233146FFF781F908F1D7
:101EB000010000F0FF08B8F10A0FE7DB1048B0F9A5
:101EC0000000A84222D1002421E00000CA01002025
:101ED0005049543A00000000E40600203900002078
:101EE0002D0000002B0000003E000000523A0000D0
:101EF000D2020020593A0000503A0000BCA000086D
:101F00002C0000203D0000201CA100080124FA48FC
:101F1000007800F00100D0B14FF0000813E008EBAA
:101F20004801F64B03EB810208EB48015E2303EB0B
:101F30004101C8B20C2331460094FFF739F908F18A
:101F4000010000F0FF08B8F1060FE8DB1BE04FF0DE
:101F5000000815E008EB4801E94B03EB810208EBB0
:101F600048015E2303EB4101C8B20C2331460094C3
:101F7000FFF71EF908F1010000E004E200F0FF089D
:101F8000B8F1060FE6DB681CC5B206F10D00C6B25B
:101F90004FF0000814E0012008EB4801D94B03EB97
:101FA000810208EB4801002303EB41010090C8B215
:101FB0000C233146FFF7FCF808F1010000F0FF08A0
:101FC000B8F10A0FE7DBD048B0F90000A84201D110
:101FD000002400E00124C848007800F00200D0B1DD
:101FE0004FF0000813E008EB4801C44B03EB8102FB
:101FF00008EB48015E2303EB4101C8B20C233146D4
:102000000094FFF7D5F808F1010000F0FF08B8F1DF
:10201000060FE8DB19E04FF0000813E008EB480179
:10202000B74B03EB810208EB48015E2303EB410150
:10203000C8B20C2331460094FFF7BAF808F101004A
:1020400000F0FF08B8F1060FE8DB681CC5B206F126
:102050000D00C6B24FF0000814E0012008EB480163
:10206000AA4B03EB810208EB4801002303EB41017B
:102070000090C8B20C233146FFF79AF808F101002E
:1020800000F0FF08B8F10A0FE7DB9F48B0F9000045
:10209000A84201D1002400E001249748007800F014
:1020A0000400D0B14FF0000813E008EB4801934B57
:1020B00003EB810208EB48015E2303EB4101C8B248
:1020C0000C2331460094FFF773F808F1010000F08B
:1020D000FF08B8F1060FE8DB19E04FF0000813E045
:1020E00008EB4801864B03EB810208EB48015E23B5
:1020F00003EB4101C8B20C2331460094FFF758F8B6
:1021000008F1010000F0FF08B8F1060FE8DB681CD9
:10211000C5B206F10D00C6B24FF0000814E0012070
:1021200008EB48017A4B03EB810208EB48010023DE
:1021300003EB41010090C8B20C233146FFF738F899
:1021400008F1010000F0FF08B8F10A0FE7DB6E4864
:10215000B0F90000A84201D1002400E00124664843
:10216000007800F00800D0B14FF0000813E008EB51
:102170004801624B03EB810208EB48015E2303EB4D
:102180004101C8B20C2331460094FFF711F808F161
:10219000010000F0FF08B8F1060FE8DB19E04FF08E
:1021A000000813E008EB4801554B03EB810208EBF4
:1021B00048015E2303EB4101C8B20C233146009471
:1021C000FEF7F6FF08F1010000F0FF08B8F1060F76
:1021D000E8DB681CC5B2D7E006F10D00C6B24FF0CF
:1021E000000814E0012008EB48014A4B03EB810290
:1021F00008EB4801002303EB41010090C8B20C2317
:102200003146FEF7D5FF08F1010000F0FF08B8F1F4
:102210000A0FE7DB3C48B0F90000A84201D10024D6
:1022200000E001243448007800F01000D0B14FF0F5
:10223000000813E008EB4801304B03EB810208EB88
:1022400048015E2303EB4101C8B20C2331460094E0
:10225000FEF7AEFF08F1010000F0FF08B8F1060F2D
:10226000E8DB19E04FF0000813E008EB4801244BCD
:1022700003EB810208EB48015E2303EB4101C8B286
:102280000C2331460094FEF793FF08F1010000F0A3
:10229000FF08B8F1060FE8DB681CC5B206F10D00B7
:1022A000C6B24FF0000814E0012008EB48011A4BB9
:1022B00003EB810208EB4801002303EB410100908E
:1022C000C8B20C233146FEF773FF08F1010000F09D
:1022D000FF08B8F10A0FE7DB0B48B0F90000A8428D
:1022E00001D1002400E001240348007800F0200020
:1022F00060B34FF0000825E030000020A8A50008DA
:10230000F0A5000894A100082C0000200CA20008F1
:1023100084A2000838A6000878A8000808EB480145
:10232000FE4B03EB810208EB48015E2303EB410106
:10233000C8B20C2331460094FEF73AFF08F10100C1
:1023400000F0FF08B8F1060FE8DB19E04FF00008D5
:1023500013E008EB4801F24B03EB810208EB480164
:102360005E2303EB4101C8B20C2331460094FEF713
:102370001FFF08F1010000F0FF08B8F1060FE8DBCD
:10238000681CC5B200E000BF00BFFEF7D7FDBDE886
:10239000F8832DE9F84300250026E2488089E249C8
:1023A0000880A84614E0012008EB4801DF4B03EB4E
:1023B000810208EB4801222303EB41010090C8B2DF
:1023C0000C232946FEF7F4FE08F1010000F0FF0897
:1023D000B8F10A0FE7DBD649B1F90000C11700EBED
:1023E0009171C1F38707B806060ED2480078B8424B
:1023F00003D0D0480770FEF7E0FD17B1012F7DD163
:10240000AAE105F10D00C5B24FF0000814E001206B
:1024100008EB4801C84B03EB810208EB480100239D
:1024200003EB41010090C8B20C232946FEF7C0FE21
:1024300008F1010000F0FF08B8F1080FE7DB3046B3
:10244000711CCEB2BA49B1F90010884201D1002402
:1024500000E00124B448007800F00100D0B14FF052
:10246000000813E008EB4801B44B03EB810208EBD2
:102470004801682303EB4101C8B20C2329460094AC
:10248000FEF796FE08F1010000F0FF08B8F1040F16
:10249000E8DB19E04FF0000813E008EB4801A84B17
:1024A00003EB810208EB4801682303EB4101C8B24A
:1024B0000C2329460094FEF77BFE08F1010000F092
:1024C000FF08B8F1040FE8DB05F10D00C5B24FF0CD
:1024D000000816E0012008EB48019A4B03EB81024B
:1024E00008EB4801002303EB41010090C8B20C2324
:1024F0002946FEF75DFE08F1010000E0F3E100F07F
:10250000FF08B8F1080FE5DB3046711CCEB28849F0
:10251000B1F90010884201D1002400E00124824872
:10252000007800F00200D0B14FF0000813E008EB93
:102530004801824B03EB810208EB4801682303EB5F
:102540004101C8B20C2329460094FEF731FE08F180
:10255000010000F0FF08B8F1040FE8DB19E04FF0CC
:10256000000813E008EB4801754B03EB810208EB10
:102570004801682303EB4101C8B20C2329460094AB
:10258000FEF716FE08F1010000F0FF08B8F1040F95
:10259000E8DB05F10D00C5B24FF0000814E00120A2
:1025A00008EB4801684B03EB810208EB480100236C
:1025B00003EB41010090C8B20C232946FEF7F8FD59
:1025C00008F1010000F0FF08B8F10A0FE7DB304620
:1025D000711CCEB25649B1F90010884201D10024D5
:1025E00000E001245048007800F00400D0B14FF022
:1025F000000813E008EB4801504B03EB810208EBA5
:102600004801682303EB4101C8B20C23294600941A
:10261000FEF7CEFD08F1010000F0FF08B8F1040F4D
:10262000E8DB19E04FF0000813E008EB4801444BE9
:1026300003EB810208EB4801682303EB4101C8B2B8
:102640000C2329460094FEF7B3FD08F1010000F0C9
:10265000FF08B8F1040FE8DB05F10D00C5B24FF03B
:10266000000814E0012008EB4801384B03EB81021D
:1026700008EB4801002303EB41010090C8B20C2392
:102680002946FEF795FD08F1010000F0FF08B8F1BA
:102690000C0FE7DB3046711CCEB22549B1F90010B2
:1026A000884201D1002400E001241F48007800F096
:1026B0000800D0B14FF0000813E008EB48011F4BB1
:1026C00003EB810208EB4801682303EB4101C8B228
:1026D0000C2329460094FEF76BFD08F1010000F081
:1026E000FF08B8F1040FE8DB35E04FF0000813E015
:1026F00008EB4801124B03EB810208EB4801682309
:1027000003EB4101C8B20C2329460094FEF750FDAB
:1027100008F1010000F0FF081AE00000A8A5000879
:10272000F0A50008E406002036000020FCA2000806
:10273000320000203E00002074A3000848A50008D5
:1027400078A50008E0A3000840A40008B8A4000889
:10275000B8F1040FCCDBC7E005F10D00C5B24FF0B6
:10276000000814E0012008EB4801C24B03EB810292
:1027700008EB4801002303EB41010090C8B20C2391
:102780002946FEF715FD08F1010000F0FF08B8F139
:102790000E0FE7DB3046711CCEB2B749B1F900101D
:1027A000884201D1002400E00124B448007800F000
:1027B0001000D0B14FF0000813E008EB4801B04B17
:1027C00003EB810208EB4801682303EB4101C8B227
:1027D0000C2329460094FEF7EBFC08F1010000F001
:1027E000FF08B8F1040FE8DB19E04FF0000813E030
:1027F00008EB4801A34B03EB810208EB4801682377
:1028000003EB4101C8B20C2329460094FEF7D0FC2B
:1028100008F1010000F0FF08B8F1040FE8DB05F152
:102820000D00C5B24FF0000814E0012008EB48018C
:10283000954B03EB810208EB4801002303EB4101B8
:102840000090C8B20C232946FEF7B2FC08F1010043
:1028500000F0FF08B8F10A0FE7DB3046711CCEB27A
:102860008549B1F90010884201D1002400E001241B
:102870008248007800F04000D0B14FF0000813E02B
:1028800008EB48017E4B03EB810208EB480168230B
:1028900003EB4101C8B20C2329460094FEF788FCE3
:1028A00008F1010000F0FF08B8F1040FE8DB19E0BF
:1028B0004FF0000813E008EB4801724B03EB810274
:1028C00008EB4801682303EB4101C8B20C232946F9
:1028D0000094FEF76DFC08F1010000F0FF08B8F16C
:1028E000040FE8DB00E000BF00BFFEF727FBBDE8F8
:1028F000F88307B5B0F5E16F05DD644A1278521C24
:10290000624B1A700AE0614A1278022A03DD0A88D3
:10291000521E12B20A8000225C4B1A70B0F5966FFC
:1029200005DA5B4A1278521C594B1A700AE0584A71
:102930001278022A03DD0A88521C12B20A80002291
:10294000534B1A70B1F90020002A03DABDF90820B0
:102950000A8007E0B1F90020BDF908309A4201DD94
:1029600000220A800EBD17B5B0F5E16F02DCB0F5AC
:10297000966F05DA474A1278521C464B1A700DE0E2
:10298000444A1278022A06DD0A88BDF8084001236D
:10299000A3405A400A8000223E4B1A701EBD00B56B
:1029A0003D4880783D490978884218D03A48807877
:1029B000012803D13848C089394908803748007850
:1029C000012808D13448C08935490988884202D095
:1029D00001203449087030488078304908702E480A
:1029E0008078012802D0022820D115E02E4989885C
:1029F00088B22E49B1F900202D49FFF77AFF264809
:102A0000807940B12849C98888B22949B1F90020A4
:102A10002349FFF7A8FF0AE02349898888B225499E
:102A2000B1F900201449FFF764FF00E000BF00BFC8
:102A300000BD10B5184880781F490978884205D034
:102A4000154880781C490870FEF7B7FA124880785C
:102A500020B1012805D0022809D105E0FEF700FECB
:102A600006E0FFF7D9F903E0FFF793FC00E000BFB1
:102A700000BF10BDB0A600083200002036000020C4
:102A800048A5000878A50008F0A800083F0000202D
:102A90004000002041000020E40600204200002009
:102AA0003000002038000020CA0100202E00002045
:102AB0002C000020340000204300002000B585B029
:102AC000684601F0ACFA0A490098B0FBF1F00949F8
:102AD000086005B000BD01B502E00098401E0090FE
:102AE00000980028F9D108BD10B5FDF739FC10BDDC
:102AF00040420F004400002010B500F073FB10BDF1
:102B000010B5FFF7F1FF10BD704710B505F086FA5C
:102B100010BD000000B587B00121084601F0F9FAA8
:102B20000121084601F0E8FA0121654801F0C5FFDE
:102B300040F2CF70ADF814004720ADF8100000202F
:102B4000ADF81600ADF8120004A94FF0804002F075
:102B50008BFA6020ADF800000120ADF802000020E3
:102B6000ADF80600ADF8080069464FF0804002F06D
:102B700092FB0821C80602F022FF0121880702F01B
:102B8000CFFE0121880702F0CBFD00204FF08041ED
:102B9000888707B000BD08B50121084601F0ACFAEE
:102BA0000121182001F0A8FA10208DF8030003205D
:102BB0008DF802004FF40070ADF8000069464148FE
:102BC00001F0AAFE0220ADF8000003208DF80200FB
:102BD00010208DF8030069463A4801F09DFE102050
:102BE0008DF8030002208DF802004002ADF80000CD
:102BF0006946344801F090FE4FF48061314801F09D
:102C000038FF08BD10B5002423E002212D4801F053
:102C100032FF4FF480612B4801F02DFF4FF400711B
:102C2000284801F028FF2848FFF755FF02212548D2
:102C300001F01FFF4FF40071224801F01AFF4FF41A
:102C40008061204801F015FF1F48FFF744FF601C1A
:102C5000C4B2032CD9DB10BD2DE9F14F82B01B4863
:102C60000168029805F022FC1849086018491748C5
:102C7000006805F0E1FE02D80020144908601348FE
:102C8000006805F0C5FECDE9000106F051FB804665
:102C90000022104B05F0D2FC064600224FF0804384
:102CA00005F0E5FD044600220B4B05F06EFD824663
:102CB00005F095FE4FF080418887BDE8FE8F00004B
:102CC00000021800000C0140C02709004C00002041
:102CD000DB0FC9400000F03F003C9F4070B5054647
:102CE0000C4600F0F2F9284600F0D0F906462046DE
:102CF00000F0CCF900F0E3F9304670BD70B5044641
:102D000000F0E3F9204600F0C1F9002000F0BEF920
:102D1000054600F0D4F9284670BD2DE9F04107467C
:102D20000D46164600F0D1F9384600F0AFF980465E
:102D3000002404E0285D00F0A9F9601CC4B2B4428C
:102D4000F8DB00F0BCF94046BDE8F0812DE9F04128
:102D500007460D46164600F0B8F9384600F096F9D9
:102D60008046002405E0002000F090F92855601C02
:102D7000C4B2B442F7DB00F0A2F94046BDE8F081EE
:102D800070B504460D4605227E492A20FFF7C5FF8F
:102D90002A462146A020FFF7C0FF70BD70B504464B
:102DA0000D462A462146A820FFF7B7FF70BD10B593
:102DB00075480078F0B17548008800280ADD0020C9
:102DC0007149087072480078401E71490870FEF71A
:102DD00063F80FE06E4801780078401C6C4B187067
:102DE0002520FFF77BFF6A4800787D2802DD002060
:102DF0006749087010BD70B504460D460522654947
:102E00002A20FFF78AFF05225E493020FFF785FF61
:102E100001212120FFF762FF01212220FFF75EFF41
:102E20001A212420FFF75AFF29462520FFF756FFD5
:102E30000F212620FFF752FF012C08D1202131203D
:102E4000FFF74CFF0F212020FFF748FF41E0022C45
:102E500008D120213120FFF741FF0E212020FFF76C
:102E60003DFF36E0032C1AD1FF21E120FFF736FFAA
:102E7000FF21E220FFF732FF0F212020FFF72EFF76
:102E8000502000F003F9732000F000F901213C20EC
:102E9000FFF724FF06213D20FFF720FF19E00E2158
:102EA0002020FFF71BFFFF21E120FFF717FFFF2185
:102EB000E220FFF713FF502000F0E8F8732000F045
:102EC000E5F801213C20FFF709FF06213D20FFF72F
:102ED00005FF70BD1CB505222A493020FFF71DFFF4
:102EE000052269461020FFF731FF002408E01DF895
:102EF00004002449095D884200D003E0601CC4B28C
:102F0000052CF4DB00BF052C01D101201CBD0020E5
:102F1000FCE710B50720FFF7F1FE044604F040007F
:102F200000B36020FFF7EAFE1B49087008460078EE
:102F3000212813DA0846027818496120FFF706FFB6
:102F4000154801781548FDF7B6FE10480088401C6A
:102F50000E49088001201249087003E0FF21E22099
:102F6000FFF7BCFE04F0100030B104F0010018B10E
:102F7000FF21E120FFF7B2FE21462720FFF7AEFE3A
:102F800010BD0000500000205B0000205E0000200B
:102F9000D2020020550000205A0000200407002023
:102FA0006000002000B587B00121080301F0B1F8EE
:102FB0000121052001F0A0F80121474801F07DFD25
:102FC0004FF00070454948600121042001F094F859
:102FD0004FF40040ADF8040003208DF806001020E7
:102FE0008DF8070001A93E4801F096FC012104205C
:102FF00001F082F81020ADF8040003208DF80600DF
:1030000010208DF8070001A9354801F085FC10213A
:10301000334801F02EFD4FF40041314801F029FD05
:10302000E020ADF8040003208DF8060018208DF88C
:10303000070001A92A4801F06FFC0021294801F08E
:1030400084FE0020ADF808004FF48270ADF80A004D
:103050000020ADF80C00ADF80E00ADF810004FF4F4
:103060000070ADF812001020ADF814000020ADF88B
:1030700016000720ADF8180002A91A4801F0C0FD9B
:103080000121184801F061FE07B000BD10B50446EB
:1030900000BF0221134801F0DCFE0028F9D02146D0
:1030A000104801F083FE00BF01210E4801F0D1FE5F
:1030B0000028F9D00B4801F07BFEC0B210BD10B55E
:1030C0001021074801F0D5FC10BD10B510210448AF
:1030D00001F0D1FC10BD00000002300000000140F2
:1030E000000801400030014010B588B004460121BD
:1030F000880301F001F80121084600F0FDFF0121DD
:10310000042000F0F9FF4FF40070ADF80400032034
:103110008DF8060018208DF8070001A9A64801F0D7
:10312000FBFB4FF48060ADF8040003208DF806002F
:1031300004208DF8070001A99F4801F0EDFB012153
:10314000042001F0BAFC04940020ADF81400ADF89E
:103150001600ADF81800ADF81C000C20ADF81A00F0
:103160000020ADF80800ADF80A004FF40070ADF88B
:103170000C000020ADF80E0004A9904802F0F1FD0B
:1031800002A98E4802F062FE012240F225518B48CE
:1031900002F07FFE0121894802F06FFE25208DF8A4
:1031A000000005208DF8010001208DF802008DF847
:1031B0000300684601F009F808B010BD08B57F4863
:1031C00002F08CFD002240F225517C4802F061FEA5
:1031D00025208DF8000000208DF80300684600F0DF
:1031E000F4FF08BD10B50821744802F021FF10B1AA
:1031F000724802F0B3FE7148008800F08000F0B120
:103200006E480C30008800F08000C0B16C48017836
:103210000078401C6A4A10706A48405C6749091D82
:1032200008801046007868490978884207D16348C9
:103230000C30008820F0800060490C3108805F4825
:10324000008800F0200000286DD05C48001D008838
:10325000C4B25E48007838B9AA2C05D101205B4978
:1032600008705B4804705DE058480078012807D179
:10327000AA2C05D10220554908705548447051E0E8
:1032800052480078022807D1F12C05DC03204F4971
:1032900008704F48847045E04C48007803280CD1F2
:1032A000FF2C0ADA0420494908704948C47049488B
:1032B000047000204849087034E04448007804282D
:1032C00019D144480078002815DD42480078401E96
:1032D00040490870404800783F490978491C3E4AF7
:1032E0001170001D3A490C543A480078D0B90520B5
:1032F0003649087016E03548007805280FD10020BF
:103300003249087034480078001D31490C54324865
:103310000078401DC1B22E48FFF732FD02E00020C8
:103320002A49087000BF10BD10B504462648017830
:103330000078401C244A107022484454012240F274
:1033400027711E4802F0A5FD10BD10B504460FE020
:1033500020780D2802D1FFF7E7FF08E020780A283F
:1033600002D1FFF7E1FF02E02078FFF7DDFF641CE8
:1033700020780028ECD110BD70B504460D46002021
:103380000AE0225C10490B780978491C0E4E317016
:103390000C49CA54411CC8B2A842F2DB07480C30A1
:1033A000008800F0800028B9012240F2277103480C
:1033B00002F06FFD70BD00000008014000380140C0
:1033C000610000204407002062000020630000200C
:1033D00044080020640000206500002008B5012199
:1033E000084600F07CFE01214FF4037000F084FEDB
:1033F0000F20ADF8000000208DF803006946534807
:1034000001F08AFA0120ADF8000000208DF80300D9
:1034100069464F4801F080FA08BD00B591B04D48AB
:1034200003F088F84C4806904C480790002008901C
:103430000920099000200A9080200B9040000C90F9
:1034400080000D9020200E9000020F900020109020
:1034500006A9404803F010F901213E4803F037F96E
:103460003D484C3802F03EFE012003F01FF80020DA
:10347000019001208DF808008DF809004FF46020BC
:1034800003900020049009208DF8140001A932480F
:103490004C3802F04EFE4FF4004000F091FD062340
:1034A000012200212C484C3802F0DBFE06230222C8
:1034B000012129484C3802F0D4FE062303220221C0
:1034C00025484C3802F0CDFE072304220321224870
:1034D0004C3802F0C6FE0623082211461E484C381E
:1034E00002F0BFFE0723092211211B484C3802F0CD
:1034F000B8FE012118484C3802F052FE012116484E
:103500004C3802F042FE14484C3802F060FE00BF16
:1035100011484C3802F060FE0028F9D10E484C38B2
:1035200002F064FE00BF0C484C3802F064FE002834
:10353000F9D1012108484C3802F067FE11B000BDF6
:1035400010B5FFF74BFFFFF768FF10BD0008014003
:10355000000C0140080002404C24014044090020B6
:1035600010B504F0DDFC04F0C9FC04F0AFFC03F07E
:103570009BFE00207B49087004F0FDFC6420FFF7EF
:10358000AAFA012004F0F7FC10BD70B50246002035
:103590000AE0145C744B1D781B785B1C724E337010
:1035A000724B5C55431CD8B28842F2DB70BD10B53B
:1035B0006D4800786E490978884263DD6A48007872
:1035C0006B490978401A3F281FDB002069490870C1
:1035D0003F206949087000200BE065490A780978A6
:1035E000491C634B197061498A5C634B411C5A54F6
:1035F000C8B23F28F1DB40224FF48C715E4804F0E2
:103600005BF8022004F038F9ABE05A480078401C1F
:103610005849087008460078584909788842F3D11B
:103620000020544908705048007851490978401AE0
:1036300051490870002015E04B4909784C4A12782E
:10364000891A814208DD4A4909780144474A525C97
:10365000494B411C5A5403E00022474B411C5A5429
:10366000411CC8B23F28E7DB3F480078404908705A
:1036700040224FF48C71404804F01EF8022004F000
:10368000FBF86EE03848007839490978884268DAF2
:1036900037480078C0F580703349097808443F28DE
:1036A0001FDB0020334908703F2033490870002099
:1036B0000BE02F490A780978491C2D4B19702B49CA
:1036C0008A5C2D4B411C5A54C8B23F28F1DB402282
:1036D0004FF48C71284803F0EFFF022004F0CCF87F
:1036E0003FE024480078401C2249087008460078D2
:1036F00022490978884234D100201E4908701C48AC
:10370000007840421849097808441B490870002095
:1037100018E017490978C1F58071134A12781144ED
:10372000814209DD124909780144C9B20F4A525C4D
:10373000114B411C5A5403E000220F4B411C5A54B8
:10374000411CC8B23F28E4DB0748007808490870EC
:1037500040224FF48C71084803F0AEFF022004F0C1
:103760008BF810BDDA0000206800002096090020C8
:103770006700002069000020B40A002066000020D5
:1037800018B50246002016E04B1E441CA3420ADB7B
:10379000244BC35A00939DF8003013549DF8014008
:1037A000431CD45405E01F4BC35A00939DF80030CE
:1037B0001354831C98B28842E6DB012018BD2DE922
:1037C000F04105460E4600F088FD164800F0CAFD9F
:1037D0008046B8F1040F02D00020BDE8F08100243B
:1037E0001BE0701E611C884206DB295D601C285CA2
:1037F00001EB002087B203E0285D00F57F4087B22F
:1038000008496018394600F0B0FE8046B8F1040F50
:1038100001D00020E1E7A01C84B2B442E1DB01202A
:10382000DBE700000000010808B50121092000F0D5
:1038300063FC0121E74801F040F90121E64801F06D
:103840003CF940F6FC10ADF8000048208DF803006C
:1038500003208DF802006946E04801F05DF84FF45E
:103860000060DF4948808880C88008BD10B500200E
:10387000DC49C881D9480830006800F0800028B9C8
:103880000846B0F90E0040F00100C881D348083066
:10389000006800F4807030B9D248B0F90E0040F0F2
:1038A0000200D049C881CF48807B00F00100A8B158
:1038B000CD480078401CCC49087008460078C828DC
:1038C00004D10120C9490870FFF79CF9C648007867
:1038D000FA2825DBFA20C449087021E0C2480078A4
:1038E00002281ADBC0480078642816DCC04800783B
:1038F000012812D1BF490870BD488078401CBC49DE
:10390000887008468078022804DC0846807B00F036
:10391000400010B10020B64988700020B2490870FC
:10392000B048807B00F00200A8B1B3480078401C8A
:10393000B149087008460078C82804D10120AF4971
:103940004870FFF75FF9AC480078FA2818DBFA20D6
:10395000A949087014E0A848007802280DDBA648A1
:103960000078642809DC9F48B0F90A0080F4876079
:103970009C49488101209F49087000209E49087099
:103980009C480078012815D18102944801F073F811
:103990009B480078401C9A49087008460078052822
:1039A00008DD00200870934908704FF480618B484F
:1039B00001F05FF810BD10B54FF40071874801F0B9
:1039C00058F89048007820B101281FD002281CD157
:1039D00028E08D4800688D490968401A0A2814D9E2
:1039E0007E480830006840F67C010840884202D1D9
:1039F0000120844908704FF48061784801F039F85B
:103A00004FF40071754801F036F894E073480830BF
:103A1000006840F67C010840884202D002207949C3
:103A2000087088E06D480830006800F0400068B910
:103A3000724840880A387149488008464088898918
:103A4000884266D101207249087062E063480830FC
:103A5000006800F0100068B9684840880A3067497B
:103A60004880084640888989884252D101206849A7
:103A700008704EE059480830006800F0200068B92E
:103A80005E4880880A305D49888008468088C989F8
:103A900088423ED101205E4908703AE04F48083024
:103AA000006800F0080068B9544880880A38534913
:103AB000888008468088C98988422AD101205449D3
:103AC000087026E045480830006800F0040068B936
:103AD0004A4800890A304949088108460089098A0C
:103AE000884216D101204A49087012E03B4808304C
:103AF000006800F4006060B9404800890A383F4916
:103B0000088108460089098A884202D1012040497B
:103B1000087000203B4908704FF480612F4800F086
:103B2000AAFF4FF400712D4800F0A3FF364800684B
:103B30003649086000BF00BF35480078F0B335480B
:103B40000068401C3349086008460068012807D017
:103B500008460068142803D00846006828280AD1BF
:103B60004FF480611D4800F086FF4FF400711B4840
:103B700000F07FFF2CE0274800680A2803D9254879
:103B8000006814280FD3234800681E2803D9214851
:103B90000068282807D31F480068322818D91D4814
:103BA00000683D2814D24FF480610C4800F061FF9A
:103BB0004FF40071094800F05EFF00E008E015488E
:103BC00000683C2804D100201149087011490860A0
:103BD00010BD00000004300000023000000C014065
:103BE000C0010020CA0100206E0000205B00002000
:103BF000E4060020700000206F000020D2020020A8
:103C00007100002072000020480000207400002095
:103C100073000020780000200648804706480047CF
:103C2000FEE7FEE7FEE7FEE7FEE7FEE7FEE7FEE76C
:103C3000FEE7FEE71B3D0008ED0000080CB5002084
:103C4000019000906C48006840F480306A49086038
:103C500000BF6948006800F4003000900198401CE3
:103C60000190009818B90198B0F5A06FF1D16248A1
:103C7000006800F4003010B10120009001E0002045
:103C800000900098012843D15C48006840F0100083
:103C90005A4908600846006820F00300086008469A
:103CA000006840F00200086053484068524948608C
:103CB0000846406848600846406840F480604860B4
:103CC0000846406820F47C1048600846406840F48C
:103CD000E81048600846006840F08070086000BF47
:103CE0004548006800F000700028F9D0424840685C
:103CF00020F00300404948600846406840F0020058
:103D0000486000BF3C48406800F00C000828F9D12A
:103D10000CBD10B5FFF792FF10BD10B53648006816
:103D200040F00100344908600846406834490840C2
:103D30003149486008460068324908402E49086009
:103D40000846006820F4802008600846406820F497
:103D5000FE0048604FF41F008860FFF7DAFF4FF065
:103D600000602949086010BD10B500210020002224
:103D7000214B5B6803F00C0121B1042906D008290E
:103D800028D107E0214B224C236027E01F4B204C19
:103D9000236023E0184B5B6803F47010164B5B68DC
:103DA00003F48032022303EB904022B9194B4343C2
:103DB000174C23600DE0104B5B6803F4003323B114
:103DC000144B4343124C236003E0104B4343104C0D
:103DD000236003E00D4B0E4C236000BF00BF064B79
:103DE0005B68C3F303130C4CE15C094B1B68CB40CD
:103DF000074C236010BD000000100240002002406C
:103E00000000FFF8FFFFF6FE08ED00E000127A0068
:103E10007C00002000093D0080000020DF48006891
:103E200040F00100DD49086008464068DC49084070
:103E3000DA49486008460068DA490840D74908600E
:103E40000846006820F4802008600846406820F496
:103E5000FE0048604FF41F0088607047CF49096832
:103E600021F48031CD4A11601146096821F4802186
:103E70001160B0F5803F03D0B0F5802F0ED106E081
:103E8000C649096841F48031C44A116007E0C3495A
:103E9000096841F4A021C14A116000E000BF00BFE1
:103EA000704710B501460022002300204A11012A64
:103EB00002D1BA4C236806E0022A02D1B74C236A29
:103EC00001E0B64C636A01F01F02012494401C40DB
:103ED0000CB1012000E0002010BD38B5002000909A
:103EE0000024002500BF3120FFF7DBFF05460098C6
:103EF000401C00900098B0F5A06F01D0002DF2D0CA
:103F00003120FFF7CEFF08B1012400E00024204655
:103F100038BD01460020A14A106820F0F80040EAB0
:103F2000C10010607047A049086070470246002039
:103F30009A4B586820F47C1042EA01031843974BCF
:103F40005860704798490866704701460020934AB8
:103F5000506820F003000843506070478F48406865
:103F600000F00C007047014600208C4A506820F099
:103F7000F00008435060704701460020874A5068AF
:103F800020F4E06008435060704701460020834AF7
:103F9000506820F4605040EAC1005060704729B179
:103FA0007E4A527A02437D4B5A7204E07B4A527A2F
:103FB00082437A4B5A7270477B49D8310860704708
:103FC00001460020754A506820F440400843506084
:103FD00070470021714A20321170704A82F8201017
:103FE000012802D004280AD104E001216B4A2032C2
:103FF000117005E00521694A2032117000E000BF10
:1040000000BF70476949086070476449096A014305
:10401000624A11627047654944390860704730B59B
:1040200000210022002400235C4D6D6805F00C0186
:1040300021B1042905D0082923D105E05C4D056094
:1040400022E05B4D05601FE0544D6D6805F4701271
:10405000524D6D6805F48034022505EB92421CB97F
:10406000544D554305600BE04C4D6D6805F400352B
:104070001DB1504D5543056002E04D4D554305605F
:1040800002E04B4D056000BF00BF444D6D6805F078
:10409000F0010909484D6B5C0568DD4045603F4D06
:1040A0006D6805F4E061090A434D6B5C4568DD40CD
:1040B00085603A4D6D6805F46051C90A3E4D6B5CF0
:1040C0004568DD40C560354D6D6805F44041890B9C
:1040D0003A4D6B5CC568B5FBF3F5056130BD29B1A0
:1040E0002E4A526902432D4B5A6104E02B4A526911
:1040F00082432A4B5A61704729B1284A9269024388
:10410000264B9A6104E0254A92698243234B9A61C7
:10411000704729B1214AD2690243204BDA6104E099
:104120001E4AD26982431D4BDA61704729B11B4A8E
:10413000D2680243194BDA6004E0184AD26882431D
:10414000164BDA60704729B1144A12690243134BC7
:104150001A6104E0114A12698243104B1A617047D8
:1041600012494039086070470F49C86470470B49CD
:10417000C87170470948406A40F08070074948623A
:10418000704701460020054A92680A400AB10120A2
:1041900000E000207047014988727047001002401B
:1041A0000000FFF8FFFFF6FE00004242800442429A
:1041B00000127A0000093D0090000020A0000020BD
:1041C00031490143314A1160704770B50021002325
:1041D0000F22C47804B32D4C246804F4E064C4F5C1
:1041E000E064210AC1F10403CA40447804FA03F1EF
:1041F0008478144021430901254C0678A1550478A0
:1042000004F01F050124AC4005786D11AD0005F1E7
:10421000E025C5F8004109E0047804F01F050124F9
:10422000AC401C4D0678761145F8264070BD1A4A00
:104230000A400243154B1B1F1A60704739B1134ADD
:10424000121D12680243114B1B1D1A6006E00F4A33
:10425000121D126882430D4B1B1D1A607047042803
:1042600008D14FF0E021096941F004014FF0E0224C
:10427000116107E04FF0E021096921F004014FF0DE
:10428000E0221161704700000000FA050CED00E02B
:1042900000E400E080E100E080FFFF1F0146002015
:1042A000FE4A106800F03800084310607047FB4970
:1042B000096821F00801F94A1160114609680143B3
:1042C00011607047F549096821F01001F34A116047
:1042D00011460968014311607047F148EF49486091
:1042E000F04848607047EE48EC494860ED48486047
:1042F0007047EA48006940F08000E849086170476B
:10430000E648006940F08000E449086170470420F5
:10431000E249C96801F0010109B101200EE0DF495D
:10432000C96801F0040109B1022007E0DB49C9684E
:1043300001F0100109B1032000E00420704700B52E
:1043400002460423FFF7E3FF034603E0FFF7DFFF26
:104350000346521E012B01D1002AF7D102B90523D1
:10436000184600BD30B5044604254FF43020FFF751
:10437000E6FF0546042D17D1C848006940F0020049
:10438000C649086108464461006940F04000086180
:104390004FF43020FFF7D3FF0546C048006941F6CF
:1043A000FD710840BD490861284630BD10B50424A0
:1043B0004FF43020FFF7C3FF0446042C16D1B74852
:1043C000006940F00400B54908610846006940F002
:1043D000400008614FF43020FFF7B1FF0446AF48BA
:1043E000006941F6FB710840AC490861204610BDE8
:1043F00000B502460423FFF78AFF034603E0FFF7F8
:1044000086FF0346521E012B01D1002AF7D102B9C3
:104410000523184600BD10B504244FF43020FFF7E3
:10442000E7FF0446042C16D19C48006940F00400C4
:104430009A4908610846006940F0400008614FF45D
:104440003020FFF7D5FF04469448006941F6FB7120
:10445000084092490861204610BD00208F49C96973
:1044600001F0020109B1012000E00020704730B5E1
:10447000A5250424FFF7F1FF00B100254FF43020FB
:10448000FFF75DFF0446042C3AD1854883498860D4
:10449000844888600846006940F0200008610846AA
:1044A000006940F0400008614FF43020FFF747FFFB
:1044B0000446042C1BD17948006941F6DF7108409D
:1044C000764908610846006940F0100008617648A6
:1044D0000580E002FFF733FF0446052C10D06F483B
:1044E000006941F6EF7108406C49086108E0052C4D
:1044F00006D06A48006941F6EF71084067490861D3
:10450000204630BD78B506460C46042500200090B4
:10451000E802FFF714FF0546042D24D15F48006927
:1045200040F001005D4908613480E802FFF707FFB1
:104530000546042D10D1B01C0090200C0099088075
:10454000E802FFF7FCFE05465448006941F6FE719B
:1045500008405249086106E05048006941F6FE7182
:1045600008404E490861284678BD70B504460D469E
:104570000426F002FFF7E3FE0646042E11D1474859
:10458000006940F00100454908612580F002FFF70D
:10459000D6FE06464148006941F6FE7108403F4993
:1045A0000861304670BD70B505460E460424E00231
:1045B000FFF7C5FE0446042C17D1394837498860F7
:1045C000384888600846006940F0100008612E8075
:1045D000E002FFF7B4FE0446052C06D02F48006920
:1045E00041F6EF7108402D490861204670BD2DE964
:1045F000F04304464FF6FF763746B046B1460425F1
:10460000E443E6B2C4F30727C4F307484FEA14694A
:10461000E802FFF794FE0546042D49D120481F49C2
:104620008860204888600846006940F010000861F2
:10463000FF2E06D01C4808300680E802FFF77FFEF8
:104640000546042D08D1FF2F06D017480A300780F1
:10465000E802FFF774FE0546042D0AD1B8F1FF0FFA
:1046600007D011480C30A0F80080E802FFF767FE81
:104670000546042D0AD1B9F1FF0F07D00A480E30C4
:10468000A0F80090E802FFF75AFE0546052D0FD06E
:104690000248006941F6EF71084007E0002002403F
:1046A00023016745AB89EFCD00F8FF1F664908611C
:1046B0002846BDE8F08330B5054604244FF4302089
:1046C000FFF73DFE0446042C41D160485E498860F6
:1046D0005F4888600846006940F02000086108468D
:1046E000006940F0400008614FF43020FFF727FEDA
:1046F0000446042C22D15448006941F6DF71084079
:10470000514908610846006940F0100008611DB178
:1047100000205049088002E0A5204E4908804FF44F
:104720003020FFF70CFE0446052C10D046480069E7
:1047300041F6EF7108404449086108E0052C06D0B5
:104740004148006941F6DF7108403F490861204651
:1047500030BDF0B505460E46174604243B483A499D
:1047600088603B488860E002FFF7E9FD0446042CBE
:1047700019D13548006940F010003349086147F00D
:10478000F800304328433349891C0880E002FFF7D2
:10479000D6FD0446052C06D02B48006941F6EF7182
:1047A0000840294908612046F0BD2748C0698008B3
:1047B00070472548006A704700202349096801F0C6
:1047C000200109B1012000E00020704729B11E4AF4
:1047D000126902431C4B1A6104E01B4A12698243AE
:1047E000194B1A61704701460020012908D1164A69
:1047F000D26902F001020AB1012008E0002006E0BF
:10480000114AD2680A400AB1012000E00020704736
:104810000D49C860704704200B49C96801F00101C7
:1048200009B101200EE00849C96801F0040109B18D
:10483000022007E00449C96801F0100109B1032012
:1048400000E004207047000000200240230167457B
:10485000AB89EFCD00F8FF1F10B50446CC48844269
:1048600008D101210420FFF761FC00210420FFF79B
:104870005DFC46E0C748844208D101210820FFF7CB
:1048800055FC00210820FFF751FC3AE0C248844261
:1048900008D101211020FFF749FC00211020FFF76B
:1048A00045FC2EE0BD48844208D101212020FFF7BD
:1048B0003DFC00212020FFF739FC22E0B84884426B
:1048C00008D101214020FFF731FC00214020FFF7F3
:1048D0002DFC16E0B348844208D101218020FFF767
:1048E00025FC00218020FFF721FC0AE0AE4884422D
:1048F00007D101218015FFF719FC0021A015FFF752
:1049000015FC10BD10B501210846FFF70FFC002172
:104910000120FFF70BFC10BD2DE9F04102460025F8
:104920000026002000230024002791F803C00CF08B
:104930000F0591F803C00CF0100CBCF1000F03D070
:1049400091F802C04CEA050591F800C0BCF1000FD7
:1049500031D0146800202BE04FF0010C0CFA00F36A
:10496000B1F800C00CEA03069E4220D183004FF04C
:104970000F0C0CFA03F7BC4305FA03FC4CEA0404E1
:1049800091F803C0BCF1280F06D14FF0010C0CFACE
:1049900000FCC2F814C00AE091F803C0BCF1480F53
:1049A00005D14FF0010C0CFA00FCC2F810C0401CFD
:1049B0000828D1D31460B1F800C0BCF1FF0F34DD7A
:1049C000546800202EE000F1080C4FF0010808FAAE
:1049D0000CF3B1F800C00CEA03069E4221D183001B
:1049E0004FF00F0C0CFA03F7BC4305FA03FC4CEA3A
:1049F000040491F803C0BCF1280F05D100F1080CA4
:104A000008FA0CF8C2F8148091F803C0BCF1480F02
:104A100007D100F1080C4FF0010808FA0CF8C2F8B1
:104A20001080401C0828CED35460BDE8F0814FF6BA
:104A3000FF710180022181700421C170704702461C
:104A4000002093680B400BB1012000E0002070476C
:104A50000146886880B2704702460020D3680B4048
:104A60000BB1012000E0002070470146C86880B209
:104A7000704701617047416170470AB1016100E010
:104A800041617047C16070474FF480320A438261D0
:104A90008161826182698269704702460020434BCE
:104AA00018684FF68073184040EA021008433F4BE5
:104AB000186070473E49C8617047F0B50A46002348
:104AC00000240021002500F00046B6F1004F02D17D
:104AD000364EF16901E0354E7168C0F3034583B28B
:104AE00000F44016B6F5401F08D121F070612F4E3A
:104AF000766826F070662D4F7E6012E000F4801616
:104B0000B6F5801F06D1032606FA05F4A14341F04D
:104B1000706106E0460D360103FA06F6B14341F036
:104B2000706122B1460D360103FA06F6314300F0FA
:104B30000046B6F1004F02D11C4EF16101E01B4E60
:104B40007160F0BD30B500228B071C0F0F2303FAF4
:104B500004F2164B08338C1053F824309343134C53
:104B600008348D1044F8253023468C1053F8243037
:104B70008C07240F00FA04F423430C4C08348D10E6
:104B800044F8253030BD0A49DC3108607047000028
:104B900000080140000C01400010014000140140D9
:104BA00000180140001C01400020014000000140AD
:104BB0000000204210B50446BE48844208D10121BD
:104BC0008014FFF7B3FA0021A014FFF7AFFA16E044
:104BD000B948844208D101210014FFF7B4FA00213A
:104BE0002014FFF7B0FA0AE0B448844207D101214B
:104BF000C013FFF7A8FA0021E013FFF7A4FA10BDD5
:104C000010B50022028802F441520B884C882343DD
:104C10008C882343CC8823430C8923434C8923432A
:104C20008C892343CC8923431A430280838B4FF220
:104C3000FF74234083830B8A038210BD2DE9F04F5C
:104C400085B005460C464FF0000902274FF00008DA
:104C50004FF0010B0026B246A88B4FF240010840EE
:104C6000A88302202884B5F81C90A068022801D1EE
:104C700000BF38E0A08810B94FF0010B01E04FF001
:104C8000020B8D48854200D100E000BF6846FFF767
:104C9000C6F9DDF800A0E088B0F5007F0AD14FEA40
:104CA0001A2000EB80004000A168B0FBF1F0401D2D
:104CB00086B20BE04FEA4B10BAFBF0F000EB80003D
:104CC0004000A168B0FBF1F0401D86B20A20B6FB9F
:104CD000F0F606F00108A6EB0800C0F34F074FF608
:104CE000FF7000EA0828022F01DBFF2F02DD0227F8
:104CF0004FF00008E08840EA080038432884A08884
:104D0000A1890843618808432188084340F4006072
:104D100040EA0909A5F81C9005B0BDE8F08F002114
:104D2000018041808180C180018141818181C18177
:104D30000721018270470021018041808180C1806C
:104D40000221816000218181704721B1028842F0F7
:104D50004002028004E002884FF6BF731A400280CE
:104D6000704721B1828B42F48062828304E0828B9F
:104D70004FF6FF331A408283704730B5002400237A
:104D80000C110125A540ABB21AB185881D43858061
:104D900002E085889D43858030BD1AB183880B432E
:104DA000838002E083888B438380704781817047D2
:104DB0000146888970474FF6FF62914204D002880D
:104DC00042F48072028004E002884FF6FF631A40CA
:104DD0000280704721B1828842F00402828004E0A0
:104DE00082884FF6FB731A408280704702884FF228
:104DF000FF731A40028002880A43028070470188CC
:104E000041F480510180704721B1028842F4005280
:104E1000028004E002884DF6FF731A40028070475A
:104E200002460020012901D0108B00E0908A7047D3
:104E30000146088A7047B1F5804F04D1028842F4D8
:104E40008042028004E002884BF6FF731A40028021
:104E500070470246002013890B400BB1012000E08F
:104E600000207047CA4302817047F0B50246002017
:104E700000240023002501F00F070126BE40B4B234
:104E80000B1101269E40B3B2968806EA03051689E7
:104E9000264016B10DB1012000E00020F0BD10B594
:104EA000002201F00F040123A3409AB2D3430381EF
:104EB00010BD00000030014000380040003C0040C0
:104EC00010B50446FE48844208D10121C014FFF702
:104ED0002DF90021E014FFF729F9C4E0B4F1804F67
:104EE00008D101210846FFF72EF900210120FFF724
:104EF0002AF9B8E0F348844208D101210220FFF7E3
:104F000022F900210220FFF71EF9ACE0EE488442AE
:104F100008D101210420FFF716F900210420FFF732
:104F200012F9A0E0E948844208D101210820FFF7E6
:104F30000AF900210820FFF706F994E0E4488442CA
:104F400008D101211020FFF7FEF800211020FFF703
:104F5000FAF888E0DF48844208D101212020FFF7D9
:104F6000F2F800212020FFF7EEF87CE0DA488442D6
:104F700008D101214014FFF7D9F800216014FFF790
:104F8000D5F870E0D548844209D10121C804FFF763
:104F9000CDF800214FF40020FFF7C8F863E0D048B7
:104FA000844209D101210805FFF7C0F800214FF420
:104FB0008010FFF7BBF856E0CA48844209D10121AE
:104FC0004805FFF7B3F800214FF40010FFF7AEF8E3
:104FD00049E0C548844208D101214020FFF7B3F8D9
:104FE00000214020FFF7AFF83DE0C048844208D1DF
:104FF00001218020FFF7A7F800218020FFF7A3F808
:1050000031E0BB48844208D101218015FFF79BF8AD
:105010000021A015FFF797F825E0B648844209D192
:1050200001210804FFF782F800214FF48030FFF7D8
:105030007DF818E0B048844209D101214804FFF707
:1050400075F800214FF40030FFF770F80BE0AB4823
:10505000844208D101218804FFF768F800214FF449
:105060008020FFF763F810BD00220288944B98421D
:105070000ED0994B98420BD0B0F1804F08D0914B95
:10508000984205D0904B984202D0904B984204D160
:105090004FF68F731A404B881A438D4B984207D0B6
:1050A0008C4B984204D04FF6FF431A40CB881A43EA
:1050B00002808B8883850B880385814B98420BD0B7
:1050C000854B984208D08B4B984205D08A4B98422A
:1050D00002D08A4B984201D10B7A03860123838246
:1050E000704770B5002400220023058C4FF6FE7631
:1050F00035400584028C8388048B4FF68F752C40D5
:10510000B51E2C400D882C43751E2A400D892A435C
:105110004D882A436A4DA8420BD06F4DA84208D053
:10512000744DA84205D0744DA84202D0734DA842D8
:1051300013D14FF6F7752A404D892A434FF6FB7578
:105140002A408D882A434FF6FF652B404FF6FF55C6
:105150002B408D892B43CD892B4383800483CD88BD
:105160008586028470BD70B5002400220023058C62
:105170004FF6EF7635400584028C8388048B48F621
:10518000FF752C404FF6FF452C400D884FF6FF76FB
:1051900006EA05252C434FF6DF752A400D8906EAFD
:1051A00005152A434D8806EA05152A43444DA842B1
:1051B00002D0494DA8421DD14FF67F752A404D8936
:1051C0004FF6FF7606EA05152A434FF6BF752A40CB
:1051D0008D8806EA05152A434FF6FF352B404FF21E
:1051E000FF752B408D8906EA85052B43CD8906EA9C
:1051F00085052B4383800483CD880587028470BD99
:1052000070B5002400220023058C4FF6FF66354060
:105210000584028C8388848B4FF68F752C404FF663
:10522000FC752C400D882C434FF6FF552A400D8904
:105230004FF6FF7606EA05252A434D8806EA05253E
:105240002A431F4DA84202D0234DA8421DD14FF240
:10525000FF752A404D894FF6FF7606EA05252A4359
:105260004FF6FF352A408D8806EA05252A434EF67B
:10527000FF752B404DF6FF752B408D8906EA05150D
:105280002B43CD8906EA05152B4383808483CD8883
:105290008587028470BD70B5002200230024058C30
:1052A0004EF6FF7635400584038C8488828B48F661
:1052B000FF752A404FF6FF452A400D8820E0000088
:1052C000002C01400004004000080040000C004099
:1052D000001000400014004000340140004C014028
:1052E000005001400054014000180040001C0040E4
:1052F00000200040004001400044014000480140BF
:105300004FF6FF7606EA05252A434DF6FF752B403A
:105310000D8906EA05352B434D8806EA05352B43F2
:10532000FA4DA84202D0FA4DA84208D14BF6FF75BB
:105330002C408D894FF6FF7606EA85152C43848034
:105340008283CD88A0F84050038470BD828B4FF2D9
:10535000FF331A408283828B4FF6FF7303EA0123E7
:105360001A4382837047F0B50C461546002200218F
:105370000026078C4EF6FF7C07EA0C070784828B19
:10538000018C4FF6FF7707EA043640F6FF473A40B4
:105390004FF6FF7707EA05273A434FF6FF7707EA0C
:1053A00003373A43D94FB8420ED0D94FB8420BD049
:1053B000B0F1804F08D0D74FB84205D0D64FB84291
:1053C00002D0D64FB84206D14DF6FF77394046F4A9
:1053D0008057394305E047F6FF57394044F480577A
:1053E000394382830184F0BD828B4FF6F3731A40F8
:1053F0008283828B0A4382837047F0B50C46154640
:10540000002200210026078C4FF6FF6C07EA0C07EC
:105410000784828B018C4FF6FF7707EA04264FF64C
:105420000C773A404FF6FF7707EA03172F433A43CA
:10543000B64FB8420ED0B64FB8420BD0B0F1804F45
:1054400008D0B44FB84205D0B34FB84202D0B34FE2
:10545000B84206D14FF6FF57394046F480773943BA
:1054600005E04FF2FF57394044F480773943828397
:105470000184F0BD028B4FF2FF331A400283028B8E
:105480004FF6FF7303EA01231A4302837047F0B516
:105490000C461546002200210026078C4FF6EF7CB3
:1054A00007EA0C070784028B018C4FF6FF7707EAA7
:1054B000041640F6FF473A404FF6FF7707EA0337F6
:1054C0003A434FF6FF7707EA05273A438F4FB84232
:1054D0000ED08F4FB8420BD0B0F1804F08D08D4F17
:1054E000B84205D08C4FB84202D08C4FB84206D19A
:1054F0004FF6DF77394046F01007394305E04FF6A5
:105500005F77394044F01007394302830184F0BDCE
:10551000028B4FF6F3731A400283028B0A43028315
:105520007047F0B50C46154600220021068C4FF658
:10553000FE773E400684028B018C4FF60C7632409B
:105540007E1C06EA03162E433243704EB0420ED044
:105550006F4EB0420BD0B0F1804F08D06D4EB042CC
:1055600005D06D4EB04202D06C4EB04206D14FF61F
:10557000FD76314044F00106314305E04FF6F57603
:10558000314044F00106314302830184F0BD70B51F
:1055900005460C465D4885420ED05D4885420BD0DD
:1055A000B5F1804F08D05B48854205D05A48854206
:1055B00002D05A48854200D100E000BF208850B98F
:1055C0002389A28861882846FFF7ABFFE188284637
:1055D000FFF79EFF25E0208804280AD12389A288AE
:1055E00061882846FFF753FFE1882846FFF742FF0E
:1055F00017E0208808280AD12389A28861882846D4
:10560000FFF7FBFEE1882846FFF7EEFE09E023895D
:10561000A28861882846FFF7A6FEE1882846FFF7A2
:1056200095FE70BD2DE9F04105460C460026012788
:10563000608808B9022600E00026A088012801D170
:10564000022700E001272088A0B92389A288618869
:105650002846FFF766FFE1882846FFF759FF2389B0
:105660003A4631462846FFF712FFE1882846FFF701
:1056700001FF13E02389A28861882846FFF707FF0E
:10568000E1882846FFF7F6FE23893A463146284648
:10569000FFF747FFE1882846FFF73AFFBDE8F081B2
:1056A0000A884B881A438B881A43CB881A430B8984
:1056B0001A434B891A438B891A43A0F84420704738
:1056C0004FF6FF71818000210180C180418001720D
:1056D00070470021018041808180C180018141812A
:1056E0008181C18170470021018041800121818039
:1056F0000021C180018170470021018041808180AB
:10570000C18001814181818170470000002C0140EE
:10571000003401400004004000080040000C00403C
:1057200021B1028842F00102028004E002884FF6B3
:10573000FE731A400280704731B1B0F8442042F441
:105740000042A0F8442005E0B0F84420C2F30E0265
:10575000A0F8442070471AB183890B43838102E08B
:1057600083898B43838170478182704741EA0203BA
:10577000A0F8483070471AB183890B43838102E057
:1057800083898B438381704701894FF6F8721140FA
:10579000018170470A46002101894FF68F73194035
:1057A00011430181704730B504460D462946204615
:1057B000FFF7F0FF208940F00700208130BD2DE980
:1057C000F04104460D4616461F46602D06D13B4665
:1057D000012231462046FFF75AFE05E03B460122F2
:1057E00031462046FFF79DFE29462046FFF7D2FFAF
:1057F000208940F007002081BDE8F08130B50C46DB
:1058000000210189C9B24FF6FF7505EA032515434A
:1058100025432943018130BD2DE9F04105460E465F
:1058200017469846002443463A4631462846FFF735
:10583000E5FF2C894FF6F870044044F007044FF65A
:105840008F70044044F070042C81BDE8F081F0B505
:1058500004460D4616461F463B463246294620461C
:10586000FFF7CCFF208940F480402081F0BD018506
:10587000828270470A46002101884FF68F731940D3
:10588000114301807047F0B50C4615461E460021B5
:10589000002200230189028B038C4FF6F8773940F0
:1058A00021434FF6FC473A4040F201173A434FF686
:1058B000DD773B404FF6FF7707EA06172F433B4360
:1058C000018102830384F0BD0A460021018B4FF65B
:1058D0008F7319401143018370470A460021018BE1
:1058E00048F6FF7319404FF6FF7303EA022319438A
:1058F000018370470A460021818B4FF68F73194050
:105900001143818370470A460021818B48F6FF735B
:1059100019404FF6FF7303EA02231943818370474E
:1059200021B1028842F08002028004E002884FF632
:105930007F731A400280704721B1828842F00402CE
:10594000828004E082884FF6FB731A4082807047A1
:1059500021B1828842F00802828004E082884FF6FA
:10596000F7731A408280704721B1828842F00102A9
:10597000828004E082884FF6FE731A40828070476E
:105980000A460021018B4FF6F7731940114301833A
:1059900070470A460021018B4FF2FF7319404FF602
:1059A000FF7303EA02231943018370470A4600216B
:1059B000818B4FF6F77319401143818370470A4674
:1059C0000021818B4FF2FF7319404FF6FF7303EAFA
:1059D00002231943818370470A460021018B4FF649
:1059E000FB7319401143018370470A460021018B64
:1059F0004FF6FF3319404FF6FF7303EA02231943B2
:105A0000018370470A460021818B4FF6FB731940D2
:105A10001143818370470A460021818B4FF6FF3383
:105A200019404FF6FF7303EA02231943818370473D
:105A30000A460021018B4FF67F7319401143018301
:105A400070470A460021018BC1F30E014FF6FF7328
:105A500003EA02231943018370470A460021818B20
:105A60004FF67F7319401143818370470A46002126
:105A7000818BC1F30E014FF6FF7303EA0223194332
:105A8000818370470A460021018C4FF6FD7319404F
:105A90001143018470470A460021018C4FF6F773C9
:105AA00019401143018470470A460021018C4FF6CA
:105AB000DF7319404FF6FF7303EA021319430184A1
:105AC00070470A460021018C4FF67F7319404FF64C
:105AD000FF7303EA02131943018470470A46002149
